:1000000000000420C1010000ED010000ED0100002E
:10001000ED010000ED010000ED010000ED01000028
:10002000ED010000ED010000ED010000ED01000018
:10003000ED010000EC010000ED010000F92E0000D0
:10004000ED010000ED010000ED010000ED010000F8
:10005000ED010000ED010000ED010000ED010000E8
:10006000ED010000ED010000E1040000ED010000E1
:10007000F9360000ED010000ED010000ED01000087
:10008000ED010000ED01000011050000ED01000090
:10009000ED010000ED010000ED010000ED010000A8
:1000A000ED010000ED010000ED010000ED01000098
:1000B000ED010000ED010000ED010000ED01000088
:1000C000ED010000ED010000ED010000ED01000078
:1000D000ED010000ED010000ED010000ED01000068
:1000E000ED010000ED010000ED010000ED01000058
:1000F000ED010000ED010000ED010000ED01000048
:10010000ED010000ED010000ED01000010B5054C0F
:10011000237833B9044B13B10448AFF300800123B3
:10012000237010BDEC01002000000000005400000E
:1001300008B5034B1BB103490348AFF3008008BD6A
:1001400000000000F001002000540000154B002BBF
:1001500008BF134B9D46A3F5803A00218B460F46FE
:100160001348144A121A03F0B9FE0F4B002B00D0AB
:1001700098470E4B002B00D0984700200021040028
:100180000D000D48002802D00C48AFF3008003F0AA
:1001900081FE2000290003F097FD03F055FE00BF0B
:1001A0000000080000000420000000000000000023
:1001B000EC010020540200200000000000000000BC
:1001C000064880470649074A074B9A42BEBF51F886
:1001D000040B42F8040BF8E7FFF7B8FFE502000054
:1001E0000C54000000000020EC010020FEE700BFDE
:1001F00080B582B000AF00F025F878600A4BD3F8E4
:1002000008311B0AC3F308033B603B6801337A687B
:10021000B2FBF3F37B60054A7B6813607B6818468A
:100220000837BD4680BD00BF00400E4008000020DA
:1002300080B400AF024B1846BD465DF8047B7047A2
:1002400000F0490280B483B000AF1C4BD3F8943067
:1002500003F00703023B032B1BD801A252F823F043
:100260008102000079020000710200008902000092
:10027000134B1B687B6010E04FF400437B600CE085
:10028000104B1B687B6008E00F4B1B685B087B60B2
:1002900003E00D4B1B687B6000BF084BD3F80031B7
:1002A0001B0A03F01F0301337A68B2FBF3F318460D
:1002B0000C37BD465DF8047B704700BF00400E4020
:1002C00004000020000000200C00002080B400AFDB
:1002D000034B1B681846BD465DF8047B704700BFA2
:1002E0000000002080B400AF074B084A9A60064B1C
:1002F000D3F88830044A43F47003C2F8883000BF52
:10030000BD465DF8047B704700ED00E00000000092
:1003100080B400AF4FF400431846BD465DF8047B3F
:10032000704780B400AF4FF47A731846BD465DF84D
:10033000047B704780B400AF034B1B681846BD4672
:100340005DF8047B704700BF0400002080B483B0D8
:1003500000AF0346FB7197F90730002B0BDBFB79ED
:1003600003F01F02074997F907305B09012000FAE3
:1003700002F241F8232000BF0C37BD465DF8047B34
:10038000704700BF00E100E080B485B000AF786046
:1003900039607B6803F10473DA003B6813449B0007
:1003A000FB60FB681B6818461437BD465DF8047B8C
:1003B0007047000080B483B000AF7860044A7B6867
:1003C000C2F8243400BF0C37BD465DF8047B70478B
:1003D00000A0004080B400AF034BD3F81C34184693
:1003E000BD465DF8047B704700A0004080B582B038
:1003F00000AF03463960FB71FB79002B1CD0FB7901
:10040000012B19D0FB79022B16D0FB79032B13D0CB
:10041000FB79042B10D0FB79052B0DD0FB79062B33
:100420000AD0FB79072B07D0FB79082B04D0FB7986
:10043000092B01D0FB790A2BFA7913465B00134490
:100440001B011C3303F1804303F520433968184630
:10045000FFF79AFF034618460837BD4680BD0000E7
:1004600090B585B002AF0446084611461A462346A9
:10047000FB710346BB710B467B7113463B71012137
:10048000164800F025FBB979F8790023012202F023
:1004900001FA397978790023012202F0FBF90A2068
:1004A000FFF754FF1220FFF751FFB979F8790123C4
:1004B00001930123009300230E2202F04BF93979B6
:1004C0007879012301930123009300230F2202F086
:1004D00041F900BF0C37BD4690BD00BF00350A0092
:1004E00080B500AFFFF776FF0246084B1A6000BFE9
:1004F0000E210320FFF77AFF0346002BF8D0034BB1
:100500001B681846FFF756FF00BF80BD0802002099
:1005100080B500AFFFF75EFF0246084B1A6000BFD0
:100520000F210320FFF762FF0346002BF8D0034B97
:100530001B681846FFF73EFF00BF80BD0802002081
:1005400080B483B000AF064B1B687B60044B002275
:100550001A607B6818460C37BD465DF8047B70470F
:100560000802002080B500AF0F2303220E210320D4
:10057000FFF776FF00BF80BD80B500AFFFF7E0FF5B
:100580000346184680BD80B487B000AFF860B960FC
:100590007A60FB6803F10473DA00BB6813449B00C4
:1005A0007B617B697A681A6000BF1C37BD465DF8C5
:1005B000047B704780B485B000AF786039607B6899
:1005C00003F10473DA003B6813449B00FB60FB6893
:1005D0001B6818461437BD465DF8047B704780B42D
:1005E00083B000AF786001227B6802FA03F31846FB
:1005F0000C37BD465DF8047B7047000080B400AF47
:10060000064B1B6803F04003002B01D1012300E0DF
:1006100000231846BD465DF8047B70473C300E4011
:1006200080B500AFFFF7EAFF034683F00103DBB2BA
:10063000002B08D100BF12210448FFF7BBFF03467F
:10064000002BF8D100E000BF80BD00BF04300E4099
:1006500080B500AFFFF7E4FF034B5B681B0C03F0B2
:100660000303DBB2184680BD00300E4080B584B075
:1006700000AF78600123FB607B68124A934204D884
:100680000023FB600023BB6008E07B680E4A9342B6
:1006900002D80123BB6001E00223BB60FA6810218D
:1006A0000A48FFF770FF094BD3F8003123F080723E
:1006B000BB681B0605491343C1F8003100BF103762
:1006C000BD4680BD0048E8010090D00300400E40C8
:1006D00080B483B000AF054B1B687B607B68184615
:1006E0000C37BD465DF8047B704700BF100000204A
:1006F00080B582B000AFFFF7A5FD7860064BD3F858
:1007000000311B0A03F01F0301337A6802FB03F375
:1007100018460837BD4680BD00400E4080B582B007
:1007200000AF0D4800F01EFC0346FB70FB78072B62
:1007300005D0092B07D1FFF785FD786006E0FFF7AC
:10074000C7FF786002E000237B6000BF7B6818462B
:100750000837BD4680BD00BF06000E0080B584B0DE
:1007600000AF78607B68002B1CD11B4800F0FAFBBF
:100770000346FB7200BFFB7A013B072B23D801A283
:1007800052F823F0A9070000C7070000C7070000C0
:10079000B7070000C7070000C7070000AF07000049
:1007A000BF070000002312E00023FB600EE0FFF70C
:1007B0008FFFF8600AE0FFF789FDF86006E0FFF7B9
:1007C00097FFF86002E00023FB6000BFFB6818465B
:1007D0001037BD4680BD00BFB800320080B485B080
:1007E00000AF786039601E4B5B6803F04073FB60BC
:1007F0000023BB6012E01B4ABB68DB0013441A797C
:100800003B68DBB29A4206D1164ABB6852F83330D5
:100810007A689A4206D9BB680133BB60BB68042B77
:10082000E9D900E000BFBB68052B02D10323FB60C0
:1008300005E00C4ABB68DB0013445B79FB60FB6896
:100840001B06FB60064B5B6823F040720449FB68A3
:1008500013434B6000BF1437BD465DF8047B7047FF
:1008600000000E40D450000080B582B000AF0E4BA7
:100870001B6C002B14BF01230023FB710A4B41F6B4
:1008800071321A64FFF7D4FC034600211846FFF7C3
:10089000A5FFFB79002B02D0034B00221A6400BF96
:1008A0000837BD4680BD00BF00000E4080B584B053
:1008B00000AF786039600C4B1B6C002B14BF012318
:1008C0000023FB73084B41F671321A64396878686B
:1008D000FFF784FFFB7B002B02D0034B00221A643E
:1008E00000BF1037BD4680BD00000E4080B487B009
:1008F00000AF78600F237B617B6803333B617B69CA
:10090000FB60FA683B69934228BF1346BB60BB6833
:100910001B07BB60BB6818461C37BD465DF8047BEF
:100920007047000080B400AF044B5B6A1B0903F002
:1009300003031846BD465DF8047B704700400E4037
:1009400080B483B000AF7860074B5B6A23F030025D
:100950007B681B01044913434B6200BF0C37BD4643
:100960005DF8047B704700BF00400E4090B585B035
:1009700000AF78600023BB607B68354A934206D0A5
:10098000344A934203D0344A934200D000E000BF7F
:10099000786800F0E7FA0346FB607B682C4A9342D4
:1009A0000DD02C4A934211D02B4A934200D014E030
:1009B0002A4BD3F8803003F00703FB600DE0274B90
:1009C000D3F8843003F00703FB6006E0234BD3F831
:1009D000883003F00703FB6000BFFB68042B2ED8B0
:1009E00001A252F823F000BF390A0000FD090000FF
:1009F000050A0000150A00000D0A0000FFF788FC38
:100A0000B8601FE0FFF796FCB8601BE0FFF789FCB9
:100A1000B86017E0FFF716FC0446104BD3F800311E
:100A20001B0E03F0010301331846FFF7D8FD034600
:100A3000B4FBF3F3BB6005E00023BB6002E00023DE
:100A4000BB6000BFBB6818461437BD4690BD00BFF1
:100A5000030020000500240002001E0000400E409C
:100A600080B483B000AF78600A4BD3F8443103F010
:100A70000103002B08D100BF064BD3F840217B684F
:100A80001340002BF8D100E000BF0C37BD465DF8E5
:100A9000047B704700400E4080B400AF00BFBD46ED
:100AA0005DF8047B704780B400AF00BFBD465DF8C1
:100AB000047B704780B582B000AF7860786800F042
:100AC00087F90346013318460837BD4680BD00004C
:100AD00080B586B000AF78600B46FB7000233B61A9
:100AE0007B681B0A03F00F03013B092B44D801A2CA
:100AF00052F823F01D0B0000290B0000790B0000B9
:100B0000790B0000230B00002F0B0000390B0000B5
:100B1000790B0000430B00004F0B0000184B7B616A
:100B200018E0184B7B6115E0174B7B6112E0174B07
:100B30007B6101233B610DE0154B7B6110233B6121
:100B400008E0144B7B614FF480333B6102E0124BB1
:100B50007B6100BF7B681B0B03F01F03FB603B69DD
:100B6000002B02D03869FFF77BFFFB781A46F96843
:100B70007869FFF708FD00E000BF1837BD4680BD6B
:100B800000400E40B0400E40C0400E40E0400E40DD
:100B9000E8400E40F0400E4050410E4090B585B008
:100BA00000AF78607B6803F47813B3F5B01F00F0F2
:100BB0009480B3F5B01F21D8B3F5202F58D0B3F5EA
:100BC000202F08D8B3F5003F56D0B3F5802F40D082
:100BD000002B3AD0EBE0B3F5602F00F0D080B3F5F6
:100BE000602F03D8B3F5402F55D0E0E0B3F5801F58
:100BF00000F0C980B3F5A01F61D0D8E0B3F5101F95
:100C000000F0B880B3F5101F0BD8B3F5F01F51D02A
:100C1000B3F5001F00F08280B3F5D01F00F0838091
:100C2000C5E0B3F5401F00F09180B3F5401F03D835
:100C3000B3F5381F63D0BAE0B3F5481F00F0A780C2
:100C4000B3F5781F00F0A880B1E0FFF7FBFAF86079
:100C5000B0E0FFF7F7FAF860594BD3F80C311B0AF4
:100C6000C3F308030133FA68B2FBF3F3FB60A1E0BE
:100C7000FFF7E8FAF8609DE0FFF7E4FAF860504B00
:100C8000D3F808311B0AC3F308030133FA68B2FB37
:100C9000F3F3FB608EE0FFF7D5FAF860484BD3F82A
:100CA00014311B0A03F01F030133FA68B2FBF3F39C
:100CB000FB607FE04348FFF759FEF8607AE0424866
:100CC000FFF754FEF8603E4BD3F8303103F00303D6
:100CD000FA6822FA03F3FB606CE03A48FFF746FE3D
:100CE000F860374BD3F8203103F00F031846FFF7B5
:100CF00076FC0246FB68B3FBF2F3FB605AE0314836
:100D0000FFF734FEF8602E4BD3F820311B0903F0B7
:100D10000303FA6822FA03F3FB604BE02B48FFF76A
:100D200025FEF86046E02948FFF720FEF860244BD6
:100D3000D3F828311B0903F003031846FFF74FFCD3
:100D40000246FB68B3FBF2F3FB6033E01F48FFF79A
:100D50000DFEF8601A4BD3F828311B0A03F0030389
:100D600004331846FFF73BFC0246FB68B3FBF2F383
:100D7000FB601FE01448FFF7F9FDF8601AE0FFF789
:100D8000CDFCF86016E0FFF7A3FCF86012E000204D
:100D9000FFF7E4FCF8600DE0FFF754FA04467868CA
:100DA000FFF788FE0346B4FBF3F3FB6002E0002389
:100DB000FB6000BFFB6818461437BD4690BD00BFFE
:100DC00000400E4002001E00050024000300200029
:100DD00080B584B000AF78607B681B0903F00F0317
:100DE000BB60BB68013B092B00F2A88001A252F84E
:100DF00023F000BF1D0E00002D0E00003D0E000070
:100E00005D0E00003D0F00003D0F00006D0E000064
:100E10007D0E0000CB0E00001F0F00004B4BD3F8DF
:100E200000311B0A03F01F03FB608AE0474BD3F835
:100E300014311B0A03F01F03FB6082E0434BD3F81D
:100E400000311B0E03F00103FB60FB680133184601
:100E5000FFF7C5FB0346013BFB6072E03B4BD3F859
:100E60000C311B0AC3F30803FB606AE0374BD3F86D
:100E700008311B0AC3F30803FB6062E07B68344A55
:100E8000934203D0334A93420DD01AE02F4BD3F84C
:100E9000203103F00F03FB60F868FFF7A0FB034667
:100EA000013BFB6010E0294BD3F820311B0903F014
:100EB0000303FB60F868FFF792FB0346013BFB600E
:100EC00002E00023FB6000BF3BE07B68224A9342C4
:100ED00003D0224A93420ED01DE01C4BD3F8283198
:100EE0001B0903F00303FB60F868FFF778FB034678
:100EF000013BFB6012E0154BD3F828311B0A03F0CD
:100F00000303FB60FB6804331846FFF768FB0346E6
:100F1000013BFB6002E00023FB6000BF11E07B6847
:100F20000F4A934206D1094BD3F8303103F0030343
:100F3000FB6002E00023FB6000BF02E00023FB60D7
:100F400000BFFB6818461037BD4680BD00400E400C
:100F50008006160080162E0090171A009027300089
:100F6000A009140080B485B000AF78600123FB7342
:100F70007B6803F00F03BB60BB68013B072B00F2EB
:100F8000C48001A252F823F0A90F0000FF0F000057
:100F90002F1000000B11000075100000A5100000BC
:100FA0000B110000C91000005D4BD3F8943003F022
:100FB0000703023B052B1ED801A252F823F000BF05
:100FC000E50F0000DF0F0000D90F0000EB0F00005D
:100FD000F70F0000F10F00000223FB730EE0032364
:100FE000FB730BE00423FB7308E00B23FB7305E0AA
:100FF0000C23FB7302E00523FB7300BF88E0484B22
:10100000D3F8803003F00703022B06D0042B07D05F
:10101000012B08D10323FB7308E00223FB7305E0D7
:101020000A23FB7302E00123FB7300BF70E03C4B1B
:10103000D3F8843003F00703013B032B16D801A239
:1010400052F823F0551000005B10000067100000FC
:10105000611000000323FB730BE00223FB7308E025
:101060000A23FB7305E00623FB7302E00123FB73F5
:1010700000BF4DE02A4BD3F8883003F00703022B62
:1010800006D0042B07D0012B08D10323FB7308E003
:101090000223FB7305E00A23FB7302E00123FB73C9
:1010A00000BF35E01E4B1B6F03F00103002B04D083
:1010B000012B05D10923FB7305E00723FB7302E035
:1010C0000123FB7300BF23E0154BD3F85C3103F021
:1010D0003003102B0CD0102B02D8002B05D010E0C1
:1010E000202B08D0302B09D00BE00123FB730BE041
:1010F0000723FB7308E00423FB7305E00823FB735D
:1011000002E00123FB7300BF02E00023FB7300BF7A
:10111000FB7B18461437BD465DF8047B704700BF63
:1011200000400E4080B58AB000AF78600B46FB707F
:1011300003237B62032387F823300023BB61002352
:101140007B617B68112B19D1FB78042B03D1FFF74E
:10115000BDF878610BE0FB78052B08D100F058F959
:101160000246A44B9A4202D900F052F978617B6999
:10117000002B03D00021786900F092FC7B6803F01B
:101180000F033B613B69013B072B00F2298101A260
:1011900052F823F0B5110000A7120000B9120000A8
:1011A000E1130000AB12000051130000E113000036
:1011B0006F130000FB78023B0A2B00F2138101A29F
:1011C00052F823F0F1110000FD1100000912000097
:1011D0001B120000E5130000E5130000E5130000FA
:1011E000E5130000E51300002D1200003912000085
:1011F00004237B62002387F8233023E003237B62F0
:10120000012387F823301DE002237B62022387F845
:1012100023307948FFF72AFA14E001237B62032385
:1012200087F823307448FFF721FA0BE005237B622F
:10123000032387F8233005E007237B62062387F822
:10124000233000BF97F82330062B06D097F82330C1
:1012500001220121184600F059F9FFF705FBFFF7BD
:101260001BFC7B69002B01D0FFF7DAF9634A7B6A2C
:101270005367FEF7BDFFF860FEF7E4FF034618462C
:10128000FFF7F4F9FFF7E4F903461946F868FFF7AA
:101290000DFB7B69002B03D10121002000F000FC35
:1012A000FFF701FCA3E0564BBB61BB69002B01D0EB
:1012B000BB6900E0534BBB61BB69002B01D0BB692C
:1012C00000E0514BBB61FB78013B092B00F28C80A5
:1012D00001A252F823F000BF011300000713000021
:1012E00017130000E9130000E913000027130000A2
:1012F000E9130000E9130000E913000043130000A4
:101300000023FB6120E001220121002000F0FEF813
:101310000223FB6118E001220121012000F0F6F810
:101320000123FB6110E0FEF78DFF03461846FFF72F
:101330009DF9012202213548FFF725F90323FB61BE
:1013400002E00423FB6100BFBB69FA691A604EE04A
:10135000FB78072B02D0092B04D048E0274B002252
:101360001A6703E0254B01221A6700BF3FE0FB78B4
:10137000013B072B3AD801A252F823F09D1300003D
:10138000ED130000ED130000B3130000ED13000097
:10139000ED130000A3130000C31300000023FB6142
:1013A00012E001220121042000F0B0F80123FB61CA
:1013B0000AE001220121022000F0A8F80223FB61CB
:1013C00002E00323FB6100BF0C4BD3F85C3123F038
:1013D0003002FB691B0109491343C1F85C3106E087
:1013E00000BF04E000BF02E000BF00E000BF2837FC
:1013F000BD4680BD002D31010148E80100400E408E
:1014000080400E4088400E4084400E40B0400E4068
:1014100080B400AF034B1B681846BD465DF8047BE3
:10142000704700BF0C00002090B585B000AF786019
:101430001120FFF797FD01220021022000F066F83D
:101440007B685B7883F00103DBB2002B0DD07B68F7
:101450009B7883F00103DBB2002B06D07B68DB783E
:1014600083F00103DBB2002B00BF0023FB607B682D
:101470001B7C022B01D10123FB60224B5B6A23F012
:1014800001022049FB6813434B627B681B781A46B4
:1014900008211D48FFF777F87B689B88DB027A6894
:1014A000527A1146174A0B43D362164B1B6B03F05B
:1014B0007F627B68DB88DB0213437A68927A1A4387
:1014C0007B681B7ADB0142EA03047B681B7A1846BF
:1014D000FFF70CFA03460B4A234313637B685B7BDD
:1014E0001A037B689B7B1B0113437A68D27B1A43E8
:1014F0007B681B7B1B04034913434B6300BF1437FA
:10150000BD4690BD00400E4024400E4080B588B0DE
:1015100000AF0346FB710B46BB7113467B71FB7931
:10152000042B00F2B88001A252F823F089150000C4
:1015300077150000531500004115000065150000E7
:1015400001237B6102233B610123FB610023BB611B
:1015500025E004237B6108233B610323FB61022315
:10156000BB611CE010237B6120233B610523FB61F1
:101570000423BB6113E040237B6180233B6107238D
:10158000FB610623BB610AE04FF480737B614FF47B
:1015900000733B610923FB610823BB6100BFBB797A
:1015A000002B5BD00023FB73FB79022B11D1FFF7DB
:1015B000B9F90346002B0CD1394BDB6B0123FB73CC
:1015C000384B5B6A03F00103012B02D10120FFF7C6
:1015D000B7F9344A7B69136600BFB9693248FEF730
:1015E000E9FF0346002BF8D07B79002B54D000BFD5
:1015F000F9692D48FEF7DEFF0346002BF8D0FB7992
:10160000022B49D1FB7B002B46D0264B5B6A03F0B3
:101610000103012B05D101222021022000F04AF90B
:1016200003E00021022000F0FBF8022000F03EF869
:10163000B860012200210220FFF768FFB96802208C
:1016400000F06EF8174A7B69136600BFF969164807
:10165000FEF7B0FF0346002BF8D01DE0114A3B69AE
:10166000136600BF0F4BD3F890300121BA6901FA1D
:1016700002F21340002BF5D17B79002B0CD000BF78
:10168000084BD3F890300121FA6901FA02F21340B5
:10169000002BF5D100E000BF2037BD4680BD00BF64
:1016A00000300E4000400E4090400E4080B485B0A7
:1016B00000AF0346FB71FB79013B032B23D801A24A
:1016C00052F823F0D5160000F9160000E1160000CC
:1016D000ED160000114B1B6AC3F30803FB6015E015
:1016E0000E4B1B6903F07F03FB600FE00B4B9B6904
:1016F00003F07F03FB6009E0084BD3F89C30C3F391
:101700000A03FB6002E00023FB6000BFFB68184691
:101710001437BD465DF8047B704700BF00400E40A3
:1017200080B584B000AF03463960FB71FB79013BA3
:10173000032B6AD801A252F823F000BF4D17000016
:10174000CF1700007B170000A51700003B68C3F30C
:1017500008033B6000BF1A212E48FEF72BFF03460B
:10176000002BF8D12C4B1B6A23F4FF7323F00103E9
:1017700029493A6813430B6248E03B6803F07F0352
:101780003B6000BF18212348FEF714FF0346002BDF
:10179000F8D1214B1B6923F07F021F493B6813439B
:1017A0000B6133E03B6803F07F033B6000BF19210E
:1017B0001848FEF7FFFE0346002BF8D1164B9B6935
:1017C00023F07F0214493B6813438B611EE0124BE8
:1017D000D3F89030104B5B6A23F030030E4A43F08D
:1017E000100353623B68DB0903F00F031846FFF751
:1017F0007DF8F860084B1A6B084B13403A681A439F
:101800000549FB6813430B6300E000BF00BF1037BE
:10181000BD4680BD40410E4000400E4000F8FF0F25
:1018200080B584B000AF03460A46FB711346BB7116
:10183000FFF778F80346002B03D14FF44003FB6019
:1018400016E0BB79202B04D0302B0AD0002B04D01B
:101850000BE04FF40003FB600AE04FF44003FB6031
:1018600006E04FF44003FB6002E0104BFB6000BF5A
:1018700000BF0F4BD3F89020FB681340FA689A42E0
:10188000F7D1FB6803F48003002B0AD0084BD3F890
:10189000A03003F48063002B14BF01230023DBB2CC
:1018A00000E0012318461037BD4680BDFF33E10735
:1018B00000400E4080B582B000AF0346FB710B467E
:1018C000BB7113467B71FB79022B00D016E0BB790C
:1018D000002B07D00C4B4FF48062C3F8A8200A4AB3
:1018E000BB7953667B79002B07D0BA79FB79114617
:1018F0001846FFF795FF034601E000BF0123184695
:101900000837BD4680BD00BF00400E4080B483B0A4
:1019100000AFEFF310833B603B687B6072B67B687F
:1019200018460C37BD465DF8047B704780B483B021
:1019300000AF78607B68002B00D162B600BF0C3727
:10194000BD465DF8047B704780B487B000AFF86097
:10195000B9607A60FB6803F10473DA00BB68134472
:101960009B007B617B697A681A6000BF1C37BD46AB
:101970005DF8047B704780B485B000AF7860396053
:101980007B6803F10473DA003B6813449B00FB603F
:10199000FB681B6818461437BD465DF8047B70472A
:1019A00080B400AF064B1B6803F04003002B01D14D
:1019B000012300E000231846BD465DF8047B704714
:1019C0003C300E4080B500AFFFF7EAFF034683F0DE
:1019D0000103DBB2002B08D100BF12210448FFF73E
:1019E000CAFF0346002BF8D100E000BF80BD00BF56
:1019F00004300E4080B500AFFFF7E4FF034B5B6897
:101A00001B0C03F00303DBB2184680BD00300E4010
:101A100080B483B000AF7860044A7B68D36200BFB3
:101A20000C37BD465DF8047B704700BF00300E40A8
:101A300080B400AF034B5B6A1846BD465DF8047B7B
:101A4000704700BF00300E4080B400AF034B00224F
:101A50005A6300BFBD465DF8047B704700300E40FE
:101A600080B400AF044B4AF6E8525A6300BFBD464B
:101A70005DF8047B704700BF00300E4080B483B037
:101A800000AF0346FB71FB79C3F10203102202FA97
:101A900003F318460C37BD465DF8047B7047000021
:101AA00080B584B000AF78600B46FB70FFF778FF1D
:101AB000034683F00103DBB2002B28D17B68002BA7
:101AC0000FD1154BD3F800311B0A03F01F0301336C
:101AD000BB60FEF7B7FB0246BB6802FB03F3FB608B
:101AE00001E07B68FB600D4B1B78002B09D0FB6885
:101AF0000B4A934205D8FB781946022000F012F8F1
:101B000006E0FB781946002000F00CF800E000BF6A
:101B10001037BD4680BD00BF00400E4014020020BB
:101B2000002D310190B587B000AF03460A46FB7126
:101B30001346BB71FFF734FF034683F00103DBB2AA
:101B4000002B31D1FFF756FF03461A46FB7993422B
:101B50002CD0184BD3F800311B0A03F01F030133BC
:101B60007B61FEF76FFB38613B697A6902FB03F327
:101B7000FB60FB79022B03D102213869FEF796FE48
:101B80000D4CFB791846FFF779FF03462361BB79BB
:101B9000002B01D0FFF716FFFB79002B07D10021A6
:101BA0003869FEF783FE02E000BF00E000BF1C378B
:101BB000BD4690BD00400E4000300E4080B400AFE6
:101BC00001231846BD465DF8047B704780B582B09E
:101BD00000AF0C4BDB6E0B4A43F08073D3660021E1
:101BE0000948FFF7C8FE78607B68002B03D004200B
:101BF00000F0B0FC02E0002000F0ACFC00BF0837B1
:101C0000BD4680BD00300E404C300E4080B48BB0DD
:101C100000AF01237B627B6A1B053B62324BDB6CAE
:101C20001B0A03F00F03FB61304B1B881A462F4B36
:101C30001B8828335B08134403F12801FB695A1CF5
:101C400013469B001344B1FBF3F3013BBB61BB693B
:101C50007B6107233B613A697B69934228BF134646
:101C6000BB61BB691B06BB611F4BDB6C23F0EE62E3
:101C7000B9693B6A0B431C491343CB641C4BB3F952
:101C80000030002B29DB1A4BB3F90030FB81FA89B5
:101C9000FB8928335B08134403F12802FB690133F5
:101CA0005900FB6901335B080B44B2FBF3F3BB60E3
:101CB000BB687B6007233B603A687B68934228BF20
:101CC0001346BB60BB681B01BB60074B1B6D23F059
:101CD00070020549BB6813430B6500BF2C37BD4636
:101CE0005DF8047B704700BF00300E400C020020FE
:101CF0001002002080B483B000AF78600B467B8078
:101D00007B689AB2054B1A80054A7B88138000BF16
:101D10000C37BD465DF8047B704700BF0C02002005
:101D20001002002080B483B000AF0346FB71FB7942
:101D3000002B02D0012B04D007E0074B074A9A651D
:101D400003E0054B064A9A6500BF00BF0C37BD464D
:101D50005DF8047B704700BF00300E40774020578D
:101D6000372110B780B485B000AF0346FB710B4636
:101D7000BB7113467B712D4BD3F88031FB60BB796F
:101D8000032B1DD801A252F823F000BF9D1D0000B7
:101D9000A51D0000AF1D0000B91D0000FB68DBB2EF
:101DA000FB600FE0FB681B0ADBB2FB600AE0FB682C
:101DB0001B0CDBB2FB6005E0FB681B0EFB6001E067
:101DC00000232CE07B79002B11D1FB681B03FB6007
:101DD000FB6823F47043002B01D000231FE0144B59
:101DE000DB6E23F470421249FB681343CB667B79A8
:101DF000012B13D1FB681B03FB60FB6823F47043CA
:101E0000002B01D000230AE0094BD3F8EC3023F477
:101E100070420749FB681343C1F8EC3001231846B0
:101E20001437BD465DF8047B704700BFB081E00FFA
:101E300000300E4080B489B000AFF860B960114640
:101E40001A460B46FB711346BB710023FB6100234E
:101E5000BB61BB791B02FA79002A01D0012200E0A4
:101E6000002213437B617B6940F2011293422AD026
:101E7000B3F5817F07D2012B19D0012B47D3B3F5DE
:101E8000807F50D073E040F20122934227D040F28D
:101E90000122934203D8B3F5007F50D067E0B3F539
:101EA000407F58D040F20132934224D05FE0364B5D
:101EB000D3F87431FB61FB691B0ADBB2BB61FB69C0
:101EC000DBB2FB6153E0304BD3F87431FB61FB694B
:101ED0001B0EBB61FB691B0CDBB2FB6147E02A4BAD
:101EE000D3F87831FB61FB691B0ADBB2BB61FB698C
:101EF000DBB2FB613BE0244BD3F87831FB61FB693B
:101F00001B0EBB61FB691B0CDBB2FB612FE01E4BA0
:101F1000D3F86C31FB61FB691B0ADBB2BB61FB6967
:101F2000DBB2FB6123E0184BD3F86C31FB61FB693A
:101F30001B0EBB61FB691B0CDBB2FB6117E0124B94
:101F4000D3F87031FB61FB691B0ADBB2BB61FB6933
:101F5000DBB2FB610BE00C4BD3F87031FB61FB692A
:101F60001B0EBB61FB691B0CDBB2FB6100BFFB6896
:101F7000FA691A60BB68BA691A6000BF2437BD46A7
:101F80005DF8047B704700BFB081E00F80B584B07E
:101F900000AF0346FB713E4B5B6B012B0CBF012373
:101FA0000023FB73FFF75CFD00BF394B9B6F03F011
:101FB0000103002BF9D1364B1B6C03F00303BB600C
:101FC000BB68002B04D001220D213248FFF7BCFC76
:101FD000BB68DBB2FA799A4208D1FB79002B53D166
:101FE00000220D212B48FFF7AFFC4DE0BB68032B0F
:101FF00002D0BB68002B20D1FB79022B02D0FB79E9
:10200000012B1AD14FF40020FFF702FD00BF204B37
:102010009B6F03F00103002BF9D11D4B1B6C23F0C8
:1020200003031B4A43F00103136400BFFFF700FDE5
:10203000034603F40023002BF8D000BF144B9B6F22
:1020400003F00103002BF9D1114B1B6C23F00302A9
:10205000FB790F4913430B6400BF0D4B9B6F03F0DB
:102060000103002BF9D1FB79002B14BF01230023BE
:10207000DBB21A460D210748FFF766FCFB7B002BFD
:1020800003D0FFF7E1FC00E000BF1037BD4680BD84
:1020900000300E4054300E4080B584B000AF786000
:1020A000484B02229A63474B9B6B03F00F03022BB2
:1020B00001D0002381E0FFF781FD7B685B78012B75
:1020C00002D07B685B78022B7B68DB884A2B02D8C6
:1020D0000023FB6015E07B68DB88B3F5FA7F03D251
:1020E0004FF08053FB600CE07B68DB8840F6C31246
:1020F000934203D84FF00053FB6002E04FF040538F
:10210000FB60304BDB6C23F0405323F001037A6813
:10211000B2F90C20002A01DB012100E00021FA685D
:102120000A4328491343CB64264BD3F8EC30254AA5
:1021300043F44073C2F8EC307B689A88224B1A80D3
:10214000FFF744FD7B681B891A467B68B3F90C30A6
:1021500019461046FFF7CEFD7B689B88184600F0B5
:102160008DF97B689B7B1846FFF7DCFD7B685B88FD
:1021700001220121184600F02BF8034683F00103E9
:10218000DBB2002B01D0002317E00E4BDB6B0D4AB6
:1021900043F48063D3637B685B781846FFF7F6FEF1
:1021A0007B689B7A202B01D1012300E000231A4693
:1021B00005210648FFF7C8FB012318461037BD4626
:1021C00080BD00BF00300E400E0200203C300E40AB
:1021D00090B595B000AF78600B46FB701346BB70AE
:1021E0000023FB6400237B6407F1240300221A60B0
:1021F0005A609A6007F1180300221A605A609A60C8
:1022000007F10C0300221A605A609A6007F1080374
:1022100000210A461A800A469A707B68B3F5E16F7E
:1022200006D37B6840F6B832934201D8012300E020
:10223000002387F8433097F8433003F0010387F811
:10224000433097F8433083F00103DBB2002B01D019
:1022500000230AE17B68B3F5E16F8CBF0123002303
:1022600087F8423097F84230002B0AD04FF4E163F0
:10227000FB6440F6B8337B647A6CFB6CD31ABB64A6
:1022800009E04FF49663FB644FF4E1637B647A6C7E
:10229000FB6CD31ABB6497F84230002B0BD0754B04
:1022A000D3F868313B623B6A1B0E7B613B6A1B0CB7
:1022B000DBB23B620AE06F4BD3F868313B623B6AAA
:1022C0001B0ADBB27B613B6ADBB23B626A4BDB6CB5
:1022D0001B0FDBB203F00303DBB23B723B7A97F8D0
:1022E000422007F10C0107F11800FFF7A3FD624B34
:1022F000D3F8EC301B0ADBB203F00303DBB27B72D2
:102300007C7A97F8422007F10C03191D07F1180396
:10231000181D2346FFF78EFD7A68FB6CD31A796986
:102320003A6A8A1A02FB03F2BB6CB2FBF3F3FB625C
:10233000FA6A3B6A1344FB627A68FB6CD31AF96849
:10234000BA698A1A02FB03F2BB6CB2FBF3F37B623D
:102350007A6ABB6913447B627A68FB6CD31A396969
:10236000FA698A1A02FB03F2BB6CB2FBF3F3BB629D
:10237000BA6AFB691344BB62FA6A7B699A4213D852
:10238000FA6A3B6A9A420FD3BA6A3B699A420BD8FF
:10239000BA6AFB699A4207D37A6AFB689A4203D801
:1023A0007A6ABB699A4201D200235EE0BB78002BB7
:1023B00012D0314BDB6D23F4FE4323F00203FA6AA3
:1023C0001202134397F84220002A01D0022200E0B3
:1023D000002229491343CB65FB78002B44D0397A7E
:1023E00097F8423000221846FFF7BCFC034683F002
:1023F0000103DBB2002B01D0002336E0797A97F895
:10240000423001221846FFF7ADFC034683F001037A
:10241000DBB2002B01D0002327E07B6AFB63BB6AA1
:10242000BB63BA6BFB6B934238BF13467B627B6A1C
:102430007B63E7233B633A6B7B6B934228BF134676
:102440007B620D4B5B6E23F4FF7323F001037A6A0A
:102450005200134397F84220002A01D0012200E0E5
:102460000022054913434B66012318465437BD46E5
:1024700090BD00BFB081E00F00300E4080B584B049
:1024800000AF78600023FB60314B1B6F03F0070344
:10249000BB602F4BDB6C03F00103002B14D0BB6837
:1024A000012B11D97B68132B02D80423FB6037E082
:1024B0007B68132B05D97B68272B02D80823FB6088
:1024C0002EE01023FB602BE0214BDB6C03F00103BB
:1024D000002B14D1BB68012B11D87B68092B02D8C3
:1024E0000423FB601CE07B68092B05D97B68132B58
:1024F00002D80823FB6013E01023FB6010E0144BAC
:10250000DB6C03F00103002B0AD0BB68012B07D85A
:102510007B68272B02D80823FB6001E01023FB60B7
:10252000FB68013BFB60FB681A02FB681B0313435B
:10253000FB60074BDB6C23F47F420549FB681343C8
:10254000CB64FFF763FB00BF1037BD4680BD00BF03
:1025500000300E4080B584B000AF0346FB7100210F
:102560000E48FFF708FAF860FB68002B02D1FB79F0
:10257000012B01D9FB68002B00BF094B1B6F23F017
:102580000702FB79064913430B67064B1B88184665
:10259000FFF774FF00BF1037BD4680BD4C300E40C2
:1025A00000300E400E02002080B487B000AFF8600B
:1025B000B9607A60FB6803F10473DA00BB68134406
:1025C0009B007B617B697A681A6000BF1C37BD463F
:1025D0005DF8047B704780B485B000AF78603960E7
:1025E0007B6803F1C063FB60FB683A681A6000BF58
:1025F0001437BD465DF8047B704780B485B000AFEA
:10260000786039607B6803F18063FB60FB683A683F
:102610001A6000BF1437BD465DF8047B704780B573
:1026200084B000AFF860B9607A60B968F868FFF705
:10263000E4FF7968F868FFF7CEFF00BF1037BD46AA
:1026400080BD000080B483B000AF7860044A7B682E
:10265000C2F8243400BF0C37BD465DF8047B7047D8
:1026600000A0004080B582B000AF03463960FB7126
:10267000FB79002B1CD0FB79012B19D0FB79022BA5
:1026800016D0FB79032B13D0FB79042B10D0FB79E8
:10269000052B0DD0FB79062B0AD0FB79072B07D031
:1026A000FB79082B04D0FB79092B01D0FB790A2B8D
:1026B000FA7913465B0013441B010C3303F180438A
:1026C00003F5204301213A6801FA02F21146184647
:1026D000FFF793FF00BF0837BD4680BD80B582B0CD
:1026E00000AF03463960FB71FB79002B1CD0FB79EE
:1026F000012B19D0FB79022B16D0FB79032B13D0B9
:10270000FB79042B10D0FB79052B0DD0FB79062B20
:102710000AD0FB79072B07D0FB79082B04D0FB7973
:10272000092B01D0FB790A2BFA7913465B0013447D
:102730001B010C3303F1804303F5204301213A6868
:1027400001FA02F211461846FFF745FF00BF0837AD
:10275000BD4680BD80B586B000AFB9607A601A46CC
:102760000346FB731346BB7300237B61FB7B002B8B
:102770001CD0FB7B012B19D0FB7B022B16D0FB7BE3
:10278000032B13D0FB7B042B10D0FB7B052B0DD030
:10279000FB7B062B0AD0FB7B072B07D0FB7B082B90
:1027A00004D0FB7B092B01D0FB7B0A2B7B68072B1A
:1027B0000ED87B689B000F2202FA03F1FA7B7B683C
:1027C0009B0002FA03F31A462B48FFF728FF10E09C
:1027D0007B68083B7B617B699B000F2202FA03F157
:1027E000FA7B7B699B0002FA03F31A462348FFF742
:1027F00016FF7B68072B10D87B689B00032202FA28
:1028000003F1BB6803F003027B689B0002FA03F349
:102810001A461B48FFF703FF0FE07B699B0003226A
:1028200002FA03F1BB6803F003027B699B0002FA22
:1028300003F31A461348FFF7F2FEBB7B1A4679688A
:102840001148FFF7B1FE97F820301A4679680F4813
:10285000FFF7AAFE01227B6802FA03F31846FFF78E
:10286000F1FE97F824301A4679680948FFF79CFE74
:1028700000BF1837BD4680BD00A4004004A400403E
:1028800008A400400CA4004010A4004014A4004080
:1028900028A4004080B584B000AFB9607B600346D7
:1028A000FB731346BB73FB7B002B1CD0FB7B012B04
:1028B00019D0FB7B022B16D0FB7B032B13D0FB7BA9
:1028C000042B10D0FB7B052B0DD0FB7B062B0AD0F5
:1028D000FB7B072B07D0FB7B082B04D0FB7B092B52
:1028E00001D0FB7B0A2BBB7B002B0DD07B68002B20
:1028F00005D0FB7BB9681846FFF7F0FE04E0FB7BD0
:10290000B9681846FFF7AEFEBB68072B20D82E49E2
:10291000FA7B13465B0013441B010B4404331A6813
:10292000BB689B000F2101FA03F3DB431340B97B23
:10293000BA68920001FA02F211462348FA7B194361
:1029400013465B0013441B0103440433196025E064
:102950001D49FA7B13465B0013441B010B440833EB
:102960001A68BB6803F18043083B9B000F2101FA02
:1029700003F3DB4302EA0301BA7BBB6803F1804344
:10298000083B9B0002FA03F30F48FA7B19431346F6
:102990005B0013441B01034408331960BB7B002B0D
:1029A0000DD17B68002B05D0FB7BB9681846FFF77B
:1029B00095FE04E0FB7BB9681846FFF753FE00BFA5
:1029C0001037BD4680BD00BF00A0004080B487B076
:1029D00000AFF860B9607A60FB6803F10473DA0055
:1029E000BB6813449B007B617B697A681A6000BFF7
:1029F0001C37BD465DF8047B7047000080B582B08F
:102A000000AF0346FB71FB791A4600210348FFF72C
:102A1000DDFF00BF0837BD4680BD00BF0020044079
:102A200080B483B000AF78607B681B78002B01D046
:102A3000012200E000227B685B78002B01D0042398
:102A400000E0002313437A689278002A01D0102214
:102A500000E0002213437A68D278002A01D02022B5
:102A600000E000221A437B681B791B021A437B6833
:102A70005B791B0313437A689279002A02D04FF4E2
:102A8000004200E000221A437B68DB791B041343F9
:102A90007A68127A002A02D04FF4003200E0002255
:102AA000044913430B6000BF0C37BD465DF8047B3F
:102AB000704700BF0020044080B483B000AF78604E
:102AC0000B46FB70FB7863F07F03DBB21A467B6832
:102AD0009A6500BF0C37BD465DF8047B7047000067
:102AE00080B586B000AFF860B9607A60FB70BB68F3
:102AF000002B03D12448FEF751F8B860FB78202B57
:102B00000CD0202B02DC002B05D03AE0402B08D063
:102B1000602B09D035E010237B6108E008237B613E
:102B200005E006237B6102E004237B6100BFBB68F4
:102B30005A017B69796801FB03F35B0813443B612D
:102B40007B697A6802FB03F33A69B2FBF3F33B61FA
:102B50003B69203B3B613B69DB003B613A690B4BC6
:102B600013403B61FB681B6823F06002FB681A603E
:102B7000FB681A68FB781A43FB681A60FB683A69BD
:102B80005A611837BD4680BD40410500F8FF7F00FF
:102B900080B485B000AF78600B46FB707B68114A4B
:102BA00093420AD07B68104A934206D07B680F4A52
:102BB000934202D07B680E4A934200BFFB78DB430E
:102BC000FB60FB6803F00503FB60FB685A007B6851
:102BD000DA60FA787B68DA6000BF1437BD465DF8CA
:102BE000047B7047000001400004014000080140E0
:102BF000000C014080B582B000AF786039607B681E
:102C0000334A93420AD07B68324A934206D07B68AB
:102C1000314A934202D07B68304A934200BF7868C1
:102C200000F05EF83B689B7C002B05D07B681B683E
:102C300043F080427B681A603B68DB7C002B05D048
:102C40003B681B7D19467868FFF736FF3B685B7B66
:102C50001A463B681B8A13433A68D2891A437B6839
:102C60005A603B6859683B689A683B681B7B786888
:102C7000FFF736FF3B685B7D002B05D07B681B6848
:102C800043F480327B681A603B689B7D1B0703F02E
:102C9000E0423B68DB7D1B0503F4E0031A437B68DD
:102CA0001A667B685B6F23F030027B685A677B682B
:102CB0005B6F3A68127E1A437B685A673B681B78E1
:102CC0001A467B68DA6000BF0837BD4680BD00BF8A
:102CD000000001400004014000080140000C0140D8
:102CE00080B483B000AF78607B682C4A93420AD0EE
:102CF0007B682B4A934206D07B682A4A934202D0D3
:102D00007B68294A934200BF7B6840F6AA62DA607A
:102D10007B6800221A607B6841F205025A607B687A
:102D200000229A607B6800225A617B680022DA6484
:102D30007B681E4A9A647B6800221A667B680022C0
:102D40005A677B6800229A677B680022DA677B6893
:102D5000124A93420BD07B68114A934207D07B689A
:102D6000104A934203D07B680F4A934202D17B689A
:102D700000221A657B6800229A657B68084A9342A4
:102D800003D07B68084A934202D17B680022DA654F
:102D900000BF0C37BD465DF8047B70470000014062
:102DA0000004014000080140000C0140F9FF01004F
:102DB00080B483B000AF786000BF7B681B6903F00C
:102DC0008003002BF9D07B68DB69DBB218460C3737
:102DD000BD465DF8047B704780B483B000AF786077
:102DE0000B46FB7000BF7B681B6903F04003002BA0
:102DF000F9D0FA787B685A6300BF0C37BD465DF89E
:102E0000047B704780B483B000AF03463960FB7128
:102E100097F90730002B0ADB3B68DAB20C4997F9C7
:102E200007305201D2B20B4483F800230AE03B681A
:102E3000DAB20849FB7903F00F03043B5201D2B226
:102E40000B441A7600BF0C37BD465DF8047B704713
:102E500000E100E000ED00E080B582B000AF7860F6
:102E60007B68013BB3F1807F01D301230FE00A4A65
:102E70007B68013B536007214FF0FF30FFF7C2FF33
:102E8000054B00229A60044B07221A600023184663
:102E90000837BD4680BD00BF10E000E080B584B0BB
:102EA00000AF78601048FDF779FE02460F4BA3FB98
:102EB00002239A097B6802FB03F3FB6079680C48E4
:102EC00001F0DAFAFB68B3F1807F05D36FF07F433E
:102ED000FB60084801F0D0FAF868FFF7BDFF00BFBB
:102EE0001037BD4680BD00BF70000200D34D621098
:102EF000FC5000001451000080B400AF0B4B1B6865
:102F000001330A4A1360094B1B68B3F57A7F07D96E
:102F1000064B00221A60064B1B680133044A1360FB
:102F200000BFBD465DF8047B704700BF180200205B
:102F30001C02002080B400AF034B1B681846BD463E
:102F40005DF8047B704700BF1802002080B582B096
:102F500000AF78607868FFF7A1FF00BF0837BD4673
:102F600080BD000080B582B000AF114B1B68114AD4
:102F70001360FFF7DFFF02460D4B1A60FDF7FCFA06
:102F800038603B68B3F5804F02D10023FB710AE043
:102F9000074B1A68074B1B689A4202D00123FB714A
:102FA00001E00423FB71FB7918460837BD4680BD5C
:102FB000200200202402002080B400AF00BFBD46E4
:102FC0005DF8047B704780B485B000AF78603960ED
:102FD0007B6803F1C063FB60FB683A681A6000BF5E
:102FE0001437BD465DF8047B704780B485B000AFF0
:102FF000786039607B6803F18063FB60FB683A6846
:103000001A6000BF1437BD465DF8047B704780B579
:1030100082B000AF03463960FB71FB79002B1CD0F6
:10302000FB79012B19D0FB79022B16D0FB79032BEE
:1030300013D0FB79042B10D0FB79052B0DD0FB7935
:10304000062B0AD0FB79072B07D0FB79082B04D07D
:10305000FB79092B01D0FB790A2BFA7913465B0027
:1030600013441B010C3303F1804303F5204301217A
:103070003A6801FA02F211461846FFF7B6FF00BFA0
:103080000837BD4680BD80B582B000AF03463960C9
:10309000FB71FB79002B1CD0FB79012B19D0FB793C
:1030A000022B16D0FB79032B13D0FB79042B10D005
:1030B000FB79052B0DD0FB79062B0AD0FB79072B6A
:1030C00007D0FB79082B04D0FB79092B01D0FB79C1
:1030D0000A2BFA7913465B0013441B010C3303F1EE
:1030E000804303F5204301213A6801FA02F21146B8
:1030F0001846FFF768FF00BF0837BD4680BD80B5A2
:1031000082B000AF7860786800F004F800BF08373C
:10311000BD4680BD80B582B000AF786000F016F883
:10312000786800F06DF8084B1B780133DAB2064B73
:103130001A70054B1B78042B02D9034B00221A701E
:1031400000BF0837BD4680BD2802002080B500AF13
:103150002A4B1B78042B4ED801A252F823F000BF53
:10316000DD310000C3310000A93100008F310000C3
:103170007531000005210520FFF749FF06210520D4
:10318000FFF745FF07210520FFF741FF33E0052149
:103190000520FFF778FF06210520FFF738FF0721FC
:1031A0000520FFF734FF26E005210520FFF72FFF5C
:1031B00006210520FFF767FF07210520FFF727FFFE
:1031C00019E005210520FFF75EFF06210520FFF726
:1031D0005AFF07210520FFF71AFF0CE00521052003
:1031E000FFF715FF06210520FFF711FF0721052036
:1031F000FFF749FF00BF00BF80BD00BF28020020CD
:1032000080B584B000AF7860784B1B78002B02D17A
:103210003B79FB7321E0754B1B78012B02D17B7945
:10322000FB731AE0714B1B78022B16D06F4B1B7887
:10323000032B02D1BB79FB730FE06C4B1B78042B83
:1032400002D1FB79FB7308E0694801F015F9694B7D
:10325000694A6621694800F0D9FDFB7B092B00F221
:10326000C18001A252F823F091320000B332000075
:10327000D5320000F7320000193300003B33000064
:103280005D3300007F330000A1330000C333000032
:1032900008210020FFF7BBFE09210020FFF7B7FE41
:1032A00006210020FFF7B3FE07210020FFF7AFFE45
:1032B00098E008210020FFF7E6FE09210020FFF733
:1032C000A6FE06210020FFF7A2FE07210020FFF73F
:1032D0009EFE87E008210020FFF799FE09210020CB
:1032E000FFF7D1FE06210020FFF791FE0721002005
:1032F000FFF78DFE76E008210020FFF7C4FE0921CC
:103300000020FFF7C0FE06210020FFF780FE072106
:103310000020FFF77CFE65E008210020FFF777FE24
:1033200009210020FFF773FE06210020FFF7ABFE06
:1033300007210020FFF76BFE54E008210020FFF773
:10334000A2FE09210020FFF762FE06210020FFF700
:103350009AFE07210020FFF75AFE43E008210020D3
:10336000FFF755FE09210020FFF78DFE0621002002
:10337000FFF789FE07210020FFF749FE32E0082110
:103380000020FFF780FE09210020FFF77CFE0621C8
:103390000020FFF778FE07210020FFF738FE21E02C
:1033A00008210020FFF733FE09210020FFF72FFE40
:1033B00006210020FFF72BFE07210020FFF763FE08
:1033C00010E008210020FFF75EFE09210020FFF732
:1033D0001EFE06210020FFF71AFE07210020FFF73E
:1033E00052FE00BF00BF1037BD4680BD280200203E
:1033F000505100007C5100009851000080510000A5
:1034000080B500AF01211748FDF762FB00230422BD
:1034100005210520FFF73EFA00230422062105209E
:10342000FFF738FA0023042207210520FFF732FABC
:103430000023042208210020FFF72CFA0023042295
:1034400009210020FFF726FA00230422062100208C
:10345000FFF720FA0023042207210020FFF71AFAC1
:1034600000BF80BD00350A0080B500AFFFF7C8FF80
:1034700000BF80BD80B582B000AF78607868FFF78C
:103480003EFE00BF0837BD4680BD80B483B000AFAC
:103490007860002318460C37BD465DF8047B704702
:1034A00080B483B000AF7860FEE780B483B000AF33
:1034B000786039603B684FF400525A600023184628
:1034C0000C37BD465DF8047B704780B400AF012324
:1034D0001846BD465DF8047B704780B483B000AFEA
:1034E0007860012318460C37BD465DF8047B7047B1
:1034F00080B483B000AF786039604FF0FF33184676
:103500000C37BD465DF8047B704780B485B000AFD2
:10351000F860B9607A60002318461437BD465DF83C
:10352000047B704780B586B000AFF860B9607A6000
:1035300000237B610FE000F091F938613B69B3F142
:10354000FF3F0ED0BB685A1CBA603A69D2B21A70FB
:103550007B6901337B617B685A1E7A60002BEAD15C
:1035600000E000BF7B69002B02DC4FF0FF3300E07E
:103570007B6918461837BD4680BD000080B485B011
:1035800000AF78600B4B1B68002B02D1094B0A4A35
:103590001A60084B1B68FB60064B1A687B68134473
:1035A000044A1360FB6818461437BD465DF8047B77
:1035B000704700BF2C0200205802002080B586B062
:1035C00000AFF860B9607A6000237B6109E0BB68F6
:1035D0005A1CBA601B78184600F080F97B690133E9
:1035E0007B617A697B689A42F1DB7B681846183701
:1035F000BD4680BD80B483B000AF0346FB7197F930
:103600000730002B0BDBFB7903F01F02074997F90A
:1036100007305B09012000FA02F241F8232000BFC5
:103620000C37BD465DF8047B704700BF00E100E049
:1036300080B483B000AF0346FB7197F90730002BCD
:103640000CDBFB7903F01F02074997F907305B0990
:10365000012000FA02F2603341F8232000BF0C374A
:10366000BD465DF8047B704700E100E080B483B0A4
:1036700000AF786039607B683A689A6400BF0C37A5
:10368000BD465DF8047B704780B483B000AF7860BE
:1036900039607B68DA6C3B68DB431A407B68DA642C
:1036A00000BF0C37BD465DF8047B704780B483B023
:1036B00000AF786039607B68DA6C3B681A437B68DE
:1036C000DA6400BF0C37BD465DF8047B704700002C
:1036D00080B500AF04210248FFF7D6FF00BF80BDD0
:1036E0000000014080B500AF04210248FFF7DEFF73
:1036F00000BF80BD0000014098B500AF144B1B69AE
:1037000003F08003002B20D0124B1B68072B1ADC20
:10371000114B1C680E48FFF74BFB03461A460F4B34
:103720001A550D4B1B6801330B4A1360094B1B687C
:103730000133084A1360084B1B68082B05D1064B60
:1037400000221A6001E0FFF7C3FF00BF98BD00BF71
:103750000000014038020020340200203C0200201A
:1037600080B483B000AF78607B68002B03D0064B39
:1037700001221A7002E0044B00221A7000BF0C37BD
:10378000BD465DF8047B704744020020B0B588B0A8
:1037900000AF01212A48FDF79BF901212948FDF7D7
:1037A00097F90123042200210020FFF773F8012379
:1037B000022201210020FFF76DF8234BFB61234B10
:1037C0003C461D460FCD0FC495E8070084E807006E
:1037D00001211F48FDF77CF900233B703B46194649
:1037E000F869FFF707FAFB6903225A67FB699B6FC9
:1037F00023F4F85323F01F03FA6993670421124856
:10380000FFF734FF0C20FFF713FF04210E48FFF7EA
:103810004DFF0C20FFF7EEFE0521F869FFF7B8F920
:103820000C4B1B68986800230222002100F03CFE2C
:10383000094B01221A7000BF2037BD46B0BD00BF42
:103840004041050000350A0000000140A851000079
:1038500000420400140000204502002080B582B020
:1038600000AF4FF0FF337B60184B1B7883F00103F0
:10387000DBB2002B01D0FFF789FFFEF747F8386075
:10388000134B1B68002B18DD124B1B68124AD35CCC
:10389000DBB27B600F4B1B6801330E4A13600D4B8C
:1038A0001B68082B02D10B4B00221A60084B1B68C7
:1038B000013B074A1360FFF715FF3868FEF736F83B
:1038C0007B6818460837BD4680BD00BF4502002012
:1038D00038020020300200203C02002080B582B077
:1038E00000AF0346FB710F4B1B7883F00103DBB283
:1038F000002B01D0FFF74AFF0B4B1B78002B06D0A3
:10390000FB790A2B03D10D210848FFF765FAFB79F3
:1039100019460648FFF760FAFB7918460837BD4696
:1039200080BD00BF4502002044020020000001408D
:1039300080B483B000AF0346FB7197F90730002BCA
:103940000BDBFB7903F01F02074997F907305B098E
:10395000012000FA02F241F8232000BF0C37BD46D7
:103960005DF8047B704700BF00E100E080B483B0E5
:1039700000AF0346FB7197F90730002B10DBFB7992
:1039800003F01F02094997F907305B09012000FA8B
:1039900002F2203341F82320BFF34F8FBFF36F8F24
:1039A00000BF0C37BD465DF8047B704700E100E0C6
:1039B00080B485B000AF786039607B6803F1047330
:1039C000DA003B6813449B00FB60FB681B681846E9
:1039D0001437BD465DF8047B704780B582B000AFF8
:1039E00003463960FB71FB79002B1CD0FB79012B5E
:1039F00019D0FB79022B16D0FB79032B13D0FB795E
:103A0000042B10D0FB79052B0DD0FB79062B0AD0A7
:103A1000FB79072B07D0FB79082B04D0FB79092B06
:103A200001D0FB790A2BFA7913465B0013441B0182
:103A30001C3303F1804303F5204339681846FFF730
:103A4000B7FF034618460837BD4680BD80B582B033
:103A500000AFFFF787FA03467B7100F095F8034645
:103A60003B607B79042BF4D801A252F823F000BF0D
:103A7000853A00007B3B0000533A0000533A0000B7
:103A8000533A00000A20FFF771FF1220FFF76EFF84
:103A90000023FB710023BB715CE00E210320FFF7C4
:103AA0009CFF0346002B41D1BB79002B0BD1354B3A
:103AB00000221A61334B1B69FA7912051146314A0B
:103AC0000B43136122E0BB79012B08D12D4B1B69FD
:103AD000FA79120411462B4A0B43136116E0BB79A5
:103AE000022B08D1274B1B69FA7912031146254A8C
:103AF0000B4313610AE0BB79032B07D1214B1B69F0
:103B0000FA79120211461F4A0B431361BB79013344
:103B1000BB7100BF0E210320FFF75FFF0346002BA0
:103B2000F8D00023FB71BB79042B07D00F210320B1
:103B3000FFF753FF0346002BAFD100E000BFFB7936
:103B40000133FB7100BF0F210320FFF746FF03463F
:103B5000002BF8D00E210320FFF73FFF0346002B78
:103B600002D0BB79032BE1D90023BB710A20FFF7F8
:103B7000DFFE1220FFF7DCFE03E03868FFF77AFC77
:103B800000BF66E70020044080B483B000AF1A4B4A
:103B90001B691B0ADBB203F00F03DBB2FB70164B91
:103BA0001B691B0BDBB203F00703DBB2BB70124BCC
:103BB0001B691B0CDBB203F00F03DBB27B700E4BF7
:103BC0001B691B0DDBB203F00303DBB23B703B68E8
:103BD0007B6000233A7962F307037A7962F30F235B
:103BE000BA7962F31743FA7962F31F6318460C3708
:103BF000BD465DF8047B70470020044080B400AFF0
:103C0000044BDB6C1B0EDBB21846BD465DF8047B33
:103C1000704700BFB081E00F80B582B000AF1C4B91
:103C200001225A64FFF7EAFF0346FB71FB79002B80
:103C30000CD1184B4AF6E8521A60174B1B68164A0B
:103C400043F004031360134B00221A60FB79012B2D
:103C500005D8124B1B68114A43F400531360104BF4
:103C60001B6A23F444130E4A43F488131362084B6F
:103C70001B68074A43F4807313600A4B1B68094AA8
:103C800043F4F843136000BF0837BD4680BD00BF52
:103C900000000E4090310E4098310E4064310E40CD
:103CA00000400E40A4310E4080B483B000AF786075
:103CB000044A7B68136100BF0C37BD465DF8047B86
:103CC000704700BF00200440B0B58EB000AFFFF7D2
:103CD000A3FF264B07F120040FCB84E80F0007F168
:103CE00020031846FEF7D8F9214B07F10C041D46B6
:103CF0000FCD0FC42B68238007F10C031846FDF786
:103D000093FB012201210220FDF700FC0421112078
:103D1000FDF708FAFFF73AFD0120FFF721FD01202A
:103D2000FFF714F9FFF7A0FBFCF71CFCFFF744F9C1
:103D3000104A3B1D92E803001860043319800233D7
:103D40000A0C1A703B1D7B6310220021786B00F077
:103D5000D5FC3863386B00F015F8FFF777FE064B9B
:103D6000064A3521064800F051F800BFD85100003E
:103D7000E8510000FC510000C4510000185200003E
:103D8000C851000080B588B000AF78601A4A07F1CA
:103D9000140307CA03C31A7000233B750F233B7635
:103DA0000123FB760123FB75144A07F10C0392E80B
:103DB000030018600433198002330A0C1A700121C1
:103DC0000F48FCF785FE02210E48FDF7ABF90121F3
:103DD0000D48FCF77DFE07F114031846FEF720FEA0
:103DE0007B681846FFF760FF0120FEF707FE00BF63
:103DF0002037BD4680BD00BF0452000010520000B5
:103E000030253E0005002400A00914001FB51C4603
:103E1000094B1B680546D86852B1084B0091CDE9A3
:103E2000013207492B46224600F022F800F03CFD03
:103E3000044B1A46F2E700BF140000201D52000098
:103E40002A5200005852000008B5074B044613B12F
:103E50000021AFF30080054B1868836A03B19847CF
:103E60002046FFF71DFB00BF000000005C52000071
:103E70000EB403B5014603AB054853F8042B0068A4
:103E8000019300F05DF802B05DF804EB03B07047F9
:103E90001400002070B50D4E0D4CA41BA41000257D
:103EA000A54209D10B4E0C4C01F008F9A41BA4103B
:103EB0000025A54205D170BD56F82530984701353B
:103EC000EEE756F8253098470135F2E7E401002087
:103ED000E4010020E4010020E80100200244034640
:103EE000934200D1704703F8011BF9E79368013B47
:103EF000002B10B4936008DA9469A34201DB0A290D
:103F000003D15DF8044B00F00FBC1368581C10601F
:103F1000197008465DF8044B7047F8B506460F4621
:103F20001446D518AC4201D1002007E03A4614F8F7
:103F3000011B3046FFF7DAFF431CF3D1F8BD000048
:103F40002DE9F04F9DB00C4617460393064618B175
:103F500083690BB900F0A0FD7B4B9C4257D174687C
:103F6000A38918075DD52369002B5AD00023099334
:103F700020238DF8293030238DF82A304FF0010BA3
:103F8000B846454615F8013B0BB1252B54D1B8EB8B
:103F9000070A0BD053463A4621463046FFF7BDFF8D
:103FA000013000F0C280099B5344099398F8003017
:103FB000002B00F0BA8000234FF0FF32CDE905233B
:103FC000049307938DF853301A93A846052218F8E6
:103FD000011B5E4800F06CFE049B78BBD90644BF11
:103FE00020228DF853201A0744BF2B228DF853202E
:103FF0002A782A2A2AD0079AA84600200A2541466C
:1040000011F8013B303B092B69D960B324E0504BD8
:104010009C4201D1B468A3E74E4B9C4208BFF468B0
:104020009EE72146304600F0D1FB00289ED04FF09D
:10403000FF301DB0BDE8F08FA846A2E7434A801AC2
:104040000BFA00F0184304904546BEE7039A111D91
:1040500012680391002A01DB079204E0524243F008
:1040600002030792049398F800302E2B0ED198F893
:1040700001302A2B38D1039B1A1D1B680392002B99
:10408000B8BF4FF0FF3308F102080593324D98F89E
:1040900000100322284600F00BFE40B14023401BD5
:1040A00003FA00F0049B034308F10108049398F815
:1040B00000102A488DF82810062208F1010700F0A8
:1040C000F7FD002837D0264B1BBB039B073323F09B
:1040D000070308330393099B4B44099350E705FBFF
:1040E0000232012088468AE7002308F1010805937F
:1040F00019460A25404610F8012B303A092A03D9FF
:10410000002BC3D00591C1E705FB012101238046A7
:10411000F0E703AB00932246124B04A93046AFF3FD
:104120000080B0F1FF3F8146D5D1A3895B063FF502
:104130007EAF09987DE703AB00932246094B04A9A3
:10414000304600F087F8ECE7B452000060520000FF
:10415000D452000094520000665200006A520000DF
:10416000000000001B3F00002DE9F04791461F466C
:104170008A680B69DDF820809342B8BF1346C9F8FE
:10418000003091F8432006460C4612B10133C9F8BD
:1041900000302368990642BFD9F800300233C9F8CD
:1041A0000030256815F0060507D104F1190AE36807
:1041B000D9F800209B1AAB4228DC94F843302268DF
:1041C000003318BF012392062DD404F1430239466F
:1041D0003046C047013020D02368E568D9F8002078
:1041E00003F00603042B08BFAD1AA36822690CBFB5
:1041F00025EAE57500259342C4BF9B1AED184FF0E0
:1042000000091A344D451AD1002008E00123524616
:1042100039463046C047013003D14FF0FF30BDE88A
:10422000F0870135C3E7E1185A1C302081F84300BC
:10423000224494F8451082F843100233C5E7012365
:10424000224639463046C0470130E6D009F101091F
:10425000D8E700002DE9F04301F1430C0C46097E3C
:1042600085B06E291746064698460C9A00F0B38032
:1042700022D8632936D00AD8002900F0B9805829FD
:1042800000F0838004F1420584F8421032E0642992
:1042900001D06929F6D120681368050603F10401ED
:1042A0002AD51B681160002B03DA2D225B4284F8AB
:1042B00043206F480A2239E0732900F09D8008D816
:1042C0006F2920D07029DDD1236843F020032360BB
:1042D00003E0752917D07829D4D1782384F84530A4
:1042E000644855E01368191D1B68116004F142050C
:1042F00084F8423001238CE01B68116010F0400FFD
:1043000018BF1BB2CFE713682568181D1060280678
:1043100001D51B6802E06806FBD51B8854486F294D
:1043200014BF0A220822002184F843106568A560A2
:10433000002DC0F29580216821F004012160002B3E
:104340003DD1002D40F08E806546082A0BD12368B0
:10435000DB0708D5236962689A42DEBF302305F87F
:10436000013C05F1FF35ACEB05032361CDF800807E
:104370003B4603AA21463046FFF7F6FE01304DD1F9
:104380004FF0FF3005B0BDE8F083394884F84510A0
:10439000136821681D1D1B6815600A060BD5CA0726
:1043A00044BF41F0200121601BB9226822F02002A5
:1043B00022601022B7E74D0648BF9BB2EFE7654683
:1043C000B3FBF2F102FB1133C35C05F8013D0B4670
:1043D0000029F5D1B9E7136825686169181D1060D7
:1043E00028061B6801D5196002E06A06FBD5198012
:1043F000002323616546B9E71368191D11601D6824
:1044000062680021284600F053FC08B1401B606040
:1044100063682361002384F84330A7E723692A46B1
:1044200039463046C0470130AAD023689B0713D4D1
:10443000E068039B9842B8BF1846A3E701234A46A9
:1044400039463046C04701309AD00135E368039AB7
:104450009B1AAB42F2DCEBE7002504F11909F5E702
:10446000002BACD1037884F8423004F142056CE7AC
:1044700071520000825200000FB40A4B13B51C6841
:1044800024B1A36913B9204600F006FB05AB049ADA
:10449000A16801932046FFF753FD02B0BDE810402C
:1044A00004B07047140000202DE9F7431D46514B1E
:1044B0001E6804460F46904626B1B36913B93046CC
:1044C00000F0EAFA4C4B9C4252D17468B8F1020FEA
:1044D00006D0B8F1010F00F28980002DC0F286806D
:1044E0002146304600F06EFA616B41B104F144039D
:1044F000994202D0304600F02BFC00236363002376
:10450000A3616360A3891B0603D52169304600F0CF
:104510001FFCA38923F44A6323F00303B8F1020FBD
:10452000A3815DD001AB6A462146304600F041FBD5
:10453000A3891843A0812DBB009D284600F09EFB57
:10454000074600284ED1DDF80090A9453CD14FF038
:10455000FF30A38943F00203A3810023A36004F189
:104560004703236023610123636103B0BDE8F08347
:10457000224B9C4201D1B468A8E7214B9C4208BF62
:10458000F468A3E7002FD8D0B36913B9304600F020
:1045900083FAB8F1010F08BFA389276004BF43F075
:1045A0000103A381A38913F00800C4E904751BD09B
:1045B00013F0010018BF6D424FF000031DBFA36050
:1045C000A5611846A560D0E7484600F057FB0746AE
:1045D0000028BCD0A38943F08003A3814D46D3E7D4
:1045E0000020B6E7A946F5E7A060BEE74FF0FF3030
:1045F000BBE700BF14000020B4520000D4520000FA
:10460000945200002DE9F0478046894692461E46A6
:104610000F463D46089815F8014B00F0C7FA2044B4
:10462000437813F0080332D12D2C32D17C78BD1C95
:104630000122002E5DD0102E09D1302C07D12B780D
:1046400003F0DF03582B4FD16C7810260235002A77
:1046500014BF4FF000416FF000410027B1FBF6FCA2
:10466000384606FB1C1EA4F13003092B17D81C4644
:10467000A64223DD7B1C07D084451CD301D1A6456F
:1046800019DB00FB0640012715F8014BEBE72F462D
:10469000BFE72B2C04BFBD1C7C781A46C9E7A4F1E8
:1046A0004103192B01D8373CE2E7A4F16103192B30
:1046B00004D8573CDCE74FF0FF37E5E77B1C08D117
:1046C0002223C8F800300846BAF1000F07D1BDE830
:1046D000F08702B14042BAF1000FF8D00FB105F1F6
:1046E000FF39CAF80090F2E73024002EAFD1082637
:1046F000ADE7302CA3D00A26A9E70000084B37B558
:104700001C68084D236A002B08BF2B4600931346F4
:104710000A4601462046FFF775FF03B030BD00BFD3
:104720001400002078000020F8B50E461446054617
:1047300018B183690BB900F0AFF9214B9C422AD123
:104740006C68A369A360A3891A072ED5236963B394
:1047500023692068C01A6369F6B28342374604DCD5
:104760002146284600F02EF928BBA368013BA36030
:1047700023685A1C22601E7063690130834204D092
:10478000A389DB0719D50A2E17D12146284600F048
:1047900019F990B10FE00B4B9C4201D1AC68D0E706
:1047A000094B9C4208BFEC68CBE72146284600F045
:1047B0000DF80028CCD04FF0FF373846F8BD00BFC9
:1047C000B4520000D452000094520000324B70B535
:1047D0001D6806460C4625B1AB6913B9284600F0A2
:1047E0005BF92E4B9C420FD16C68B4F90C309AB235
:1047F00015072CD4D00611D40922326043F04003AF
:10480000A3814FF0FF303EE0254B9C4201D1AC68C4
:10481000EBE7244B9C4208BFEC68E6E7510712D552
:10482000616B41B104F14403994202D0304600F07B
:104830008FFA00236363A38923F02403A381002359
:10484000636023692360A38943F00803A38123697C
:104850004BB9A38903F42073B3F5007F03D021463D
:10486000304600F0CBF9A28912F001030CD00023EE
:10487000A36063695B42A361236953B9B4F90C3047
:1048800013F08000BAD170BD920758BF6369A3606E
:10489000F2E70020F7E700BF14000020B452000048
:1048A000D45200009452000008B5062000F030FBFE
:1048B0000120FEF7F5FD00008A892DE9F04105464B
:1048C00010070C4658D44B68002B05DC0B6C002BF2
:1048D00002DC0020BDE8F081E66A002EF9D000235A
:1048E00012F480522F68216A2B6032D0606DA38948
:1048F0005A0705D56368C01A636B0BB1236CC01AE5
:1049000000230246E66A216A2846B047431CA38971
:1049100006D129681D2948D8294ACA40D60744D556
:1049200000226260D9042269226004D5421C01D1B0
:104930002B6803B96065616B2F600029C9D004F151
:104940004403994202D0284600F002FA0020606336
:10495000C0E701232846B047411CC8D12B68002B73
:10496000C5D01D2B01D0162B01D12F60B1E7A38933
:1049700043F04003A381ADE70F69002FA9D093074F
:104980000E6808BF4B690F6018BF0023A6EB07082D
:104990008B60B8F1000F9CDD43463A46216AA66A57
:1049A0002846B047002806DCA38943F04003A381D2
:1049B0004FF0FF308EE70744A8EB0008E9E700BF9F
:1049C0000100402038B50B6905460C46DBB118B133
:1049D00083690BB900F060F80C4B9C4209D16C68FC
:1049E000B4F90C307BB121462846BDE83840FFF7CA
:1049F00063BF074B9C4201D1AC68F1E7054B9C4279
:104A000008BFEC68ECE7002038BD00BFB4520000DE
:104A1000D452000094520000002310B50446C0E9AF
:104A20000033836081814366C281C0E904338361BE
:104A3000194608225C30FFF751FA054B6362054BBB
:104A4000A362054BE362054B2462236310BD00BFE4
:104A5000494F00006B4F0000A34F0000C74F0000FC
:104A6000014900F085B800BFC549000070B54A1E75
:104A7000682555430E4605F1740100F0B7F9044668
:104A800040B10021C0E900160C30A06005F16802B9
:104A9000FFF724FA204670BD836910B5044633BB86
:104AA000C0E912330365124B124A1B6882629842B6
:104AB00004BF0123836100F01FF86060204600F00E
:104AC0001BF8A060204600F017F80022E0600421E7
:104AD0006068FFF7A1FF01220921A068FFF79CFF92
:104AE00002221221E068FFF797FF0123A36110BDA6
:104AF0005C520000614A0000F8B51B4B1E68B369A8
:104B0000074613B93046FFF7C7FF4836D6E90134E8
:104B1000013B03D5336833B13668F7E7B4F90C507D
:104B20006DB16834F4E704213846FFF79FFF306029
:104B30000028F1D10C233B6004462046F8BD0B4B06
:104B40006566C4E90055A560C4E90335C4E90555A7
:104B50000822294604F15C00FFF7C0F9C4E90D55AD
:104B6000C4E91255E9E700BF5C5200000100FFFFF5
:104B70002DE9F8438046894600F14804002614B91F
:104B80003046BDE8F883D4E90175013F01D52468BA
:104B9000F5E7AB89012B07D9B5F90E30013303D006
:104BA00029464046C84706436835EEE7D0F8EC0092
:104BB000704770B50E46B1F90E10002996B0144634
:104BC0001D4607DA00232B60B3891A0610D44FF470
:104BD00080630EE06A4600F029FA0028F2DB019AB1
:104BE00002F47042A2F500535A425A412A60EEE79D
:104BF00040230020236016B070BD00008B8973B580
:104C00009D0706460C4607D504F147032360236140
:104C10000123636102B070BD01AB6A46FFF7C9FFB3
:104C200000990546304600F0E1F848B9B4F90C3077
:104C30009A05EFD423F0030343F00203A381E3E7D3
:104C40000D4BB362A389206043F08003A381009BD6
:104C50006361019B20615BB1B4F90E10304600F036
:104C6000F7F928B1A38923F0030343F00103A381DB
:104C7000A3891D43A581CDE7614A0000024B01468F
:104C8000186800F0B3B800BF1400002082B001B96A
:104C900001A942B14BB113780B601278101C18BFF8
:104CA000012002B070471046FBE76FF00100F8E703
:104CB00001F0FF01102A2BDB10F0070F08D010F8CD
:104CC000013B013A8B422DD010F0070F42B3F6D1D1
:104CD000F0B441EA012141EA014122F007047FF0EA
:104CE00000070023F0E80256083C85EA010586EA41
:104CF000010685FA47F5A3FA87F586FA47F6A5FA7D
:104D000087F68EB9EED1F0BC01F0FF0102F0070288
:104D100032B110F8013B013A83EA010313B1F8D133
:104D20000020704701387047002D06BF3546033814
:104D3000073815F0010F07D1013015F4807F02BF4D
:104D4000013015F4C03F0130F0BC0138704700BF9E
:104D500038B50546002945D051F8043C0C1F002BFE
:104D6000B8BFE41800F096F91F4A1368104633B92B
:104D7000636014602846BDE8384000F08CB9A34257
:104D80000CD921686218934204BF1A685B6863609B
:104D900004BF521822600460ECE713465A680AB157
:104DA000A242FAD919685818A0420BD120680144D0
:104DB000581882421960DDD1106852685A60014467
:104DC0001960D7E702D90C232B60D3E7206821189C
:104DD0008A4204BF11685268626004BF09182160EA
:104DE0005C60C7E738BD00BF4802002070B5CD1C2D
:104DF00025F0030508350C2D38BF0C25002D06467F
:104E000001DBA94203D90C233360002070BD00F000
:104E100041F9214A1468214691B9204C23681BB9F5
:104E2000304600F03DF820602946304600F038F862
:104E3000431C24D10C233360304600F02CF9E4E706
:104E40000B685B1B18D40B2B0FD90B60CD50CC1803
:104E5000304600F020F904F10B00231D20F007007C
:104E6000C31AD3D05A42E250D0E78C424B6816BFE7
:104E7000636013600C46EBE70C464968CCE7C41C42
:104E800024F00304A04205D0211A304600F008F8AF
:104E90000130CFD02560DBE7480200204C02002023
:104EA00038B5064C0023054608462360FEF766FB2E
:104EB000431C02D1236803B12B6038BD500200208F
:104EC0001F2938B504460D4604D9162303604FF058
:104ED000FF3038BD426C12B152F821304BB9204638
:104EE00000F030F82A4601462046BDE8384000F080
:104EF00017B8012B0AD0591C03D1162303600120D7
:104F0000E7E7002442F82540284698470020E0E7DC
:104F1000024B01461868FFF7D3BF00BF1400002002
:104F200038B5074C00230546084611462360FEF7B6
:104F3000DFFA431C02D1236803B12B6038BD00BFE8
:104F400050020020FEF7C1BA10B50C46B1F90E10A0
:104F500000F0A2F80028ABBF636DA3891B1823F4EF
:104F60008053ACBF6365A38110BD2DE9F0411F469E
:104F70008B89DB0505460C46164605D50223002223
:104F8000B1F90E1000F074F8A389B4F90E1023F4EF
:104F90008053A38132463B462846BDE8F04100F0ED
:104FA00023B810B50C46B1F90E1000F061F8431C9F
:104FB000A38915BF606523F4805343F48053A38114
:104FC00018BFA38110BDB1F90E1000F01FB849B190
:104FD000FF2A85BF8A2303600A704FF0FF3098BF15
:104FE000012070470846704738B5074C054608460B
:104FF0001146002222601A46FEF7E0FA431C02D155
:10500000236803B12B6038BD5002002038B5064C30
:105010000023054608462360FEF737FA431C02D1F9
:10502000236803B12B6038BD5002002038B5074C0F
:1050300000230546084611462360FEF736FA431C56
:1050400002D1236803B12B6038BD00BF500200209D
:1050500038B5064C0023054608462360FEF73DFAA6
:10506000431C02D1236803B12B6038BD50020020DD
:1050700038B5074C054608461146002222601A46FC
:10508000FEF743FA431C02D1236803B12B6038BDFD
:10509000500200207047704738B5074C0546084657
:1050A0001146002222601A46FEF73CFA431C02D148
:1050B000236803B12B6038BD50020020F8B500BF53
:1050C000F8BC08BC9E467047F8B500BFF8BC08BCE9
:1050D0009E46704740787D0100000000005A620241
:1050E00000010000C0CF6A0002000000809FD500D0
:1050F00002010000002D31010202000044657369C5
:1051000072656420706572696F643A202564206D51
:10511000730A00005379737469636B207065726958
:105120006F6420697320746F6F206C6F6E672E2020
:105130004D61782076616C756520697320307866E2
:1051400066666666662C207E322E32487A00000043
:10515000496E7661696C64206E756D626572206F50
:1051600066207365676D656E742E204D75737420AF
:105170006265203020746F20340000003000000091
:105180002E2E2F6C65642F6C65645F636F6E747276
:105190006F6C2E63000000004C65447269766553A5
:1051A0006576656E5365670005000000000000002D
:1051B00000C2010000050000001000000000000017
:1051C00000000000300000002E2E2F7372632F6D40
:1051D00061696E2E63000000000108070F000A00DD
:1051E000C8002000A000010000000000A00068012D
:1051F0000A200706020A0407000000003133323695
:10520000353400000100000005000000000000002F
:1052100002000003000000006D61696E002C206632
:10522000756E6374696F6E3A200061737365727492
:10523000696F6E2022257322206661696C65643A6D
:105240002066696C6520222573222C206C696E65AE
:10525000202564257325730A000000001800002033
:10526000232D302B2000686C4C006566674546474F
:1052700000303132333435363738394142434445D2
:105280004600303132333435363738396162636441
:105290006566000000000000000000000000000043
:1052A00000000000000000000000000000000000FE
:1052B00000000000000000000000000000000000EE
:1052C00000000000000000000000000000000000DE
:1052D00000000000000000000000000000000000CE
:1052E00000000000000000000000000000000000BE
:1052F000000000004300504F534958002E0000208A
:105300002020202020202020282828282820202075
:105310002020202020202020202020202020208825
:105320001010101010101010101010101010100489
:1053300004040404040404040410101010101010D9
:1053400041414141414101010101010101010101CD
:1053500001010101010101010101101010101010E3
:10536000424242424242020202020202020202029D
:1053700002020202020202020202101010102000B9
:10538000000000000000000000000000000000001D
:10539000000000000000000000000000000000000D
:1053A00000000000000000000000000000000000FD
:1053B00000000000000000000000000000000000ED
:1053C00000000000000000000000000000000000DD
:1053D00000000000000000000000000000000000CD
:1053E00000000000000000000000000000000000BD
:1053F00000000000000000000000000000000000AD
:0454000000000000A8
:0854040048ADFF7F010000002C
:10540C0000F0490200800000C0EA2101C0EA21013D
:10541C00C0EA21011800002000000000B452000076
:10542C00D452000094520000000000000000000064
:10543C000000000000000000000000000000000060
:10544C000000000000000000000000000000000050
:10545C000000000000000000000000000000000040
:10546C000000000000000000000000000000000030
:10547C0000000000000000004300000000000000DD
:10548C000000000000000000000000000000000010
:10549C0000000000000000004300000000000000BD
:1054AC0000000000000000000000000000000000F0
:1054BC00000000000000000043000000000000009D
:1054CC0000000000000000000000000000000000D0
:1054DC00000000000000000043000000000000007D
:1054EC0000000000000000000000000000000000B0
:1054FC00000000000000000043000000000000005D
:10550C00000000000000000000000000000000008F
:10551C00000000000000000043000000000000003C
:10552C00000000000000000000000000000000006F
:10553C00000000000000000043000000000000001C
:10554C00000000000000000000000000000000004F
:10555C000000000000000000CF4F00008D4C000048
:10556C0000000000FE520000FC52000058520000E7
:10557C005852000058520000585200005852000077
:10558C005852000058520000585200005852000067
:10559C00FFFFFFFFFFFFFFFFFFFFFFFFFFFF00000D
:1055AC000100415343494900000000000000000085
:1055BC0000000000000000000000000000000000DF
:1055CC000000415343494900000000000000000066
:1055DC0000000000000000000000000000000000BF
:0C55EC0000000000310100000D01000073
:04000003000001C137
:00000001FF
