S01A00004C6564436C6F636B4170706C69636174696F6E2E73333765
S113000000000420C1010000ED010000ED0100002A
S1130010ED010000ED010000ED010000ED01000024
S1130020ED010000ED010000ED010000ED01000014
S1130030ED010000EC010000ED01000029200000AA
S1130040ED010000ED010000ED010000ED010000F4
S1130050ED010000ED010000ED010000ED010000E4
S1130060ED010000ED010000ED010000ED010000D4
S1130070DD280000ED010000ED010000ED010000AD
S1130080ED010000ED010000ED010000ED010000B4
S1130090ED010000ED010000ED010000ED010000A4
S11300A0ED010000ED010000ED010000ED01000094
S11300B0ED010000ED010000ED010000ED01000084
S11300C0ED010000ED010000ED010000ED01000074
S11300D0ED010000ED010000ED010000ED01000064
S11300E0ED010000ED010000ED010000ED01000054
S11300F0ED010000ED010000ED010000ED01000044
S1130100ED010000ED010000ED01000010B5054C0B
S1130110237833B9044B13B10448AFF300800123AF
S1130120237010BD8000002000000000A03E0000ED
S113013008B5034B1BB103490348AFF3008008BD66
S11301400000000084000020A03E0000154B002B9E
S113015008BF134B9D46A3F5803A00218B460F46FA
S11301601348144A121A02F03DFD0F4B002B00D025
S113017098470E4B002B00D0984700200021040024
S11301800D000D48002802D00C48AFF3008002F0A7
S113019005FD2000290002F033FA02F0D9FC00BF6B
S11301A0000008000000042000000000000000001F
S11301B080000020D80000200000000000000000A3
S11301C0064880470649074A074B9A42BEBF51F882
S11301D0040B42F8040BF8E7FFF7B8FFE502000050
S11301E0AC3E00000000002080000020FEE700BFBD
S11301F080B582B000AF00F025F878600A4BD3F8E0
S113020008311B0AC3F308033B603B6801337A6877
S1130210B2FBF3F37B60054A7B6813607B68184686
S11302200837BD4680BD00BF00400E4008000020D6
S113023080B400AF024B1846BD465DF8047B70479E
S113024000F0490280B483B000AF1C4BD3F8943063
S113025003F00703023B032B1BD801A252F823F03F
S1130260810200007902000071020000890200008E
S1130270134B1B687B6010E04FF400437B600CE081
S1130280104B1B687B6008E00F4B1B685B087B60AE
S113029003E00D4B1B687B6000BF084BD3F80031B3
S11302A01B0A03F01F0301337A68B2FBF3F3184609
S11302B00C37BD465DF8047B704700BF00400E401C
S11302C004000020000000200C00002080B400AFD7
S11302D0034B1B681846BD465DF8047B704700BF9E
S11302E00000002080B400AF074B084A9A60064B18
S11302F0D3F88830044A43F47003C2F8883000BF4E
S1130300BD465DF8047B704700ED00E0000000008E
S113031080B400AF4FF400431846BD465DF8047B3B
S1130320704780B400AF4FF47A731846BD465DF849
S1130330047B704780B400AF034B1B681846BD466E
S11303405DF8047B704700BF0400002080B487B0D0
S113035000AFF860B9607A60FB6803F10473DA00F7
S1130360BB6813449B007B617B697A681A6000BF99
S11303701C37BD465DF8047B704780B485B000AF80
S1130380786039607B6803F10473DA003B681344D6
S11303909B00FB60FB681B6818461437BD465DF87C
S11303A0047B704780B483B000AF786001227B681F
S11303B002FA03F318460C37BD465DF8047B704718
S11303C080B400AF064B1B6803F04003002B01D13F
S11303D0012300E000231846BD465DF8047B704706
S11303E03C300E4080B500AFFFF7EAFF034683F0D0
S11303F00103DBB2002B08D100BF12210448FFF730
S1130400BCFF0346002BF8D100E000BF80BD00BF55
S113041004300E4080B500AFFFF7E4FF034B5B6888
S11304201B0C03F00303DBB2184680BD00300E4002
S113043080B584B000AF78600123FB607B68124A0A
S1130440934204D80023FB600023BB6008E07B6870
S11304500E4A934202D80123BB6001E00223BB6031
S1130460FA6810210A48FFF771FF094BD3F80031ED
S113047023F08072BB681B0605491343C1F80031A1
S113048000BF1037BD4680BD0048E8010090D0038E
S113049000400E4080B483B000AF054B1B687B6006
S11304A07B6818460C37BD465DF8047B704700BF77
S11304B01000002080B582B000AFFFF7C3FE786063
S11304C0064BD3F800311B0A03F01F0301337A688B
S11304D002FB03F318460837BD4680BD00400E40BA
S11304E080B582B000AF0D4800F01EFC0346FB70DF
S11304F0FB78072B05D0092B07D1FFF7A3FE786003
S113050006E0FFF7C7FF786002E000237B6000BFCE
S11305107B6818460837BD4680BD00BF06000E0044
S113052080B584B000AF78607B68002B1CD11B4879
S113053000F0FAFB0346FB7200BFFB7A013B072B7A
S113054023D801A252F823F06D0500008B050000AA
S11305508B0500007B0500008B0500008B05000067
S11305607305000083050000002312E00023FB60F4
S11305700EE0FFF78FFFF8600AE0FFF7A7FEF860D0
S113058006E0FFF797FFF86002E00023FB6000BF7E
S1130590FB6818461037BD4680BD00BFB800320066
S11305A080B485B000AF786039601E4B5B6803F09F
S11305B04073FB600023BB6012E01B4ABB68DB0096
S11305C013441A793B68DBB29A4206D1164ABB68D7
S11305D052F833307A689A4206D9BB680133BB605B
S11305E0BB68042BE9D900E000BFBB68052B02D12E
S11305F00323FB6005E00C4ABB68DB0013445B7912
S1130600FB60FB681B06FB60064B5B6823F04072D3
S11306100449FB6813434B6000BF1437BD465DF8C3
S1130620047B704700000E407C3C000080B582B023
S113063000AF0E4B1B6C002B14BF01230023FB7176
S11306400A4B41F671321A64FFF7F2FD03460021AA
S11306501846FFF7A5FFFB79002B02D0034B0022BD
S11306601A6400BF0837BD4680BD00BF00000E40BD
S113067080B584B000AF786039600C4B1B6C002BE4
S113068014BF01230023FB73084B41F671321A6433
S113069039687868FFF784FFFB7B002B02D0034B9B
S11306A000221A6400BF1037BD4680BD00000E4012
S11306B080B487B000AF78600F237B617B6803331D
S11306C03B617B69FB60FA683B69934228BF134630
S11306D0BB60BB681B07BB60BB6818461C37BD46C4
S11306E05DF8047B7047000080B400AF044B5B6A84
S11306F01B0903F003031846BD465DF8047B7047ED
S113070000400E4080B483B000AF7860074B5B6A52
S113071023F030027B681B01044913434B6200BF82
S11307200C37BD465DF8047B704700BF00400E40A7
S113073090B585B000AF78600023BB607B68354A14
S1130740934206D0344A934203D0344A934200D0B1
S113075000E000BF786800F0E7FA0346FB607B68BE
S11307602C4A93420DD02C4A934211D02B4A9342E7
S113077000D014E02A4BD3F8803003F00703FB6069
S11307800DE0274BD3F8843003F00703FB6006E049
S1130790234BD3F8883003F00703FB6000BFFB68EA
S11307A0042B2ED801A252F823F000BFFD0700004D
S11307B0C1070000C9070000D9070000D1070000E5
S11307C0FFF7A6FDB8601FE0FFF7B4FDB8601BE0BB
S11307D0FFF7A7FDB86017E0FFF734FD0446104BA0
S11307E0D3F800311B0E03F0010301331846FFF761
S11307F0D9FD0346B4FBF3F3BB6005E00023BB6003
S113080002E00023BB6000BFBB6818461437BD4636
S113081090BD00BF030020000500240002001E005C
S113082000400E4080B483B000AF78600A4BD3F828
S1130830443103F00103002B08D100BF064BD3F869
S113084040217B681340002BF8D100E000BF0C3737
S1130850BD465DF8047B704700400E4080B400AF95
S113086000BFBD465DF8047B704780B400AF00BF95
S1130870BD465DF8047B704780B582B000AF7860F8
S1130880786800F087F90346013318460837BD46F7
S113089080BD000080B586B000AF78600B46FB7069
S11308A000233B617B681B0A03F00F03013B092B08
S11308B044D801A252F823F0E1080000ED0800003A
S11308C03D0900003D090000E7080000F3080000AE
S11308D0FD0800003D09000007090000130900009D
S11308E0184B7B6118E0184B7B6115E0174B7B615B
S11308F012E0174B7B6101233B610DE0154B7B61DB
S113090010233B6108E0144B7B614FF480333B615F
S113091002E0124B7B6100BF7B681B0B03F01F03DB
S1130920FB603B69002B02D03869FFF77BFFFB7843
S11309301A46F9687869FFF709FD00E000BF183727
S1130940BD4680BD00400E40B0400E40C0400E4049
S1130950E0400E40E8400E40F0400E4050410E4052
S113096090B585B000AF78607B6803F47813B3F575
S1130970B01F00F09480B3F5B01F21D8B3F5202F39
S113098058D0B3F5202F08D8B3F5003F56D0B3F5AF
S1130990802F40D0002B3AD0EBE0B3F5602F00F06D
S11309A0D080B3F5602F03D8B3F5402F55D0E0E0E5
S11309B0B3F5801F00F0C980B3F5A01F61D0D8E063
S11309C0B3F5101F00F0B880B3F5101F0BD8B3F5C2
S11309D0F01F51D0B3F5001F00F08280B3F5D01F93
S11309E000F08380C5E0B3F5401F00F09180B3F5BB
S11309F0401F03D8B3F5381F63D0BAE0B3F5481FDE
S1130A0000F0A780B3F5781F00F0A880B1E0FFF7ED
S1130A1019FCF860B0E0FFF715FCF860594BD3F807
S1130A200C311B0AC3F308030133FA68B2FBF3F376
S1130A30FB60A1E0FFF706FCF8609DE0FFF702FC15
S1130A40F860504BD3F808311B0AC3F30803013391
S1130A50FA68B2FBF3F3FB608EE0FFF7F3FBF86098
S1130A60484BD3F814311B0A03F01F030133FA680F
S1130A70B2FBF3F3FB607FE04348FFF759FEF860F5
S1130A807AE04248FFF754FEF8603E4BD3F8303129
S1130A9003F00303FA6822FA03F3FB606CE03A48BC
S1130AA0FFF746FEF860374BD3F8203103F00F030D
S1130AB01846FFF777FC0246FB68B3FBF2F3FB60D2
S1130AC05AE03148FFF734FEF8602E4BD3F820315A
S1130AD01B0903F00303FA6822FA03F3FB604BE0FB
S1130AE02B48FFF725FEF86046E02948FFF720FE73
S1130AF0F860244BD3F828311B0903F0030318468C
S1130B00FFF750FC0246FB68B3FBF2F3FB6033E0F3
S1130B101F48FFF70DFEF8601A4BD3F828311B0A63
S1130B2003F0030304331846FFF73CFC0246FB685A
S1130B30B3FBF2F3FB601FE01448FFF7F9FDF86024
S1130B401AE0FFF7CDFCF86016E0FFF7A3FCF860AD
S1130B5012E00020FFF7E4FCF8600DE0FFF772FB01
S1130B6004467868FFF788FE0346B4FBF3F3FB60A2
S1130B7002E00023FB6000BFFB6818461437BD4643
S1130B8090BD00BF00400E4002001E00050024007E
S1130B900300200080B584B000AF78607B681B0937
S1130BA003F00F03BB60BB68013B092B00F2A88074
S1130BB001A252F823F000BFE10B0000F10B00008A
S1130BC0010C0000210C0000010D0000010D0000CB
S1130BD0310C0000410C00008F0C0000E30C0000FD
S1130BE04B4BD3F800311B0A03F01F03FB608AE070
S1130BF0474BD3F814311B0A03F01F03FB6082E058
S1130C00434BD3F800311B0E03F00103FB60FB6878
S1130C1001331846FFF7C6FB0346013BFB6072E055
S1130C203B4BD3F80C311B0AC3F30803FB606AE0A7
S1130C30374BD3F808311B0AC3F30803FB6062E0A7
S1130C407B68344A934203D0334A93420DD01AE06E
S1130C502F4BD3F8203103F00F03FB60F868FFF744
S1130C60A1FB0346013BFB6010E0294BD3F8203184
S1130C701B0903F00303FB60F868FFF793FB0346CB
S1130C80013BFB6002E00023FB6000BF3BE07B68AC
S1130C90224A934203D0224A93420ED01DE01C4BB9
S1130CA0D3F828311B0903F00303FB60F868FFF74E
S1130CB079FB0346013BFB6012E0154BD3F8283166
S1130CC01B0A03F00303FB60FB6804331846FFF7B9
S1130CD069FB0346013BFB6002E00023FB6000BFAD
S1130CE011E07B680F4A934206D1094BD3F83031A7
S1130CF003F00303FB6002E00023FB6000BF02E09B
S1130D000023FB6000BFFB6818461037BD4680BD5A
S1130D1000400E408006160080162E0090171A0020
S1130D2090273000A009140080B485B000AF78602B
S1130D300123FB737B6803F00F03BB60BB68013BBB
S1130D40072B00F2C48001A252F823F06D0D0000BD
S1130D50C30D0000F30D0000CF0E0000390E00009B
S1130D60690E0000CF0E00008D0E00005D4BD3F81D
S1130D70943003F00703023B052B1ED801A252F85E
S1130D8023F000BFA90D0000A30D00009D0D00007D
S1130D90AF0D0000BB0D0000B50D00000223FB7376
S1130DA00EE00323FB730BE00423FB7308E00B2327
S1130DB0FB7305E00C23FB7302E00523FB7300BF08
S1130DC088E0484BD3F8803003F00703022B06D0A9
S1130DD0042B07D0012B08D10323FB7308E0022363
S1130DE0FB7305E00A23FB7302E00123FB7300BFDE
S1130DF070E03C4BD3F8843003F00703013B032B32
S1130E0016D801A252F823F0190E00001F0E00009C
S1130E102B0E0000250E00000323FB730BE00223BE
S1130E20FB7308E00A23FB7305E00623FB7302E06F
S1130E300123FB7300BF4DE02A4BD3F8883003F045
S1130E400703022B06D0042B07D0012B08D1032360
S1130E50FB7308E00223FB7305E00A23FB7302E043
S1130E600123FB7300BF35E01E4B1B6F03F001032E
S1130E70002B04D0012B05D10923FB7305E00723C4
S1130E80FB7302E00123FB7300BF23E0154BD3F88F
S1130E905C3103F03003102B0CD0102B02D8002B44
S1130EA005D010E0202B08D0302B09D00BE0012313
S1130EB0FB730BE00723FB7308E00423FB7305E0DB
S1130EC00823FB7302E00123FB7300BF02E000234D
S1130ED0FB7300BFFB7B18461437BD465DF8047BEB
S1130EE0704700BF00400E4080B58AB000AF786004
S1130EF00B46FB7003237B62032387F82330002314
S1130F00BB6100237B617B68112B19D1FB78042B17
S1130F1003D1FFF7DBF978610BE0FB78052B08D1EF
S1130F2000F058F90246A44B9A4202D900F052F953
S1130F3078617B69002B03D00021786900F046FCBE
S1130F407B6803F00F033B613B69013B072B00F215
S1130F50298101A252F823F0790F00006B100000E0
S1130F607D100000A51100006F1000001511000095
S1130F70A511000033110000FB78023B0A2B00F29C
S1130F80138101A252F823F0B50F0000C10F000035
S1130F90CD0F0000DF0F0000A9110000A91100000F
S1130FA0A9110000A9110000A9110000F10F00000F
S1130FB0FD0F000004237B62002387F8233023E025
S1130FC003237B62012387F823301DE002237B6225
S1130FD0022387F823307948FFF72AFA14E0012323
S1130FE07B62032387F823307448FFF721FA0BE070
S1130FF005237B62032387F8233005E007237B6204
S1131000062387F8233000BF97F82330062B06D039
S113101097F8233001220121184600F059F9FFF70F
S113102005FBFFF71BFC7B69002B01D0FFF7DAF906
S1131030634A7B6A5367FFF7DBF8F860FFF702F94E
S113104003461846FFF7F4F9FFF7E4F90346194697
S1131050F868FFF70DFB7B69002B03D10121002009
S113106000F0B4FBFFF701FCA3E0564BBB61BB6986
S1131070002B01D0BB6900E0534BBB61BB69002B63
S113108001D0BB6900E0514BBB61FB78013B092BEC
S113109000F28C8001A252F823F000BFC5100000BA
S11310A0CB100000DB100000AD110000AD110000FA
S11310B0EB100000AD110000AD110000AD110000F7
S11310C0071100000023FB6120E001220121002020
S11310D000F0FEF80223FB6118E001220121012047
S11310E000F0F6F80123FB6110E0FFF7ABF80346CC
S11310F01846FFF79DF9012202213548FFF726F92A
S11311000323FB6102E00423FB6100BFBB69FA69AE
S11311101A604EE0FB78072B02D0092B04D048E07C
S1131120274B00221A6703E0254B01221A6700BFF0
S11311303FE0FB78013B072B3AD801A252F823F099
S113114061110000B1110000B1110000771100001D
S1131150B1110000B11100006711000087110000F7
S11311600023FB6112E001220121042000F0B0F809
S11311700123FB610AE001220121022000F0A8F80A
S11311800223FB6102E00323FB6100BF0C4BD3F895
S11311905C3123F03002FB691B0109491343C1F898
S11311A05C3106E000BF04E000BF02E000BF00E0E5
S11311B000BF2837BD4680BD002D31010148E8013C
S11311C000400E4080400E4088400E4084400E4057
S11311D0B0400E4080B400AF034B1B681846BD46B8
S11311E05DF8047B704700BF0C00002090B585B00B
S11311F000AF78601120FFF797FD01220021022043
S113120000F066F87B685B7883F00103DBB2002BA7
S11312100DD07B689B7883F00103DBB2002B06D0F2
S11312207B68DB7883F00103DBB2002B00BF002373
S1131230FB607B681B7C022B01D10123FB60224BEA
S11312405B6A23F001022049FB6813434B627B680D
S11312501B781A4608211D48FFF778F87B689B889D
S1131260DB027A68527A1146174A0B43D362164B53
S11312701B6B03F07F627B68DB88DB0213437A68B5
S1131280927A1A437B681B7ADB0142EA03047B6887
S11312901B7A1846FFF70CFA03460B4A23431363E1
S11312A07B685B7B1A037B689B7B1B0113437A6817
S11312B0D27B1A437B681B7B1B04034913434B6398
S11312C000BF1437BD4690BD00400E4024400E4080
S11312D080B588B000AF0346FB710B46BB71134663
S11312E07B71FB79042B00F2B88001A252F823F041
S11312F04D1300003B1300001713000005130000FA
S11313002913000001237B6102233B610123FB615C
S11313100023BB6125E004237B6108233B61032395
S1131320FB610223BB611CE010237B6120233B6132
S11313300523FB610423BB6113E040237B6180230D
S11313403B610723FB610623BB610AE04FF4807312
S11313507B614FF400733B610923FB610823BB618C
S113136000BFBB79002B5BD00023FB73FB79022BFE
S113137011D1FFF7B9F90346002B0CD1394BDB6BC4
S11313800123FB73384B5B6A03F00103012B02D189
S11313900120FFF7B7F9344A7B69136600BFB969C6
S11313A03248FEF7EAFF0346002BF8D07B79002B86
S11313B054D000BFF9692D48FEF7DFFF0346002B28
S11313C0F8D0FB79022B49D1FB7B002B46D0264B6E
S11313D05B6A03F00103012B05D1012220210220C5
S11313E000F04AF903E00021022000F0FBF802209B
S11313F000F03EF8B860012200210220FFF768FFE8
S1131400B968022000F06EF8174A7B69136600BFC2
S1131410F9691648FEF7B1FF0346002BF8D01DE02A
S1131420114A3B69136600BF0F4BD3F8903001217A
S1131430BA6901FA02F21340002BF5D17B79002B33
S11314400CD000BF084BD3F890300121FA6901FA9F
S113145002F21340002BF5D100E000BF2037BD4657
S113146080BD00BF00300E4000400E4090400E4052
S113147080B485B000AF0346FB71FB79013B032BBD
S113148023D801A252F823F099140000BD140000DF
S1131490A5140000B1140000114B1B6AC3F3080328
S11314A0FB6015E00E4B1B6903F07F03FB600FE04C
S11314B00B4B9B6903F07F03FB6009E0084BD3F8F7
S11314C09C30C3F30A03FB6002E00023FB6000BF0F
S11314D0FB6818461437BD465DF8047B704700BFAF
S11314E000400E4080B584B000AF03463960FB7104
S11314F0FB79013B032B6AD801A252F823F000BF09
S113150011150000931500003F1500006915000037
S11315103B68C3F308033B6000BF1A212E48FEF763
S11315202CFF0346002BF8D12C4B1B6A23F4FF73CA
S113153023F0010329493A6813430B6248E03B68EE
S113154003F07F033B6000BF18212348FEF715FF1B
S11315500346002BF8D1214B1B6923F07F021F495E
S11315603B6813430B6133E03B6803F07F033B604C
S113157000BF19211848FEF700FF0346002BF8D1DD
S1131580164B9B6923F07F0214493B6813438B611C
S11315901EE0124BD3F89030104B5B6A23F03003FB
S11315A00E4A43F0100353623B68DB0903F00F0358
S11315B01846FFF77DF8F860084B1A6B084B134088
S11315C03A681A430549FB6813430B6300E000BF04
S11315D000BF1037BD4680BD40410E4000400E4064
S11315E000F8FF0F80B584B000AF03460A46FB71D4
S11315F01346BB71FFF778F80346002B03D14FF471
S11316004003FB6016E0BB79202B04D0302B0AD0BA
S1131610002B04D00BE04FF40003FB600AE04FF40E
S11316204003FB6006E04FF44003FB6002E0104B14
S1131630FB6000BF00BF0F4BD3F89020FB68134042
S1131640FA689A42F7D1FB6803F48003002B0AD0AE
S1131650084BD3F8A03003F48063002B14BF01239C
S11316600023DBB200E0012318461037BD4680BDDD
S1131670FF33E10700400E4080B582B000AF03465F
S1131680FB710B46BB7113467B71FB79022B00D0B7
S113169016E0BB79002B07D00C4B4FF48062C3F8E3
S11316A0A8200A4ABB7953667B79002B07D0BA7904
S11316B0FB7911461846FFF795FF034601E000BF8A
S11316C0012318460837BD4680BD00BF00400E40C8
S11316D080B483B000AFEFF310833B603B687B6062
S11316E072B67B6818460C37BD465DF8047B7047BC
S11316F080B483B000AF78607B68002B00D162B601
S113170000BF0C37BD465DF8047B704780B485B0DC
S113171000AF786039607B6803F10473DA003B68DA
S113172013449B00FB60FB681B6818461437BD46D6
S11317305DF8047B7047000080B400AF064B1B6863
S113174003F04003002B01D1012300E000231846DD
S1131750BD465DF8047B70473C300E4080B500AF59
S1131760FFF7EAFF034683F00103DBB2002B08D145
S113177000BF12210448FFF7C9FF0346002BF8D12C
S113178000E000BF80BD00BF04300E4080B500AF54
S1131790FFF7E4FF034B5B681B0C03F00303DBB2AE
S11317A0184680BD00300E4080B483B000AF0346BD
S11317B0FB71FB79C3F10203102202FA03F318460A
S11317C00C37BD465DF8047B7047000080B584B0DB
S11317D000AF78600B46FB70FFF7AEFF034683F063
S11317E00103DBB2002B28D17B68002B0FD1154BF2
S11317F0D3F800311B0A03F01F030133BB60FEF76B
S113180021FD0246BB6802FB03F3FB6001E07B6839
S1131810FB600D4B1B78002B09D0FB680B4A9342ED
S113182005D8FB781946022000F012F806E0FB7890
S11318301946002000F00CF800E000BF1037BD4648
S113184080BD00BF00400E409C000020002D3101EF
S113185090B587B000AF03460A46FB711346BB71CF
S1131860FFF76AFF034683F00103DBB2002B31D19B
S1131870FFF78CFF03461A46FB7993422CD0184B92
S1131880D3F800311B0A03F01F0301337B61FEF719
S1131890D9FC38613B697A6902FB03F3FB60FB798D
S11318A0022B03D102213869FEF7E2FE0D4CFB79CD
S11318B01846FFF779FF03462361BB79002B01D05B
S11318C0FFF74CFFFB79002B07D100213869FEF7A5
S11318D0CFFE02E000BF00E000BF1C37BD4690BD54
S11318E000400E4000300E4080B485B000AF7860F8
S11318F039607B6803F1C063FB60FB683A681A6077
S113190000BF1437BD465DF8047B704780B485B0D2
S113191000AF786039607B6803F18063FB60FB682B
S11319203A681A6000BF1437BD465DF8047B7047FF
S113193080B582B000AF03463960FB71FB79002BA0
S11319401CD0FB79012B19D0FB79022B16D0FB7923
S1131950032B13D0FB79042B10D0FB79052B0DD06E
S1131960FB79062B0AD0FB79072B07D0FB79082BD0
S113197004D0FB79092B01D0FB790A2BFA791346A1
S11319805B0013441B010C3303F1804303F5204334
S113199001213A6801FA02F211461846FFF7B6FF30
S11319A000BF0837BD4680BD80B582B000AF034696
S11319B03960FB71FB79002B1CD0FB79012B19D00A
S11319C0FB79022B16D0FB79032B13D0FB79042B64
S11319D010D0FB79052B0DD0FB79062B0AD0FB79AF
S11319E0072B07D0FB79082B04D0FB79092B01D0F6
S11319F0FB790A2BFA7913465B0013441B010C3361
S1131A0003F1804303F5204301213A6801FA02F20D
S1131A1011461846FFF768FF00BF0837BD4680BD72
S1131A2080B584B000AFB9607B600346FB73134696
S1131A30BB73FB7B002B1CD0FB7B012B19D0FB7BE6
S1131A40022B16D0FB7B032B13D0FB7B042B10D073
S1131A50FB7B052B0DD0FB7B062B0AD0FB7B072BD6
S1131A6007D0FB7B082B04D0FB7B092B01D0FB7B2D
S1131A700A2BBB7B002B0DD07B68002B05D0FB7B96
S1131A80B9681846FFF790FF04E0FB7BB968184675
S1131A90FFF74EFFBB68072B20D82E49FA7B13466D
S1131AA05B0013441B010B4404331A68BB689B009E
S1131AB00F2101FA03F3DB431340B97BBA689200A8
S1131AC001FA02F211462348FA7B194313465B00DC
S1131AD013441B0103440433196025E01D49FA7BB8
S1131AE013465B0013441B010B4408331A68BB689C
S1131AF003F18043083B9B000F2101FA03F3DB430E
S1131B0002EA0301BA7BBB6803F18043083B9B00F4
S1131B1002FA03F30F48FA7B194313465B0013449C
S1131B201B01034408331960BB7B002B0DD17B6878
S1131B30002B05D0FB7BB9681846FFF735FF04E09E
S1131B40FB7BB9681846FFF7F3FE00BF1037BD46AC
S1131B5080BD00BF00A0004080B483B000AF7860B7
S1131B600B46FB70FB7863F07F03DBB21A467B689D
S1131B709A6500BF0C37BD465DF8047B70470000D2
S1131B8080B586B000AFF860B9607A60FB70BB685E
S1131B90002B03D12448FEF7E3FEB860FB78202B2A
S1131BA00CD0202B02DC002B05D03AE0402B08D0CF
S1131BB0602B09D035E010237B6108E008237B61AA
S1131BC005E006237B6102E004237B6100BFBB6860
S1131BD05A017B69796801FB03F35B0813443B6199
S1131BE07B697A6802FB03F33A69B2FBF3F33B6166
S1131BF03B69203B3B613B69DB003B613A690B4B32
S1131C0013403B61FB681B6823F06002FB681A60A9
S1131C10FB681A68FB781A43FB681A60FB683A6928
S1131C205A611837BD4680BD40410500F8FF7F006A
S1131C3080B485B000AF78600B46FB707B68114AB6
S1131C4093420AD07B68104A934206D07B680F4ABD
S1131C50934202D07B680E4A934200BFFB78DB4379
S1131C60FB60FB6803F00503FB60FB685A007B68BC
S1131C70DA60FA787B68DA6000BF1437BD465DF835
S1131C80047B70470000014000040140000801404B
S1131C90000C014080B582B000AF786039607B6889
S1131CA0334A93420AD07B68324A934206D07B6817
S1131CB0314A934202D07B68304A934200BF78682D
S1131CC000F05EF83B689B7C002B05D07B681B68AA
S1131CD043F080427B681A603B68DB7C002B05D0B4
S1131CE03B681B7D19467868FFF736FF3B685B7BD2
S1131CF01A463B681B8A13433A68D2891A437B68A5
S1131D005A603B6859683B689A683B681B7B7868F3
S1131D10FFF736FF3B685B7D002B05D07B681B68B3
S1131D2043F480327B681A603B689B7D1B0703F099
S1131D30E0423B68DB7D1B0503F4E0031A437B6848
S1131D401A667B685B6F23F030027B685A677B6896
S1131D505B6F3A68127E1A437B685A673B681B784C
S1131D601A467B68DA6000BF0837BD4680BD00BFF5
S1131D70000001400004014000080140000C014043
S1131D8080B483B000AF78607B682C4A93420AD059
S1131D907B682B4A934206D07B682A4A934202D03E
S1131DA07B68294A934200BF7B6840F6AA62DA60E6
S1131DB07B6800221A607B6841F205025A607B68E6
S1131DC000229A607B6800225A617B680022DA64F0
S1131DD07B681E4A9A647B6800221A667B6800222C
S1131DE05A677B6800229A677B680022DA677B68FF
S1131DF0124A93420BD07B68114A934207D07B6806
S1131E00104A934203D07B680F4A934202D17B6805
S1131E1000221A657B6800229A657B68084A93420F
S1131E2003D07B68084A934202D17B680022DA65BA
S1131E3000BF0C37BD465DF8047B704700000140CD
S1131E400004014000080140000C0140F9FF0100BA
S1131E5080B483B000AF786000BF7B681B6903F077
S1131E608003002BF9D07B68DB69DBB218460C37A2
S1131E70BD465DF8047B704780B483B000AF7860E2
S1131E800B46FB7000BF7B681B6903F04003002B0B
S1131E90F9D0FA787B685A6300BF0C37BD465DF809
S1131EA0047B704780B582B000AF00F0E3F80346CE
S1131EB0FB7100F019F803463B60FB79042BF4D85E
S1131EC001A252F823F000BFAB1E0000DD1E00008B
S1131ED0AB1E0000AB1E0000AB1E0000386800F013
S1131EE02EFB00BFE1E700BF80B483B000AF0C4B12
S1131EF01B683B603B687B6000233A7962F307030D
S1131F007A7962F30F23BA7962F31743FA7962F3A9
S1131F101F6318460C37BD465DF8047B704700BF4D
S1131F20A43C000080B400AF00BFBD465DF8047B54
S1131F307047000080B483B000AF03463960FB7182
S1131F4097F90730002B0ADB3B68DAB20C4997F9A2
S1131F5007305201D2B20B4483F800230AE03B68F5
S1131F60DAB20849FB7903F00F03043B5201D2B201
S1131F700B441A7600BF0C37BD465DF8047B7047EE
S1131F8000E100E000ED00E080B582B000AF7860D1
S1131F907B68013BB3F1807F01D301230FE00A4A40
S1131FA07B68013B536007214FF0FF30FFF7C2FF0E
S1131FB0054B00229A60044B07221A60002318463E
S1131FC00837BD4680BD00BF10E000E080B584B096
S1131FD000AF78601048FEF7C3FC02460F4BA3FB2A
S1131FE002239A097B6802FB03F3FB6079680C48BF
S1131FF001F0C6F8FB68B3F1807F05D36FF07F432F
S1132000FB60084801F0BCF8F868FFF7BDFF00BFAB
S11320101037BD4680BD00BF70000200D34D621072
S1132020A83C0000C03C000080B400AF044B1B6817
S11320300133034A136000BFBD465DF8047B70475B
S1132040A000002080B400AF034B1B681846BD46B7
S11320505DF8047B704700BFA000002080B582B00B
S113206000AF78607868FFF7B1FF00BF0837BD465E
S113207080BD000080B582B000AF0423FB710C4B1F
S11320801B680C4A1360FFF7DDFF0246084B1A6019
S1132090074B1A68074B1B689A4204D00123FB7153
S11320A0054801F06DF8FB7918460837BD4680BD38
S11320B0A4000020A8000020FC3C000080B400AF75
S11320C000BFBD465DF8047B704780B485B000AFA7
S11320D0786039607B6803F1C063FB60FB683A6831
S11320E01A6000BF1437BD465DF8047B704780B4A6
S11320F085B000AF786039607B6803F18063FB6072
S1132100FB683A681A6000BF1437BD465DF8047B6B
S1132110704780B582B000AF03463960FB71FB792C
S1132120002B1CD0FB79012B19D0FB79022B16D084
S1132130FB79032B13D0FB79042B10D0FB79052BEF
S11321400DD0FB79062B0AD0FB79072B07D0FB793E
S1132150082B04D0FB79092B01D0FB790A2BFA79DF
S113216013465B0013441B010C3303F1804303F556
S1132170204301213A6801FA02F211461846FFF79A
S1132180B6FF00BF0837BD4680BD80B582B000AF42
S113219003463960FB71FB79002B1CD0FB79012BC2
S11321A019D0FB79022B16D0FB79032B13D0FB79C2
S11321B0042B10D0FB79052B0DD0FB79062B0AD00C
S11321C0FB79072B07D0FB79082B04D0FB79092B6B
S11321D001D0FB790A2BFA7913465B0013441B01E7
S11321E00C3303F1804303F5204301213A6801FADB
S11321F002F211461846FFF768FF00BF0837BD46D4
S113220080BD000090B585B002AF7860786800F0BA
S113221019F83B7919467B791846BB791C46FB793A
S11322201A46064B1B780193009223460246044843
S113223000F0A6FF00BF0C37BD4690BDAC000020E7
S1132240143D000080B582B000AF786000F016F84D
S1132250786800F06DF8084B1B780133DAB2064B4E
S11322601A70054B1B78042B02D9034B00221A70F9
S113227000BF0837BD4680BDAC00002080B500AF6C
S11322802A4B1B78042B4ED801A252F823F000BF2E
S1132290A5220000BF220000D9220000F322000082
S11322A00D23000005210520FFF733FF062105203B
S11322B0FFF72FFF07210520FFF72BFF33E0052150
S11322C00520FFF762FF06210520FFF722FF072103
S11322D00520FFF71EFF26E005210520FFF719FF63
S11322E006210520FFF751FF07210520FFF711FF05
S11322F019E005210520FFF748FF06210520FFF717
S113230044FF07210520FFF704FF0CE00521052009
S1132310FFF7FFFE06210520FFF7FBFE072105203E
S1132320FFF733FF00BF00BF80BD00BFAC0000203B
S113233080B584B000AF7860784B1B78002B02D155
S11323403B79FB7321E0754B1B78012B02D17B7920
S1132350FB731AE0714B1B78022B16D06F4B1B7862
S1132360032B02D1BB79FB730FE06C4B1B78042B5E
S113237002D1FB79FB7308E0694800F001FF694B67
S1132380694A6421694800F0C5FBFB7B092B00F214
S1132390C18001A252F823F0C1230000E32300000E
S11323A00524000027240000492400006B240000B9
S11323B08D240000AF240000D1240000F324000089
S11323C008210020FFF7A5FE09210020FFF7A1FE48
S11323D006210020FFF79DFE07210020FFF799FE4C
S11323E098E008210020FFF7D0FE09210020FFF724
S11323F090FE06210020FFF78CFE07210020FFF746
S113240088FE87E008210020FFF783FE09210020D1
S1132410FFF7BBFE06210020FFF77BFE072100200B
S1132420FFF777FE76E008210020FFF7AEFE0921D2
S11324300020FFF7AAFE06210020FFF76AFE07210D
S11324400020FFF766FE65E008210020FFF761FE2B
S113245009210020FFF75DFE06210020FFF795FE0D
S113246007210020FFF755FE54E008210020FFF764
S11324708CFE09210020FFF74CFE06210020FFF707
S113248084FE07210020FFF744FE43E008210020DA
S1132490FFF73FFE09210020FFF777FE0621002009
S11324A0FFF773FE07210020FFF733FE32E0082117
S11324B00020FFF76AFE09210020FFF766FE0621CF
S11324C00020FFF762FE07210020FFF722FE21E033
S11324D008210020FFF71DFE09210020FFF719FE47
S11324E006210020FFF715FE07210020FFF74DFE0F
S11324F010E008210020FFF748FE09210020FFF723
S113250008FE06210020FFF704FE07210020FFF744
S11325103CFE00BF00BF1037BD4680BDAC000020AC
S1132520283D0000543D0000703D0000583D00006F
S113253080B400AF00BFBD465DF8047B704780B532
S113254082B000AF78607868FFF75CFE00BF0837A0
S1132550BD4680BD80B400AF044BDB6C1B0EDBB208
S11325601846BD465DF8047B704700BFB081E00F9C
S113257080B582B000AF1C4B01225A64FFF7EAFF1A
S11325800346FB71FB79002B0CD1184B4AF6E85239
S11325901A60174B1B68164A43F004031360134B6D
S11325A000221A60FB79012B05D8124B1B68114AD3
S11325B043F400531360104B1B6A23F444130E4A74
S11325C043F488131362084B1B68074A43F480736F
S11325D013600A4B1B68094A43F4F843136000BFB5
S11325E00837BD4680BD00BF00000E4090310E404C
S11325F098310E4064310E4000400E40A4310E402C
S1132600B0B586B000AFFFF7B3FF154B3C1D1D46B8
S11326100FCD0FC42B6823803B1D1846FEF7E6FD43
S1132620012201210220FEF753FE04211120FEF7AE
S11326305BFC00F09DF9012000F084F96420FFF7B1
S11326400DFDFFF775FFFFF76DFCFFF737FDFFF793
S113265029FC044B044A2921044800F05BFA00BF1A
S1132660943D0000803D0000A83D0000843D000032
S113267080B483B000AF7860002318460C37BD46A1
S11326805DF8047B704780B483B000AF7860FEE7E8
S113269080B483B000AF786039603B684FF4005277
S11326A05A60002318460C37BD465DF8047B70471A
S11326B080B400AF01231846BD465DF8047B704723
S11326C080B483B000AF7860012318460C37BD4650
S11326D05DF8047B704780B483B000AF78603960E4
S11326E04FF0FF3318460C37BD465DF8047B704746
S11326F080B485B000AFF860B9607A6000231846F2
S11327001437BD465DF8047B704780B586B000AFD2
S1132710F860B9607A6000237B610FE000F090F903
S113272038613B69B3F1FF3F0ED0BB685A1CBA60F5
S11327303A69D2B21A707B6901337B617B685A1E95
S11327407A60002BEAD100E000BF7B69002B02DC39
S11327504FF0FF3300E07B6918461837BD4680BD53
S113276080B485B000AF78600B4B1B68002B02D19E
S1132770094B0A4A1A60084B1B68FB60064B1A682F
S11327807B681344044A1360FB6818461437BD463B
S11327905DF8047B704700BFB0000020D800002023
S11327A080B586B000AFF860B9607A6000237B61C1
S11327B009E0BB685A1CBA601B78184600F080F91F
S11327C07B6901337B617A697B689A42F1DB7B68C0
S11327D018461837BD4680BD80B483B000AF0346A9
S11327E0FB7197F90730002B0BDBFB7903F01F0219
S11327F0074997F907305B09012000FA02F241F812
S1132800232000BF0C37BD465DF8047B704700BF32
S113281000E100E080B483B000AF0346FB7197F998
S11328200730002B0CDBFB7903F01F02074997F9F3
S113283007305B09012000FA02F2603341F82320DB
S113284000BF0C37BD465DF8047B704700E100E033
S113285080B483B000AF786039607B683A689A646A
S113286000BF0C37BD465DF8047B704780B483B06D
S113287000AF786039607B68DA6C3B68DB431A40F0
S11328807B68DA6400BF0C37BD465DF8047B704793
S113289080B483B000AF786039607B68DA6C3B68E1
S11328A01A437B68DA6400BF0C37BD465DF8047BCD
S11328B07047000080B500AF04210248FFF7D6FF3F
S11328C000BF80BD0000014080B500AF0421024874
S11328D0FFF7DEFF00BF80BD0000014098B500AFE8
S11328E0144B1B6903F08003002B20D0124B1B6890
S11328F0072B1ADC114B1C680E48FFF7A9FA034694
S11329001A460F4B1A550D4B1B6801330B4A1360C3
S1132910094B1B680133084A1360084B1B68082BDA
S113292005D1064B00221A6001E0FFF7C3FF00BF88
S113293098BD00BF00000140BC000020B80000208A
S1132940C000002080B483B000AF78607B68002BA7
S113295003D0064B01221A7002E0044B00221A70C5
S113296000BF0C37BD465DF8047B7047C8000020EB
S1132970B0B588B000AF01212A48FDF78BFF0121D3
S11329802948FDF787FF0123042200210020FFF7D7
S113299047F80123022201210020FFF741F8234BCD
S11329A0FB61234B3C461D460FCD0FC495E8070041
S11329B084E8070001211F48FDF76CFF00233B70EA
S11329C03B461946F869FFF765F9FB6903225A6724
S11329D0FB699B6F23F4F85323F01F03FA69936791
S11329E004211248FFF734FF0C20FFF713FF0421E2
S11329F00E48FFF74DFF0C20FFF7EEFE0521F869A6
S1132A00FFF716F90C4B1B6898680023022200217B
S1132A1000F0CEFB094B01221A7000BF2037BD46DF
S1132A20B0BD00BF4041050000350A000000014070
S1132A30B03D00000042040014000020C900002042
S1132A4080B582B000AF4FF0FF337B60184B1B782A
S1132A5083F00103DBB2002B01D0FFF789FFFEF7FF
S1132A6037FE3860134B1B68002B18DD124B1B68B4
S1132A70124AD35CDBB27B600F4B1B6801330E4AF6
S1132A8013600D4B1B68082B02D10B4B00221A60FC
S1132A90084B1B68013B074A1360FFF715FF3868B2
S1132AA0FEF726FE7B6818460837BD4680BD00BF8A
S1132AB0C9000020BC000020B4000020C000002099
S1132AC080B582B000AF0346FB710F4B1B7883F0D7
S1132AD00103DBB2002B01D0FFF74AFF0B4B1B783D
S1132AE0002B06D0FB790A2B03D10D210848FFF7F0
S1132AF0C3F9FB7919460648FFF7BEF9FB79184676
S1132B000837BD4680BD00BFC9000020C8000020B2
S1132B10000001401FB51C46094B1B680546D868D8
S1132B2052B1084B0091CDE9013207492B462246A8
S1132B3000F022F800F0AAFC044B1A46F2E700BFAA
S1132B4014000020CC3D0000D93D0000073E0000E9
S1132B5008B5074B044613B10021AFF30080054BC1
S1132B601868836A03B198472046FFF78CFD00BFBD
S1132B7000000000083E00000EB403B5014603AB9C
S1132B80054853F8042B0068019300F05DF802B087
S1132B905DF804EB03B070471400002070B50D4ECF
S1132BA00D4CA41BA4100025A54209D10B4E0C4CBE
S1132BB001F058F8A41BA4100025A54205D170BD4E
S1132BC056F8253098470135EEE756F825309847F2
S1132BD00135F2E77800002078000020780000201A
S1132BE07C00002002440346934200D1704703F85E
S1132BF0011BF9E79368013B002B10B4936008DADA
S1132C009469A34201DB0A2903D15DF8044B00F067
S1132C107DBB1368581C1060197008465DF8044B9E
S1132C207047F8B506460F461446D518AC4201D194
S1132C30002007E03A4614F8011B3046FFF7DAFF9C
S1132C40431CF3D1F8BD00002DE9F04F9DB00C46B4
S1132C5017460393064618B183690BB900F00EFDBD
S1132C607B4B9C4257D17468A38918075DD52369AF
S1132C70002B5AD00023099320238DF829303023C8
S1132C808DF82A304FF0010BB846454615F8013B44
S1132C900BB1252B54D1B8EB070A0BD053463A4657
S1132CA021463046FFF7BDFF013000F0C280099B8A
S1132CB05344099398F80030002B00F0BA800023A5
S1132CC04FF0FF32CDE90523049307938DF8533079
S1132CD01A93A846052218F8011B5E4800F0C8FDA7
S1132CE0049B78BBD90644BF20228DF853201A07D1
S1132CF044BF2B228DF853202A782A2A2AD0079AF7
S1132D00A84600200A25414611F8013B303B092B17
S1132D1069D960B324E0504B9C4201D1B468A3E765
S1132D204E4B9C4208BFF4689EE72146304600F0B3
S1132D303FFB00289ED04FF0FF301DB0BDE8F08F60
S1132D40A846A2E7434A801A0BFA00F018430490FD
S1132D504546BEE7039A111D12680391002A01DB60
S1132D60079204E0524243F002030792049398F856
S1132D7000302E2B0ED198F801302A2B38D1039B2A
S1132D801A1D1B680392002BB8BF4FF0FF3308F1E4
S1132D9002080593324D98F800100322284600F0EB
S1132DA067FD40B14023401B03FA00F0049B03433A
S1132DB008F10108049398F800102A488DF82810A7
S1132DC0062208F1010700F053FD002837D0264BF6
S1132DD01BBB039B073323F0070308330393099BAF
S1132DE04B44099350E705FB0232012088468AE7E9
S1132DF0002308F10108059319460A25404610F8F6
S1132E00012B303A092A03D9002BC3D00591C1E71D
S1132E1005FB012101238046F0E703AB0093224622
S1132E20124B04A93046AFF30080B0F1FF3F814656
S1132E30D5D1A3895B063FF57EAF09987DE703AB47
S1132E4000932246094B04A9304600F087F8ECE7CA
S1132E50603E00000C3E0000803E0000403E00004A
S1132E60123E0000163E000000000000232C00006B
S1132E702DE9F04791461F468A680B69DDF82080EA
S1132E809342B8BF1346C9F8003091F84320064670
S1132E900C4612B10133C9F800302368990642BFC9
S1132EA0D9F800300233C9F80030256815F006055A
S1132EB007D104F1190AE368D9F800209B1AAB4240
S1132EC028DC94F843302268003318BF01239206AB
S1132ED02DD404F1430239463046C047013020D096
S1132EE02368E568D9F8002003F00603042B08BF23
S1132EF0AD1AA36822690CBF25EAE5750025934243
S1132F00C4BF9B1AED184FF000091A344D451AD16D
S1132F10002008E00123524639463046C0470130BC
S1132F2003D14FF0FF30BDE8F0870135C3E7E11866
S1132F305A1C302081F84300224494F8451082F84A
S1132F4043100233C5E70123224639463046C047C1
S1132F500130E6D009F10109D8E700002DE9F0437A
S1132F6001F1430C0C46097E85B06E2917460646CE
S1132F7098460C9A00F0B38022D8632936D00AD838
S1132F80002900F0B980582900F0838004F142053B
S1132F9084F8421032E0642901D06929F6D120680E
S1132FA01368050603F104012AD51B681160002B80
S1132FB003DA2D225B4284F843206F480A2239E069
S1132FC0732900F09D8008D86F2920D07029DDD1A5
S1132FD0236843F02003236003E0752917D0782980
S1132FE0D4D1782384F84530644855E01368191D1A
S1132FF01B68116004F1420584F8423001238CE01F
S11330001B68116010F0400F18BF1BB2CFE71368A4
S11330102568181D1060280601D51B6802E06806A3
S1133020FBD51B8854486F2914BF0A2208220021AB
S113303084F843106568A560002DC0F2958021686E
S113304021F004012160002B3DD1002D40F08E8041
S11330506546082A0BD12368DB0708D52369626813
S11330609A42DEBF302305F8013C05F1FF35ACEB95
S113307005032361CDF800803B4603AA2146304670
S1133080FFF7F6FE01304DD14FF0FF3005B0BDE83B
S1133090F083394884F84510136821681D1D1B68A6
S11330A015600A060BD5CA0744BF41F02001216010
S11330B01BB9226822F0200222601022B7E74D06D5
S11330C048BF9BB2EFE76546B3FBF2F102FB113355
S11330D0C35C05F8013D0B460029F5D1B9E7136837
S11330E025686169181D106028061B6801D51960E0
S11330F002E06A06FBD51980002323616546B9E71F
S11331001368191D11601D6862680021284600F0CB
S1133110AFFB08B1401B606063682361002384F83F
S11331204330A7E723692A4639463046C047013071
S1133130AAD023689B0713D4E068039B9842B8BFC6
S11331401846A3E701234A4639463046C0470130B2
S11331509AD00135E368039A9B1AAB42F2DCEBE7A1
S1133160002504F11909F5E7002BACD1037884F8A4
S1133170423004F142056CE71D3E00002E3E000083
S11331800FB40A4B13B51C6824B1A36913B92046C4
S113319000F074FA05AB049AA16801932046FFF786
S11331A053FD02B0BDE8104004B070471400002085
S11331B02DE9F7431D46514B1E6804460F469046C1
S11331C026B1B36913B9304600F058FA4C4B9C420F
S11331D052D17468B8F1020F06D0B8F1010F00F2B1
S11331E08980002DC0F286802146304600F0DCF94B
S11331F0616B41B104F14403994202D0304600F0BE
S113320087FB002363630023A3616360A3891B0618
S113321003D52169304600F07BFBA38923F44A637C
S113322023F00303B8F1020FA3815DD001AB6A461A
S11332302146304600F0ACFAA3891843A0812DBB87
S1133240009D284600F008FB074600284ED1DDF813
S11332500090A9453CD14FF0FF30A38943F002030D
S1133260A3810023A36004F14703236023610123A6
S1133270636103B0BDE8F083224B9C4201D1B46882
S1133280A8E7214B9C4208BFF468A3E7002FD8D0DD
S1133290B36913B9304600F0F1F9B8F1010F08BF72
S11332A0A389276004BF43F00103A381A38913F01A
S11332B00800C4E904751BD013F0010018BF6D4267
S11332C04FF000031DBFA360A5611846A560D0E7B9
S11332D0484600F0C1FA07460028BCD0A38943F051
S11332E08003A3814D46D3E70020B6E7A946F5E75E
S11332F0A060BEE74FF0FF30BBE700BF1400002022
S1133300603E0000803E0000403E0000F8B50E46DE
S11333101446054618B183690BB900F0AFF9214B87
S11333209C422AD16C68A369A360A3891A072ED58D
S1133330236963B323692068C01A6369F6B28342C0
S1133340374604DC2146284600F02EF928BBA36842
S1133350013BA36023685A1C22601E70636901301C
S1133360834204D0A389DB0719D50A2E17D121463D
S1133370284600F019F990B10FE00B4B9C4201D1A3
S1133380AC68D0E7094B9C4208BFEC68CBE7214608
S1133390284600F00DF80028CCD04FF0FF3738460F
S11333A0F8BD00BF603E0000803E0000403E0000CB
S11333B0324B70B51D6806460C4625B1AB6913B98E
S11333C0284600F05BF92E4B9C420FD16C68B4F98F
S11333D00C309AB215072CD4D00611D409223260CD
S11333E043F04003A3814FF0FF303EE0254B9C4265
S11333F001D1AC68EBE7244B9C4208BFEC68E6E7DC
S1133400510712D5616B41B104F14403994202D0D2
S1133410304600F07DFA00236363A38923F024037C
S1133420A3810023636023692360A38943F0080315
S1133430A38123694BB9A38903F42073B3F5007FF7
S113344003D02146304600F0C7F9A28912F00103E7
S11334500CD00023A36063695B42A361236953B961
S1133460B4F90C3013F08000BAD170BD920758BF84
S11334706369A360F2E70020F7E700BF14000020AF
S1133480603E0000803E0000403E000008B506207B
S113349000F01EFB0120FFF7F6F800008A892DE9F1
S11334A0F041054610070C4658D44B68002B05DC48
S11334B00B6C002B02DC0020BDE8F081E66A002ED4
S11334C0F9D0002312F480522F68216A2B6032D085
S11334D0606DA3895A0705D56368C01A636B0BB185
S11334E0236CC01A00230246E66A216A2846B047C4
S11334F0431CA38906D129681D2948D8294ACA40F2
S1133500D60744D500226260D9042269226004D51A
S1133510421C01D12B6803B96065616B2F600029DF
S1133520C9D004F14403994202D0284600F0F0F9CE
S113353000206063C0E701232846B047411CC8D17E
S11335402B68002BC5D01D2B01D0162B01D12F6069
S1133550B1E7A38943F04003A381ADE70F69002FCE
S1133560A9D093070E6808BF4B690F6018BF0023EA
S1133570A6EB07088B60B8F1000F9CDD43463A4682
S1133580216AA66A2846B047002806DCA38943F0CE
S11335904003A3814FF0FF308EE70744A8EB0008F7
S11335A0E9E700BF0100402038B50B6905460C4629
S11335B0DBB118B183690BB900F060F80C4B9C4285
S11335C009D16C68B4F90C307BB121462846BDE8BA
S11335D03840FFF763BF074B9C4201D1AC68F1E769
S11335E0054B9C4208BFEC68ECE7002038BD00BFE7
S11335F0603E0000803E0000403E0000002310B505
S11336000446C0E90033836081814366C281C0E916
S113361004338361194608225C30FFF7E3FA054B53
S11336206362054BA362054BE362054B246223638B
S113363010BD00BF093B00002B3B0000633B0000B2
S1133640873B0000014900F085B800BFA9350000A0
S113365070B54A1E682555430E4605F1740100F005
S1133660A5F9044640B10021C0E900160C30A06061
S113367005F16802FFF7B6FA204670BD836910B5FC
S1133680044633BBC0E912330365124B124A1B686C
S11336908262984204BF0123836100F01FF86060D6
S11336A0204600F01BF8A060204600F017F8002226
S11336B0E06004216068FFF7A1FF01220921A068EE
S11336C0FFF79CFF02221221E068FFF797FF012316
S11336D0A36110BD083E000045360000F8B51B4B41
S11336E01E68B369074613B93046FFF7C7FF48366B
S11336F0D6E90134013B03D5336833B13668F7E7C3
S1133700B4F90C506DB16834F4E704213846FFF77E
S11337109FFF30600028F1D10C233B600446204613
S1133720F8BD0B4B6566C4E90055A560C4E90335D3
S1133730C4E905550822294604F15C00FFF752FA52
S1133740C4E90D55C4E91255E9E700BF083E00007D
S11337500100FFFF2DE9F8438046894600F1480443
S1133760002614B93046BDE8F883D4E90175013F59
S113377001D52468F5E7AB89012B07D9B5F90E30DB
S1133780013303D029464046C84706436835EEE76F
S113379070B50E46B1F90E10002996B014461D46B8
S11337A007DA00232B60B3891A0610D44FF4806320
S11337B00EE06A4600F00EFA0028F2DB019A02F4E9
S11337C07042A2F500535A425A412A60EEE7402360
S11337D00020236016B070BD8B8973B59D07064623
S11337E00C4607D504F14703236023610123636179
S11337F002B070BD01AB6A46FFF7CAFF00990546E7
S1133800304600F0D3F848B9B4F90C309A05EFD437
S113381023F0030343F00203A381E3E70D4BB362F8
S1133820A389206043F08003A381009B6361019B13
S113383020615BB1B4F90E10304600F0DDF928B117
S1133840A38923F0030343F00103A381A3891D4348
S1133850A581CDE745360000024B0146186800F00B
S1133860A5B800BF14000020000000000000000004
S113387001F0FF01102A2BDB10F0070F08D010F81D
S1133880013B013A8B422DD010F0070F42B3F6D121
S1133890F0B441EA012141EA014122F007047FF03A
S11338A000070023F0E80256083C85EA010586EA91
S11338B0010685FA47F5A3FA87F586FA47F6A5FACD
S11338C087F68EB9EED1F0BC01F0FF0102F00702D9
S11338D032B110F8013B013A83EA010313B1F8D184
S11338E00020704701387047002D06BF3546033865
S11338F0073815F0010F07D1013015F4807F02BF9E
S1133900013015F4C03F0130F0BC0138704700BFEE
S113391038B50546002945D051F8043C0C1F002B4E
S1133920B8BFE41800F08AF91F4A1368104633B987
S1133930636014602846BDE8384000F080B9A342B3
S11339400CD921686218934204BF1A685B686360EB
S113395004BF521822600460ECE713465A680AB1A7
S1133960A242FAD919685818A0420BD12068014420
S1133970581882421960DDD1106852685A600144B7
S11339801960D7E702D90C232B60D3E720682118EC
S11339908A4204BF11685268626004BF091821603A
S11339A05C60C7E738BD00BFCC00002070B5CD1CFB
S11339B025F0030508350C2D38BF0C25002D0646CF
S11339C001DBA94203D90C233360002070BD00F051
S11339D035F9214A1468214691B9204C23681BB952
S11339E0304600F03DF820602946304600F038F8B3
S11339F0431C24D10C233360304600F020F9E4E763
S1133A000B685B1B18D40B2B0FD90B60CD50CC1853
S1133A10304600F014F904F10B00231D20F00700D8
S1133A20C31AD3D05A42E250D0E78C424B6816BF37
S1133A30636013600C46EBE70C464968CCE7C41C92
S1133A4024F00304A04205D0211A304600F008F8FF
S1133A500130CFD02560DBE7CC000020D00000206F
S1133A6038B5064C0023054608462360FEF778FE69
S1133A70431C02D1236803B12B6038BDD40000205D
S1133A801F2938B504460D4604D9162303604FF0A8
S1133A90FF3038BD426C12B152F821304BB9204688
S1133AA000F030F82A4601462046BDE8384000F0D0
S1133AB017B8012B0AD0591C03D116230360012027
S1133AC0E7E7002442F82540284698470020E0E72D
S1133AD0024B01461868FFF7D3BF00BF1400002053
S1133AE038B5074C00230546084611462360FEF707
S1133AF0F2FD431C02D1236803B12B6038BD00BF23
S1133B00D4000020FEF7D4BD10B50C46B1F90E1058
S1133B1000F096F80028ABBF636DA3891B1823F44B
S1133B208053ACBF6365A38110BD2DE9F0411F46EE
S1133B308B89DB0505460C46164605D50223002273
S1133B40B1F90E1000F068F8A389B4F90E1023F44B
S1133B508053A38132463B462846BDE8F04100F03D
S1133B6017B810B50C46B1F90E1000F055F8431C07
S1133B70A38915BF606523F4805343F48053A38164
S1133B8018BFA38110BDB1F90E1000F013B80000E6
S1133B9038B5074C054608461146002222601A46ED
S1133BA0FEF7FEFD431C02D1236803B12B6038BD30
S1133BB0D400002038B5064C00230546084623608F
S1133BC0FEF756FD431C02D1236803B12B6038BDB8
S1133BD0D400002038B5074C00230546084611469A
S1133BE02360FEF755FD431C02D1236803B12B600B
S1133BF038BD00BFD400002038B5064C002305466C
S1133C0008462360FEF75CFD431C02D1236803B120
S1133C102B6038BDD400002038B5074C0546084653
S1133C201146002222601A46FEF762FD431C02D1AF
S1133C30236803B12B6038BDD4000020704770475F
S1133C4038B5074C054608461146002222601A463C
S1133C50FEF75BFD431C02D1236803B12B6038BD22
S1133C60D4000020F8B500BFF8BC08BC9E467047DD
S1133C70F8B500BFF8BC08BC9E46704740787D018B
S1133C8000000000005A620200010000C0CF6A0078
S1133C9002000000809FD50002010000002D3101C8
S1133CA0020200000102030844657369726564201E
S1133CB0706572696F643A202564206D730A000090
S1133CC05379737469636B20706572696F642069DA
S1133CD07320746F6F206C6F6E672E204D61782097
S1133CE076616C75652069732030786666666666F1
S1133CF0662C207E322E32487A0000007265743DB4
S1133D006576656E745F74696D65725F73686F77ED
S1133D103B0000000A256425643A25642564736524
S1133D20673A25640A000000496E7661696C642074
S1133D306E756D626572206F66207365676D656E62
S1133D40742E204D757374206265203020746F20AA
S1133D5034000000300000002E2E2F7372632F6C8D
S1133D6065645F636F6E74726F6C2E630000000095
S1133D704C654472697665536576656E5365670074
S1133D80300000002E2E2F7372632F6D61696E2E2A
S1133D906300000000000000A00068010A2007067C
S1133DA0020A0407000000006D61696E0000000053
S1133DB0050000000000000000C201000005000032
S1133DC00010000000000000000000002C206675B8
S1133DD06E6374696F6E3A200061737365727469FF
S1133DE06F6E2022257322206661696C65643A2017
S1133DF066696C6520222573222C206C696E65200F
S1133E002564257325730A0018000020232D302B08
S1133E102000686C4C0065666745464700303132C7
S1133E20333435363738394142434445460030311E
S1133E30323334353637383961626364656600007D
S1133E40000000000000000000000000000000006E
S1133E50000000000000000000000000000000005E
S1133E60000000000000000000000000000000004E
S1133E70000000000000000000000000000000003E
S1133E80000000000000000000000000000000002E
S1133E90000000000000000000000000000000001E
S1073EA0000000001A
S10B3EA4A8C2FF7F0100000029
S1133EAC00F0490200800000C0EA2101C0EA2101AF
S1133EBCC0EA21011800002000000000603E000050
S1133ECC803E0000403E00000000000000000000A6
S1133EDC00000000000000000000000000000000D2
S1133EEC00000000000000000000000000000000C2
S1133EFC00000000000000000000000000000000B2
S1133F0C00000000000000000000000000000000A1
S1133F1C0000000000000000310100000D01000051
S90301C13A
