:1000000000000420C1010000ED010000ED0100002E
:10001000ED010000ED010000ED010000ED01000028
:10002000ED010000ED010000ED010000ED01000018
:10003000ED010000EC010000ED0100004D32000078
:10004000ED010000ED010000ED010000ED010000F8
:10005000ED010000ED010000ED010000ED010000E8
:10006000ED010000ED0100008504000035420000B4
:10007000B53A0000ED010000ED010000ED010000C7
:10008000ED010000ED010000C1040000ED010000E1
:10009000ED010000ED010000ED010000ED010000A8
:1000A000ED010000ED010000ED010000ED01000098
:1000B000ED010000ED010000ED010000ED01000088
:1000C000ED010000ED010000ED010000ED01000078
:1000D000ED010000ED010000ED010000ED01000068
:1000E000ED010000ED010000ED010000ED01000058
:1000F000ED010000ED010000ED010000ED01000048
:10010000ED010000ED010000ED01000010B5054C0F
:10011000237833B9044B13B10448AFF300800123B3
:10012000237010BDEC010020000000008C5800007E
:1001300008B5034B1BB103490348AFF3008008BD6A
:1001400000000000F00100208C580000154B002B2F
:1001500008BF134B9D46A3F5803A00218B460F46FE
:100160001348144A121A04F001F90F4B002B00D067
:1001700098470E4B002B00D0984700200021040028
:100180000D000D48002802D00C48AFF3008004F0A9
:10019000C9F82000290003F099FF04F09DF800BF82
:1001A0000000080000000420000000000000000023
:1001B000EC010020600200200000000000000000B0
:1001C000064880470649074A074B9A42BEBF51F886
:1001D000040B42F8040BF8E7FFF7B8FFE502000054
:1001E0009858000000000020EC010020FEE700BF4E
:1001F00080B582B000AF00F025F878600A4BD3F8E4
:1002000008311B0AC3F308033B603B6801337A687B
:10021000B2FBF3F37B60054A7B6813607B6818468A
:100220000837BD4680BD00BF00400E4008000020DA
:1002300080B400AF024B1846BD465DF8047B7047A2
:1002400000F0490280B483B000AF1C4BD3F8943067
:1002500003F00703023B032B1BD801A252F823F043
:100260008102000079020000710200008902000092
:10027000134B1B687B6010E04FF400437B600CE085
:10028000104B1B687B6008E00F4B1B685B087B60B2
:1002900003E00D4B1B687B6000BF084BD3F80031B7
:1002A0001B0A03F01F0301337A68B2FBF3F318460D
:1002B0000C37BD465DF8047B704700BF00400E4020
:1002C00004000020000000200C00002080B400AFDB
:1002D000034B1B681846BD465DF8047B704700BFA2
:1002E0000000002080B400AF074B084A9A60064B1C
:1002F000D3F88830044A43F47003C2F8883000BF52
:10030000BD465DF8047B704700ED00E00000000092
:1003100080B400AF4FF400431846BD465DF8047B3F
:10032000704780B400AF4FF47A731846BD465DF84D
:10033000047B704780B400AF034B1B681846BD4672
:100340005DF8047B704700BF0400002080B483B0D8
:1003500000AF0346FB7197F90730002B0BDBFB79ED
:1003600003F01F02074997F907305B09012000FAE3
:1003700002F241F8232000BF0C37BD465DF8047B34
:10038000704700BF00E100E080B483B000AF0346D7
:10039000FB7197F90730002B10DBFB7903F01F028C
:1003A000094997F907305B09012000FA02F220336E
:1003B00041F82320BFF34F8FBFF36F8F00BF0C377F
:1003C000BD465DF8047B704700E100E080B483B077
:1003D00000AF7860044A7B68C2F8243400BF0C3751
:1003E000BD465DF8047B704700A0004080B400AFBC
:1003F000034BD3F81C341846BD465DF8047B7047A8
:1004000000A0004090B585B002AF044608461146F2
:100410001A462346FB710346BB710B467B7113469C
:100420003B710121164800F0AFFCB979F87900233F
:10043000012202F0BBFB397978790023012202F016
:10044000B5FB0A20FFF782FF1220FFF77FFFB97983
:10045000F87901230193012300930023002202F085
:1004600005FB397978790123019301230093002357
:10047000022202F0FBFA00BF0C37BD4690BD00BF60
:1004800000350A0080B500AFFFF7B0FF0246094B08
:100490001A60084B1B68084A1360064B1B68184615
:1004A000FFF794FF0A20FFF76FFF044B01221A7039
:1004B00000BF80BD0C0200201002002008020020B6
:1004C00080B500AFFFF792FF0246094B1A60084B58
:1004D0001B68084A1360064B1B681846FFF776FF37
:1004E0001220FFF751FF044B01221A7000BF80BD9C
:1004F0000C020020100200200802002080B483B00B
:1005000000AF064B1B687B60044B00221A607B68BF
:1005100018460C37BD465DF8047B70470C0200207E
:1005200080B582B000AF0346FB71FB79184600F03E
:100530003DF8034618460837BD4680BD80B582B0F9
:1005400000AF0A20FFF720FF1220FFF71DFF154B19
:100550001B68012B05D1134B00221A600023FB718D
:100560000EE0104B1B68042B05D10E4B00221A60C5
:100570000123FB7104E00B4B00221A60FF23FB7187
:10058000094B1B78DBB2012B05D00A20FFF7DEFEFA
:100590001220FFF7DBFE97F9073018460837BD46F3
:1005A00080BD00BF100200200802002080B584B08A
:1005B00000AF0346FB71FB79032B00F2838001A29D
:1005C00052F823F0D5050000110600004D0600008A
:1005D00089060000414B1B691B0DDBB203F00303CE
:1005E000FB733E4B1B693D4A23F440131361FB7BB5
:1005F0000133FB73FB7B022B01D90023FB73374BC9
:100600001B69FA7B12051146344A0B43136159E00A
:10061000324B1B691B0CDBB203F00F03FB732F4B38
:100620001B692E4A23F470231361FB7B0133FB7398
:10063000FB7B092B01D90023FB73284B1B69FA7B39
:1006400012041146254A0B4313613BE0234B1B69FF
:100650001B0BDBB203F00703FB73204B1B691F4A24
:1006600023F4E0431361FB7B0133FB73FB7B052B1E
:1006700001D90023FB73194B1B69FA7B1203114646
:10068000164A0B4313611DE0144B1B691B0ADBB2B6
:1006900003F00F03FB73114B1B69104A23F47063C3
:1006A0001361FB7B0133FB73FB7B092B01D9002317
:1006B000FB730A4B1B69FA7B12021146074A0B4374
:1006C000136100BFFA7BFB791146184600F008F869
:1006D000FB7B18461037BD4680BD00BF002004409C
:1006E00080B582B000AF03460A46FB711346BB716A
:1006F000FB79012B05D9FB790133184602F0F4FE92
:1007000003E0FB79184602F0EFFEBB79184602F0D1
:1007100087FF00BF0837BD4680BD000080B400AF32
:10072000054B00221A60054B00221A6000BFBD462F
:100730005DF8047B704700BF100200200C0200200F
:1007400080B400AF0B4B1B690A4A23F0700313619E
:10075000084B1B69074A23F00F031361054B002266
:100760009A60044B00225A6000BFBD465DF8047BCE
:10077000704700BF0020044080B500AF02230A226A
:1007800000210A20FFF73EFE00BF80BD80B500AF0C
:10079000FFF7B4FE0346184680BD000090B583B055
:1007A00000AFFFF7BBFF254B1C78244B1B78184686
:1007B00003F006FB0346DBB219462046FFF790FF25
:1007C0002DE0FFF7BBFE0346FB7197F90730002BC6
:1007D00013D11A4B1B780133DAB2184B1A70174B2E
:1007E0001C78164B1B78184603F0EAFA0346DBB276
:1007F00019462046FFF774FF11E097F90730012BE7
:100800000DD10E4B1B781846FFF78AFE0346BB71CD
:100810000A4B1B78BA7911461846FFF761FF074B60
:100820001B78042BCDD1054B00221A70FFF788FFEF
:10083000FFF774FF00BF0C37BD4690BD14020020C7
:1008400080B487B000AFF860B9607A60FB6803F1EC
:100850000473DA00BB6813449B007B617B697A6890
:100860001A6000BF1C37BD465DF8047B704780B43A
:1008700085B000AF786039607B6803F10473DA00FB
:100880003B6813449B00FB60FB681B6818461437E9
:10089000BD465DF8047B704780B483B000AF7860DC
:1008A00001227B6802FA03F318460C37BD465DF857
:1008B000047B704780B400AF064B1B6803F0400315
:1008C000002B01D1012300E000231846BD465DF84E
:1008D000047B70473C300E4080B500AFFFF7EAFF65
:1008E000034683F00103DBB2002B08D100BF1221C5
:1008F0000448FFF7BCFF0346002BF8D100E000BF1F
:1009000080BD00BF04300E4080B500AFFFF7E4FFAC
:10091000034B5B681B0C03F00303DBB2184680BD7E
:1009200000300E4080B584B000AF78600123FB60DA
:100930007B68124A934204D80023FB600023BB600B
:1009400008E07B680E4A934202D80123BB6001E0B5
:100950000223BB60FA6810210A48FFF771FF094BB8
:10096000D3F8003123F08072BB681B06054913439E
:10097000C1F8003100BF1037BD4680BD0048E80116
:100980000090D00300400E4080B483B000AF054B10
:100990001B687B607B6818460C37BD465DF8047B9E
:1009A000704700BF1000002080B582B000AFFFF795
:1009B00049FC7860064BD3F800311B0A03F01F0393
:1009C00001337A6802FB03F318460837BD4680BD41
:1009D00000400E4080B582B000AF0D4800F01EFC14
:1009E0000346FB70FB78072B05D0092B07D1FFF7D7
:1009F00029FC786006E0FFF7C7FF786002E000237B
:100A00007B6000BF7B6818460837BD4680BD00BFCD
:100A100006000E0080B584B000AF78607B68002BC4
:100A20001CD11B4800F0FAFB0346FB7200BFFB7AA7
:100A3000013B072B23D801A252F823F0610A0000E2
:100A40007F0A00007F0A00006F0A00007F0A000092
:100A50007F0A0000670A0000770A0000002312E006
:100A60000023FB600EE0FFF78FFFF8600AE0FFF75E
:100A70002DFCF86006E0FFF797FFF86002E0002326
:100A8000FB6000BFFB6818461037BD4680BD00BF45
:100A9000B800320080B485B000AF786039601E4B7A
:100AA0005B6803F04073FB600023BB6012E01B4AED
:100AB000BB68DB0013441A793B68DBB29A4206D16B
:100AC000164ABB6852F833307A689A4206D9BB6836
:100AD0000133BB60BB68042BE9D900E000BFBB68F1
:100AE000052B02D10323FB6005E00C4ABB68DB0049
:100AF00013445B79FB60FB681B06FB60064B5B687D
:100B000023F040720449FB6813434B6000BF143765
:100B1000BD465DF8047B704700000E406455000040
:100B200080B582B000AF0E4B1B6C002B14BF0123AD
:100B30000023FB710A4B41F671321A64FFF778FB10
:100B4000034600211846FFF7A5FFFB79002B02D0D2
:100B5000034B00221A6400BF0837BD4680BD00BFAA
:100B600000000E4080B584B000AF786039600C4B57
:100B70001B6C002B14BF01230023FB73084B41F6B1
:100B800071321A6439687868FFF784FFFB7B002BA9
:100B900002D0034B00221A6400BF1037BD4680BD4F
:100BA00000000E4080B487B000AF78600F237B61F7
:100BB0007B6803333B617B69FB60FA683B69934266
:100BC00028BF1346BB60BB681B07BB60BB681846E9
:100BD0001C37BD465DF8047B7047000080B400AF51
:100BE000044B5B6A1B0903F003031846BD465DF81E
:100BF000047B704700400E4080B483B000AF786043
:100C0000074B5B6A23F030027B681B0104491343E6
:100C10004B6200BF0C37BD465DF8047B704700BFD8
:100C200000400E4090B585B000AF78600023BB60F7
:100C30007B68354A934206D0344A934203D0344A03
:100C4000934200D000E000BF786800F0E7FA034666
:100C5000FB607B682C4A93420DD02C4A934211D002
:100C60002B4A934200D014E02A4BD3F8803003F093
:100C70000703FB600DE0274BD3F8843003F0070334
:100C8000FB6006E0234BD3F8883003F00703FB60DA
:100C900000BFFB68042B2ED801A252F823F000BF3E
:100CA000F10C0000B50C0000BD0C0000CD0C0000E4
:100CB000C50C0000FFF72CFBB8601FE0FFF73AFB04
:100CC000B8601BE0FFF72DFBB86017E0FFF7BAFA3A
:100CD0000446104BD3F800311B0E03F0010301331F
:100CE0001846FFF7D9FD0346B4FBF3F3BB6005E0FC
:100CF0000023BB6002E00023BB6000BFBB68184656
:100D00001437BD4690BD00BF03002000050024003D
:100D100002001E0000400E4080B483B000AF786037
:100D20000A4BD3F8443103F00103002B08D100BF74
:100D3000064BD3F840217B681340002BF8D100E02C
:100D400000BF0C37BD465DF8047B704700400E4085
:100D500080B400AF00BFBD465DF8047B704780B42F
:100D600000AF00BFBD465DF8047B704780B582B020
:100D700000AF7860786800F087F9034601331846C1
:100D80000837BD4680BD000080B586B000AF7860F2
:100D90000B46FB7000233B617B681B0A03F00F03CB
:100DA000013B092B44D801A252F823F0D50D0000D5
:100DB000E10D0000310E0000310E0000DB0D0000DF
:100DC000E70D0000F10D0000310E0000FB0D0000EA
:100DD000070E0000184B7B6118E0184B7B6115E093
:100DE000174B7B6112E0174B7B6101233B610DE0E8
:100DF000154B7B6110233B6108E0144B7B614FF482
:100E000080333B6102E0124B7B6100BF7B681B0BB0
:100E100003F01F03FB603B69002B02D03869FFF72A
:100E20007BFFFB781A46F9687869FFF709FD00E057
:100E300000BF1837BD4680BD00400E40B0400E4098
:100E4000C0400E40E0400E40E8400E40F0400E40F2
:100E500050410E4090B585B000AF78607B6803F4D8
:100E60007813B3F5B01F00F09480B3F5B01F21D80C
:100E7000B3F5202F58D0B3F5202F08D8B3F5003F95
:100E800056D0B3F5802F40D0002B3AD0EBE0B3F52D
:100E9000602F00F0D080B3F5602F03D8B3F5402F5A
:100EA00055D0E0E0B3F5801F00F0C980B3F5A01F76
:100EB00061D0D8E0B3F5101F00F0B880B3F5101F73
:100EC0000BD8B3F5F01F51D0B3F5001F00F08280AE
:100ED000B3F5D01F00F08380C5E0B3F5401F00F0EC
:100EE0009180B3F5401F03D8B3F5381F63D0BAE043
:100EF000B3F5481F00F0A780B3F5781F00F0A88075
:100F0000B1E0FFF79FF9F860B0E0FFF79BF9F860F8
:100F1000594BD3F80C311B0AC3F308030133FA68A9
:100F2000B2FBF3F3FB60A1E0FFF78CF9F8609DE002
:100F3000FFF788F9F860504BD3F808311B0AC3F368
:100F400008030133FA68B2FBF3F3FB608EE0FFF7AE
:100F500079F9F860484BD3F814311B0A03F01F03EA
:100F60000133FA68B2FBF3F3FB607FE04348FFF71D
:100F700059FEF8607AE04248FFF754FEF8603E4BB5
:100F8000D3F8303103F00303FA6822FA03F3FB606D
:100F90006CE03A48FFF746FEF860374BD3F8203153
:100FA00003F00F031846FFF777FC0246FB68B3FB1C
:100FB000F2F3FB605AE03148FFF734FEF8602E4B45
:100FC000D3F820311B0903F00303FA6822FA03F374
:100FD000FB604BE02B48FFF725FEF86046E0294810
:100FE000FFF720FEF860244BD3F828311B0903F0EB
:100FF00003031846FFF750FC0246FB68B3FBF2F30D
:10100000FB6033E01F48FFF70DFEF8601A4BD3F882
:1010100028311B0A03F0030304331846FFF73CFC96
:101020000246FB68B3FBF2F3FB601FE01448FFF7D6
:10103000F9FDF8601AE0FFF7CDFCF86016E0FFF765
:10104000A3FCF86012E00020FFF7E4FCF8600DE07C
:10105000FFF7F8F804467868FFF788FE0346B4FB0C
:10106000F3F3FB6002E00023FB6000BFFB6818465F
:101070001437BD4690BD00BF00400E4002001E0068
:10108000050024000300200080B584B000AF786024
:101090007B681B0903F00F03BB60BB68013B092B96
:1010A00000F2A88001A252F823F000BFD510000082
:1010B000E5100000F510000015110000F51100000A
:1010C000F51100002511000035110000831100000A
:1010D000D71100004B4BD3F800311B0A03F01F035C
:1010E000FB608AE0474BD3F814311B0A03F01F035F
:1010F000FB6082E0434BD3F800311B0E03F0010389
:10110000FB60FB6801331846FFF7C6FB0346013B53
:10111000FB6072E03B4BD3F80C311B0AC3F30803AE
:10112000FB606AE0374BD3F808311B0AC3F30803AE
:10113000FB6062E07B68344A934203D0334A9342B7
:101140000DD01AE02F4BD3F8203103F00F03FB60D2
:10115000F868FFF7A1FB0346013BFB6010E0294B59
:10116000D3F820311B0903F00303FB60F868FFF795
:1011700093FB0346013BFB6002E00023FB6000BFE2
:101180003BE07B68224A934203D0224A93420ED02E
:101190001DE01C4BD3F828311B0903F00303FB604F
:1011A000F868FFF779FB0346013BFB6012E0154B43
:1011B000D3F828311B0A03F00303FB60FB680433F8
:1011C0001846FFF769FB0346013BFB6002E0002382
:1011D000FB6000BF11E07B680F4A934206D1094BC8
:1011E000D3F8303103F00303FB6002E00023FB601F
:1011F00000BF02E00023FB6000BFFB681846103709
:10120000BD4680BD00400E408006160080162E00B0
:1012100090171A0090273000A009140080B485B000
:1012200000AF78600123FB737B6803F00F03BB60A2
:10123000BB68013B072B00F2C48001A252F823F0E7
:1012400061120000B7120000E7120000C313000093
:101250002D1300005D130000C31300008113000074
:101260005D4BD3F8943003F00703023B052B1ED8E7
:1012700001A252F823F000BF9D1200009712000057
:1012800091120000A3120000AF120000A91200008A
:101290000223FB730EE00323FB730BE00423FB73B9
:1012A00008E00B23FB7305E00C23FB7302E005232E
:1012B000FB7300BF88E0484BD3F8803003F007038E
:1012C000022B06D0042B07D0012B08D10323FB737C
:1012D00008E00223FB7305E00A23FB7302E001230D
:1012E000FB7300BF70E03C4BD3F8843003F007037E
:1012F000013B032B16D801A252F823F00D13000076
:10130000131300001F130000191300000323FB73C5
:101310000BE00223FB7308E00A23FB7305E00623BE
:10132000FB7302E00123FB7300BF4DE02A4BD3F8AF
:10133000883003F00703022B06D0042B07D0012BC3
:1013400008D10323FB7308E00223FB7305E00A23A3
:10135000FB7302E00123FB7300BF35E01E4B1B6FE4
:1013600003F00103002B04D0012B05D10923FB73EB
:1013700005E00723FB7302E00123FB7300BF23E0BA
:10138000154BD3F85C3103F03003102B0CD0102B2D
:1013900002D8002B05D010E0202B08D0302B09D02C
:1013A0000BE00123FB730BE00723FB7308E004232E
:1013B000FB7305E00823FB7302E00123FB7300BF0E
:1013C00002E00023FB7300BFFB7B18461437BD46C9
:1013D0005DF8047B704700BF00400E4080B58AB0C6
:1013E00000AF78600B46FB7003237B62032387F812
:1013F00023300023BB6100237B617B68112B19D153
:10140000FB78042B03D1FEF761FF78610BE0FB78DA
:10141000052B08D100F058F90246A44B9A4202D994
:1014200000F052F978617B69002B03D000217869C4
:1014300000F0C2FC7B6803F00F033B613B69013B9A
:10144000072B00F2298101A252F823F06D1400004D
:101450005F1500007115000099160000631500006B
:10146000091600009916000027160000FB78023BC1
:101470000A2B00F2138101A252F823F0A9140000F4
:10148000B5140000C1140000D31400009D16000024
:101490009D1600009D1600009D1600009D16000080
:1014A000E5140000F114000004237B62002387F898
:1014B000233023E003237B62012387F823301DE0E0
:1014C00002237B62022387F823307948FFF72AFA48
:1014D00014E001237B62032387F823307448FFF76D
:1014E00021FA0BE005237B62032387F8233005E014
:1014F00007237B62062387F8233000BF97F8233049
:10150000062B06D097F8233001220121184600F05F
:1015100089F9FFF705FBFFF71BFC7B69002B01D066
:10152000FFF7DAF9634A7B6A5367FEF761FEF860FA
:10153000FEF788FE03461846FFF7F4F9FFF7E4F9D3
:1015400003461946F868FFF70DFB7B69002B03D1B2
:101550000121002000F030FCFFF701FCA3E0564B16
:10156000BB61BB69002B01D0BB6900E0534BBB6181
:10157000BB69002B01D0BB6900E0514BBB61FB781C
:10158000013B092B00F28C8001A252F823F000BF2E
:10159000B9150000BF150000CF150000A11600000E
:1015A000A1160000DF150000A1160000A116000022
:1015B000A1160000FB1500000023FB6120E00122C2
:1015C0000121002000F02EF90223FB6118E0012226
:1015D0000121012000F026F90123FB6110E0FEF754
:1015E00031FE03461846FFF79DF9012202213548D6
:1015F000FFF726F90323FB6102E00423FB6100BF30
:10160000BB69FA691A604EE0FB78072B02D0092B00
:1016100004D048E0274B00221A6703E0254B012243
:101620001A6700BF3FE0FB78013B072B3AD801A2C5
:1016300052F823F055160000A5160000A51600006C
:101640006B160000A5160000A51600005B16000032
:101650007B1600000023FB6112E00122012104201F
:1016600000F0E0F80123FB610AE0012201210220E1
:1016700000F0D8F80223FB6102E00323FB6100BF06
:101680000C4BD3F85C3123F03002FB691B01094994
:101690001343C1F85C3106E000BF04E000BF02E084
:1016A00000BF00E000BF2837BD4680BD002D3101DE
:1016B0000148E80100400E4080400E4088400E4046
:1016C00084400E40B0400E4080B400AF034B1B6816
:1016D0001846BD465DF8047B704700BF0C00002033
:1016E00090B585B000AF78601120FFF797FD01221B
:1016F0000021022000F096F87B685B7883F00103FC
:10170000DBB2002B0DD07B689B7883F00103DBB24A
:10171000002B06D07B68DB7883F00103DBB2002B63
:1017200000BF0023FB607B681B7C022B01D10123DF
:10173000FB60224B5B6A23F001022049FB681343E4
:101740004B627B681B781A4608211D48FFF778F822
:101750007B689B88DB027A68527A1146174A0B43F2
:10176000D362164B1B6B03F07F627B68DB88DB0266
:1017700013437A68927A1A437B681B7ADB0142EA48
:1017800003047B681B7A1846FFF70CFA03460B4AE2
:10179000234313637B685B7B1A037B689B7B1B0182
:1017A00013437A68D27B1A437B681B7B1B04034973
:1017B00013434B6300BF1437BD4690BD00400E403D
:1017C00024400E4080B584B000AF78601120FFF750
:1017D00025FD124B9A6B124B13407A6812781A430C
:1017E0007B685B78DB021A437B689B781B061A4395
:1017F0007B68DB781B021343FB60084B9B6BFA682A
:101800009A4207D001220021002000F00BF8034A81
:10181000FB68936300BF1037BD4680BD00400E409B
:1018200080E4FFF880B588B000AF0346FB710B463B
:10183000BB7113467B71FB79042B00F2B88001A2C7
:1018400052F823F0A11800008F1800006B18000058
:10185000591800007D18000001237B6102233B61C1
:101860000123FB610023BB6125E004237B61082386
:101870003B610323FB610223BB611CE010237B61FE
:1018800020233B610523FB610423BB6113E040235C
:101890007B6180233B610723FB610623BB610AE078
:1018A0004FF480737B614FF400733B610923FB614C
:1018B0000823BB6100BFBB79002B5BD00023FB7307
:1018C000FB79022B11D1FFF789F90346002B0CD1CC
:1018D000394BDB6B0123FB73384B5B6A03F001036D
:1018E000012B02D10120FFF787F9344A7B69136687
:1018F00000BFB9693248FEF7BAFF0346002BF8D0A3
:101900007B79002B54D000BFF9692D48FEF7AFFF5B
:101910000346002BF8D0FB79022B49D1FB7B002B2F
:1019200046D0264B5B6A03F00103012B05D101224F
:101930002021022000F04AF903E00021022000F0FB
:10194000FBF8022000F03EF8B860012200210220DE
:10195000FFF768FFB968022000F06EF8174A7B694C
:10196000136600BFF9691648FEF781FF0346002B96
:10197000F8D01DE0114A3B69136600BF0F4BD3F846
:1019800090300121BA6901FA02F21340002BF5D11F
:101990007B79002B0CD000BF084BD3F8903001218D
:1019A000FA6901FA02F21340002BF5D100E000BF02
:1019B0002037BD4680BD00BF00300E4000400E40C5
:1019C00090400E4080B485B000AF0346FB71FB79B8
:1019D000013B032B23D801A252F823F0ED1900009C
:1019E000111A0000F9190000051A0000114B1B6ABA
:1019F000C3F30803FB6015E00E4B1B6903F07F0384
:101A0000FB600FE00B4B9B6903F07F03FB6009E079
:101A1000084BD3F89C30C3F30A03FB6002E00023B9
:101A2000FB6000BFFB6818461437BD465DF8047BB9
:101A3000704700BF00400E4080B584B000AF034641
:101A40003960FB71FB79013B032B6AD801A252F884
:101A500023F000BF651A0000E71A0000931A000087
:101A6000BD1A00003B68C3F308033B6000BF1A21A6
:101A70002E48FEF7FCFE0346002BF8D12C4B1B6AC8
:101A800023F4FF7323F0010329493A6813430B62DF
:101A900048E03B6803F07F033B6000BF1821234808
:101AA000FEF7E5FE0346002BF8D1214B1B6923F01E
:101AB0007F021F493B6813430B6133E03B6803F02F
:101AC0007F033B6000BF19211848FEF7D0FE034694
:101AD000002BF8D1164B9B6923F07F0214493B6819
:101AE00013438B611EE0124BD3F89030104B5B6AAE
:101AF00023F030030E4A43F0100353623B68DB09C6
:101B000003F00F031846FFF74DF8F860084B1A6B07
:101B1000084B13403A681A430549FB6813430B63AB
:101B200000E000BF00BF1037BD4680BD40410E4001
:101B300000400E4000F8FF0F80B584B000AF0346B0
:101B40000A46FB711346BB71FFF748F80346002BAA
:101B500003D14FF44003FB6016E0BB79202B04D087
:101B6000302B0AD0002B04D00BE04FF40003FB60B5
:101B70000AE04FF44003FB6006E04FF44003FB60D3
:101B800002E0104BFB6000BF00BF0F4BD3F890206A
:101B9000FB681340FA689A42F7D1FB6803F48003AC
:101BA000002B0AD0084BD3F8A03003F48063002B3D
:101BB00014BF01230023DBB200E0012318461037D5
:101BC000BD4680BDFF33E10700400E4080B582B0C6
:101BD00000AF0346FB710B46BB7113467B71FB796B
:101BE000022B00D016E0BB79002B07D00C4B4FF432
:101BF0008062C3F8A8200A4ABB7953667B79002B20
:101C000007D0BA79FB7911461846FFF795FF0346CE
:101C100001E000BF012318460837BD4680BD00BF64
:101C200000400E4080B483B000AFEFF310833B6000
:101C30003B687B6072B67B6818460C37BD465DF822
:101C4000047B704780B483B000AF78607B68002B62
:101C500000D162B600BF0C37BD465DF8047B70470B
:101C600080B487B000AFF860B9607A60FB6803F1B8
:101C70000473DA00BB6813449B007B617B697A685C
:101C80001A6000BF1C37BD465DF8047B704780B406
:101C900085B000AF786039607B6803F10473DA00C7
:101CA0003B6813449B00FB60FB681B6818461437B5
:101CB000BD465DF8047B704780B400AF064B1B68DF
:101CC00003F04003002B01D1012300E0002318465C
:101CD000BD465DF8047B70473C300E4080B500AFD8
:101CE000FFF7EAFF034683F00103DBB2002B08D1C4
:101CF00000BF12210448FFF7CAFF0346002BF8D1AA
:101D000000E000BF80BD00BF04300E4080B500AFD2
:101D1000FFF7E4FF034B5B681B0C03F00303DBB22C
:101D2000184680BD00300E4080B483B000AF7860AC
:101D3000044A7B68D36200BF0C37BD465DF8047B64
:101D4000704700BF00300E4080B400AF034B5B6AA9
:101D50001846BD465DF8047B704700BF00300E405A
:101D600080B400AF034B00225A6300BFBD465DF84C
:101D7000047B704700300E4080B400AF044B4AF63D
:101D8000E8525A6300BFBD465DF8047B704700BF50
:101D900000300E4080B483B000AF0346FB71FB7986
:101DA000C3F10203102202FA03F318460C37BD46B2
:101DB0005DF8047B7047000080B584B000AF7860A8
:101DC0000B46FB70FFF778FF034683F00103DBB29D
:101DD000002B28D17B68002B0FD1154BD3F8003195
:101DE0001B0A03F01F030133BB60FEF72BFA024608
:101DF000BB6802FB03F3FB6001E07B68FB600D4BFB
:101E00001B78002B09D0FB680B4A934205D8FB785E
:101E10001946022000F012F806E0FB78194600206F
:101E200000F00CF800E000BF1037BD4680BD00BFD9
:101E300000400E401C020020002D310190B587B0FB
:101E400000AF03460A46FB711346BB71FFF734FF30
:101E5000034683F00103DBB2002B31D1FFF756FFBD
:101E600003461A46FB7993422CD0184BD3F8003125
:101E70001B0A03F01F0301337B61FEF7E3F93861AE
:101E80003B697A6902FB03F3FB60FB79022B03D108
:101E900002213869FEF766FE0D4CFB791846FFF704
:101EA00079FF03462361BB79002B01D0FFF716FFB2
:101EB000FB79002B07D100213869FEF753FE02E0C1
:101EC00000BF00E000BF1C37BD4690BD00400E4083
:101ED00000300E4080B400AF01231846BD465DF8C7
:101EE000047B704780B582B000AF0C4BDB6E0B4AB1
:101EF00043F08073D36600210948FFF7C8FE78607D
:101F00007B68002B03D0042000F0B0FC02E000202E
:101F100000F0ACFC00BF0837BD4680BD00300E406D
:101F20004C300E4080B48BB000AF01237B627B6AE3
:101F30001B053B62324BDB6C1B0A03F00F03FB619A
:101F4000304B1B881A462F4B1B8828335B081344E1
:101F500003F12801FB695A1C13469B001344B1FB93
:101F6000F3F3013BBB61BB697B6107233B613A69CA
:101F70007B69934228BF1346BB61BB691B06BB61EB
:101F80001F4BDB6C23F0EE62B9693B6A0B431C49C3
:101F90001343CB641C4BB3F90030002B29DB1A4BE5
:101FA000B3F90030FB81FA89FB8928335B081344BD
:101FB00003F12802FB6901335900FB6901335B0817
:101FC0000B44B2FBF3F3BB60BB687B6007233B6051
:101FD0003A687B68934228BF1346BB60BB681B010D
:101FE000BB60074B1B6D23F070020549BB681343B0
:101FF0000B6500BF2C37BD465DF8047B704700BF02
:1020000000300E40160200201A02002080B483B077
:1020100000AF78600B467B807B689AB2054B1A80D4
:10202000054A7B88138000BF0C37BD465DF8047BF2
:10203000704700BF160200201A02002080B483B04F
:1020400000AF0346FB71FB79002B02D0012B04D0BB
:1020500007E0074B074A9A6503E0054B064A9A6575
:1020600000BF00BF0C37BD465DF8047B704700BF62
:1020700000300E4077402057372110B780B485B02C
:1020800000AF0346FB710B46BB7113467B712D4BB2
:10209000D3F88031FB60BB79032B1DD801A252F825
:1020A00023F000BFB5200000BD200000C7200000C5
:1020B000D1200000FB68DBB2FB600FE0FB681B0A6D
:1020C000DBB2FB600AE0FB681B0CDBB2FB6005E0E7
:1020D000FB681B0EFB6001E000232CE07B79002BEA
:1020E00011D1FB681B03FB60FB6823F47043002BDA
:1020F00001D000231FE0144BDB6E23F47042124921
:10210000FB681343CB667B79012B13D1FB681B0360
:10211000FB60FB6823F47043002B01D000230AE02E
:10212000094BD3F8EC3023F470420749FB681343A2
:10213000C1F8EC30012318461437BD465DF8047B26
:10214000704700BFB081E00F00300E4080B489B00E
:1021500000AFF860B96011461A460B46FB71134692
:10216000BB710023FB610023BB61BB791B02FA79C1
:10217000002A01D0012200E0002213437B617B6929
:1021800040F2011293422AD0B3F5817F07D2012B8E
:1021900019D0012B47D3B3F5807F50D073E040F2C4
:1021A0000122934227D040F20122934203D8B3F593
:1021B000007F50D067E0B3F5407F58D040F2013245
:1021C000934224D05FE0364BD3F87431FB61FB6956
:1021D0001B0ADBB2BB61FB69DBB2FB6153E0304B36
:1021E000D3F87431FB61FB691B0EBB61FB691B0CEF
:1021F000DBB2FB6147E02A4BD3F87831FB61FB6926
:102200001B0ADBB2BB61FB69DBB2FB613BE0244B29
:10221000D3F87831FB61FB691B0EBB61FB691B0CBA
:10222000DBB2FB612FE01E4BD3F86C31FB61FB6925
:102230001B0ADBB2BB61FB69DBB2FB6123E0184B1D
:10224000D3F86C31FB61FB691B0EBB61FB691B0C96
:10225000DBB2FB6117E0124BD3F87031FB61FB6915
:102260001B0ADBB2BB61FB69DBB2FB610BE00C4B11
:10227000D3F87031FB61FB691B0EBB61FB691B0C62
:10228000DBB2FB6100BFFB68FA691A60BB68BA6920
:102290001A6000BF2437BD465DF8047B704700BF5D
:1022A000B081E00F80B584B000AF0346FB713E4BB8
:1022B0005B6B012B0CBF01230023FB73FFF75CFD5D
:1022C00000BF394B9B6F03F00103002BF9D1364B54
:1022D0001B6C03F00303BB60BB68002B04D001221E
:1022E0000D213248FFF7BCFCBB68DBB2FA799A4299
:1022F00008D1FB79002B53D100220D212B48FFF789
:10230000AFFC4DE0BB68032B02D0BB68002B20D193
:10231000FB79022B02D0FB79012B1AD14FF400205C
:10232000FFF702FD00BF204B9B6F03F00103002B62
:10233000F9D11D4B1B6C23F003031B4A43F001032F
:10234000136400BFFFF700FD034603F40023002BD6
:10235000F8D000BF144B9B6F03F00103002BF9D1A1
:10236000114B1B6C23F00302FB790F4913430B64E1
:1023700000BF0D4B9B6F03F00103002BF9D1FB79DC
:10238000002B14BF01230023DBB21A460D2107489E
:10239000FFF766FCFB7B002B03D0FFF7E1FC00E0BE
:1023A00000BF1037BD4680BD00300E4054300E4097
:1023B00080B584B000AF7860484B02229A63474BE7
:1023C0009B6B03F00F03022B01D0002381E0FFF78A
:1023D00081FD7B685B78012B02D07B685B78022BE8
:1023E0007B68DB884A2B02D80023FB6015E07B6802
:1023F000DB88B3F5FA7F03D24FF08053FB600CE02B
:102400007B68DB8840F6C312934203D84FF0005339
:10241000FB6002E04FF04053FB60304BDB6C23F07D
:10242000405323F001037A68B2F90C20002A01DB43
:10243000012100E00021FA680A4328491343CB64D4
:10244000264BD3F8EC30254A43F44073C2F8EC3005
:102450007B689A88224B1A80FFF744FD7B681B89B2
:102460001A467B68B3F90C3019461046FFF7CEFDCB
:102470007B689B88184600F08DF97B689B7B18462B
:10248000FFF7DCFD7B685B8801220121184600F024
:102490002BF8034683F00103DBB2002B01D00023AD
:1024A00017E00E4BDB6B0D4A43F48063D3637B680C
:1024B0005B781846FFF7F6FE7B689B7A202B01D1EC
:1024C000012300E000231A4605210648FFF7C8FB58
:1024D000012318461037BD4680BD00BF00300E40B6
:1024E000180200203C300E4090B595B000AF7860E7
:1024F0000B46FB701346BB700023FB6400237B6418
:1025000007F1240300221A605A609A6007F1180349
:1025100000221A605A609A6007F10C0300221A60C8
:102520005A609A6007F1080300210A461A800A4699
:102530009A707B68B3F5E16F06D37B6840F6B832DA
:10254000934201D8012300E0002387F8433097F835
:10255000433003F0010387F8433097F8433083F0AA
:102560000103DBB2002B01D000230AE17B68B3F545
:10257000E16F8CBF0123002387F8423097F8423087
:10258000002B0AD04FF4E163FB6440F6B8337B6460
:102590007A6CFB6CD31ABB6409E04FF49663FB645E
:1025A0004FF4E1637B647A6CFB6CD31ABB6497F8DD
:1025B0004230002B0BD0754BD3F868313B623B6A3D
:1025C0001B0E7B613B6A1B0CDBB23B620AE06F4B6C
:1025D000D3F868313B623B6A1B0ADBB27B613B6A22
:1025E000DBB23B626A4BDB6C1B0FDBB203F0030315
:1025F000DBB23B723B7A97F8422007F10C0107F1FE
:102600001800FFF7A3FD624BD3F8EC301B0ADBB2D6
:1026100003F00303DBB27B727C7A97F8422007F168
:102620000C03191D07F11803181D2346FFF78EFD33
:102630007A68FB6CD31A79693A6A8A1A02FB03F248
:10264000BB6CB2FBF3F3FB62FA6A3B6A1344FB62B6
:102650007A68FB6CD31AF968BA698A1A02FB03F22A
:10266000BB6CB2FBF3F37B627A6ABB6913447B6297
:102670007A68FB6CD31A3969FA698A1A02FB03F289
:10268000BB6CB2FBF3F3BB62BA6AFB691344BB6277
:10269000FA6A7B699A4213D8FA6A3B6A9A420FD364
:1026A000BA6A3B699A420BD8BA6AFB699A4207D365
:1026B0007A6AFB689A4203D87A6ABB699A4201D265
:1026C00000235EE0BB78002B12D0314BDB6D23F48E
:1026D000FE4323F00203FA6A1202134397F84220E2
:1026E000002A01D0022200E0002229491343CB65D1
:1026F000FB78002B44D0397A97F8423000221846F4
:10270000FFF7BCFC034683F00103DBB2002B01D0D2
:10271000002336E0797A97F8423001221846FFF715
:10272000ADFC034683F00103DBB2002B01D0002394
:1027300027E07B6AFB63BB6ABB63BA6BFB6B9342AC
:1027400038BF13467B627B6A7B63E7233B633A6B4C
:102750007B6B934228BF13467B620D4B5B6E23F469
:10276000FF7323F001037A6A5200134397F8422063
:10277000002A01D0012200E00022054913434B66E4
:10278000012318465437BD4690BD00BFB081E00F0D
:1027900000300E4080B584B000AF78600023FB604D
:1027A000314B1B6F03F00703BB602F4BDB6C03F057
:1027B0000103002B14D0BB68012B11D97B68132BAC
:1027C00002D80423FB6037E07B68132B05D97B68B4
:1027D000272B02D80823FB602EE01023FB602BE0A0
:1027E000214BDB6C03F00103002B14D1BB68012BE0
:1027F00011D87B68092B02D80423FB601CE07B689E
:10280000092B05D97B68132B02D80823FB6013E042
:102810001023FB6010E0144BDB6C03F00103002B72
:102820000AD0BB68012B07D87B68272B02D8082366
:10283000FB6001E01023FB60FB68013BFB60FB6871
:102840001A02FB681B031343FB60074BDB6C23F48A
:102850007F420549FB681343CB64FFF763FB00BF6E
:102860001037BD4680BD00BF00300E4080B584B03B
:1028700000AF0346FB7100210E48FFF708FAF8602D
:10288000FB68002B02D1FB79012B01D9FB68002BDF
:1028900000BF094B1B6F23F00702FB790649134366
:1028A0000B67064B1B881846FFF774FF00BF1037F5
:1028B000BD4680BD4C300E4000300E401802002056
:1028C00080B487B000AFF860B9607A60FB6803F14C
:1028D0000473DA00BB6813449B007B617B697A68F0
:1028E0001A6000BF1C37BD465DF8047B704780B49A
:1028F00085B000AF786039607B6803F1C063FB602E
:10290000FB683A681A6000BF1437BD465DF8047B67
:10291000704780B485B000AF786039607B6803F1A0
:102920008063FB60FB683A681A6000BF1437BD46DD
:102930005DF8047B704780B584B000AFF860B96083
:102940007A60B968F868FFF7E4FF7968F868FFF71C
:10295000CEFF00BF1037BD4680BD000080B483B0FD
:1029600000AF7860044A7B68C2F8243400BF0C379B
:10297000BD465DF8047B704700A0004080B582B082
:1029800000AF03463960FB71FB79002B1CD0FB794B
:10299000012B19D0FB79022B16D0FB79032B13D016
:1029A000FB79042B10D0FB79052B0DD0FB79062B7E
:1029B0000AD0FB79072B07D0FB79082B04D0FB79D1
:1029C000092B01D0FB790A2BFA7913465B001344DB
:1029D0001B010C3303F1804303F5204301213A68C6
:1029E00001FA02F211461846FFF793FF00BF0837BD
:1029F000BD4680BD80B582B000AF03463960FB7133
:102A0000FB79002B1CD0FB79012B19D0FB79022B11
:102A100016D0FB79032B13D0FB79042B10D0FB7954
:102A2000052B0DD0FB79062B0AD0FB79072B07D09D
:102A3000FB79082B04D0FB79092B01D0FB790A2BF9
:102A4000FA7913465B0013441B010C3303F18043F6
:102A500003F5204301213A6801FA02F211461846B3
:102A6000FFF745FF00BF0837BD4680BD80B586B083
:102A700000AFB9607A601A460346FB731346BB7316
:102A800000237B61FB7B002B1CD0FB7B012B19D02F
:102A9000FB7B022B16D0FB7B032B13D0FB7B042B81
:102AA00010D0FB7B052B0DD0FB7B062B0AD0FB7BCC
:102AB000072B07D0FB7B082B04D0FB7B092B01D015
:102AC000FB7B0A2B7B68072B0ED87B689B000F22B1
:102AD00002FA03F1FA7B7B689B0002FA03F31A46C1
:102AE0002B48FFF728FF10E07B68083B7B617B6980
:102AF0009B000F2202FA03F1FA7B7B699B0002FA2A
:102B000003F31A462348FFF716FF7B68072B10D8FC
:102B10007B689B00032202FA03F1BB6803F0030207
:102B20007B689B0002FA03F31A461B48FFF703FF7A
:102B30000FE07B699B00032202FA03F1BB6803F0FC
:102B400003027B699B0002FA03F31A461348FFF75E
:102B5000F2FEBB7B1A4679681148FFF7B1FE97F881
:102B600020301A4679680F48FFF7AAFE01227B68D9
:102B700002FA03F31846FFF7F1FE97F824301A46DD
:102B800079680948FFF79CFE00BF1837BD4680BD35
:102B900000A4004004A4004008A400400CA400408D
:102BA00010A4004014A4004028A4004080B584B0C4
:102BB00000AFB9607B600346FB731346BB73FB7BBE
:102BC000002B1CD0FB7B012B19D0FB7B022B16D0DA
:102BD000FB7B032B13D0FB7B042B10D0FB7B052B43
:102BE0000DD0FB7B062B0AD0FB7B072B07D0FB7B92
:102BF000082B04D0FB7B092B01D0FB7B0A2BBB7B72
:102C0000002B0DD07B68002B05D0FB7BB9681846E4
:102C1000FFF7F0FE04E0FB7BB9681846FFF7AEFE55
:102C2000BB68072B20D82E49FA7B13465B00134460
:102C30001B010B4404331A68BB689B000F2101FA87
:102C400003F3DB431340B97BBA68920001FA02F246
:102C500011462348FA7B194313465B0013441B01BA
:102C600003440433196025E01D49FA7B13465B00D9
:102C700013441B010B4408331A68BB6803F18043FB
:102C8000083B9B000F2101FA03F3DB4302EA030137
:102C9000BA7BBB6803F18043083B9B0002FA03F355
:102CA0000F48FA7B194313465B0013441B0103448E
:102CB00008331960BB7B002B0DD17B68002B05D03E
:102CC000FB7BB9681846FFF795FE04E0FB7BB9680B
:102CD0001846FFF753FE00BF1037BD4680BD00BF4A
:102CE00000A0004080B487B000AFF860B9607A609F
:102CF000FB6803F10473DA00BB6813449B007B613B
:102D00007B697A681A6000BF1C37BD465DF8047B9A
:102D10007047000080B582B000AF0346FB71FB79BD
:102D20001A4600210348FFF7DDFF00BF0837BD4604
:102D300080BD00BF0020044080B483B000AF786045
:102D40007B681B78002B01D0012200E000227B6809
:102D50005B78002B01D0042300E0002313437A6842
:102D60009278002A01D0102200E0002213437A68F2
:102D7000D278002A01D0202200E000221A437B688A
:102D80001B791B021A437B685B791B0313437A6828
:102D90009279002A02D04FF4004200E000221A4348
:102DA0007B68DB791B0413437A68127A002A02D00D
:102DB0004FF4003200E00022044913430B6000BFCF
:102DC0000C37BD465DF8047B704700BF002004400F
:102DD00080B483B000AF78600B46FB70FB7863F083
:102DE0007F03DBB21A467B689A6500BF0C37BD468D
:102DF0005DF8047B7047000080B586B000AFF860D6
:102E0000B9607A60FB70BB68002B03D12448FEF7E1
:102E100021F8B860FB78202B0CD0202B02DC002B93
:102E200005D03AE0402B08D0602B09D035E01023C4
:102E30007B6108E008237B6105E006237B6102E0FB
:102E400004237B6100BFBB685A017B69796801FB81
:102E500003F35B0813443B617B697A6802FB03F36D
:102E60003A69B2FBF3F33B613B69203B3B613B6951
:102E7000DB003B613A690B4B13403B61FB681B680D
:102E800023F06002FB681A60FB681A68FB781A433B
:102E9000FB681A60FB683A695A611837BD4680BD05
:102EA00040410500F8FF7F0080B485B000AF786036
:102EB0000B46FB707B68114A93420AD07B68104A2C
:102EC000934206D07B680F4A934202D07B680E4A39
:102ED000934200BFFB78DB43FB60FB6803F0050314
:102EE000FB60FB685A007B68DA60FA787B68DA601E
:102EF00000BF1437BD465DF8047B704700000140F9
:102F00000004014000080140000C014080B582B07F
:102F100000AF786039607B68334A93420AD07B689F
:102F2000324A934206D07B68314A934202D07B6892
:102F3000304A934200BF786800F05EF83B689B7CA3
:102F4000002B05D07B681B6843F080427B681A60C9
:102F50003B68DB7C002B05D03B681B7D19467868FD
:102F6000FFF736FF3B685B7B1A463B681B8A1343BF
:102F70003A68D2891A437B685A603B6859683B6853
:102F80009A683B681B7B7868FFF736FF3B685B7D80
:102F9000002B05D07B681B6843F480327B681A6085
:102FA0003B689B7D1B0703F0E0423B68DB7D1B0514
:102FB00003F4E0031A437B681A667B685B6F23F0B7
:102FC00030027B685A677B685B6F3A68127E1A43EF
:102FD0007B685A673B681B781A467B68DA6000BFDB
:102FE0000837BD4680BD00BF00000140000401401D
:102FF00000080140000C014080B483B000AF78604D
:103000007B682C4A93420AD07B682B4A934206D0B5
:103010007B682A4A934202D07B68294A934200BFC8
:103020007B6840F6AA62DA607B6800221A607B68DF
:1030300041F205025A607B6800229A607B68002298
:103040005A617B680022DA647B681E4A9A647B6856
:1030500000221A667B6800225A677B6800229A6702
:103060007B680022DA677B68124A93420BD07B6848
:10307000114A934207D07B68104A934203D07B6881
:103080000F4A934202D17B6800221A657B680022B6
:103090009A657B68084A934203D07B68084A93424A
:1030A00002D17B680022DA6500BF0C37BD465DF8AF
:1030B000047B70470000014000040140000801400B
:1030C000000C0140F9FF010080B483B000AF7860CC
:1030D00000BF7B681B6903F08003002BF9D07B687D
:1030E000DB69DBB218460C37BD465DF8047B7047E0
:1030F00080B483B000AF78600B46FB7000BF7B6884
:103100001B6903F04003002BF9D0FA787B685A63FF
:1031100000BF0C37BD465DF8047B704780B483B0B8
:1031200000AF0346FB7197F90730002B0BDBFB79EF
:1031300003F01F02074997F907305B09012000FAE5
:1031400002F241F8232000BF0C37BD465DF8047B36
:10315000704700BF00E100E080B483B000AF0346D9
:103160003960FB7197F90730002B0ADB3B68DAB254
:103170000C4997F907305201D2B20B4483F800236F
:103180000AE03B68DAB20849FB7903F00F03043B1D
:103190005201D2B20B441A7600BF0C37BD465DF81F
:1031A000047B704700E100E000ED00E080B582B0F4
:1031B00000AF78607B68013BB3F1807F01D30123CE
:1031C0000FE00A4A7B68013B536007214FF0FF3054
:1031D000FFF7C2FF054B00229A60044B07221A60DA
:1031E000002318460837BD4680BD00BF10E000E050
:1031F00080B584B000AF78601048FDF72BFE024622
:103200000F4BA3FB02239A097B6802FB03F3FB60CD
:1032100079680C4801F078FBFB68B3F1807F05D337
:103220006FF07F43FB60084801F06EFBF868FFF722
:10323000BDFF00BF1037BD4680BD00BF700002005B
:10324000D34D62108C550000A455000080B500AF2E
:10325000184B1B680133174A1360164B1B68B3F5F4
:103260007A7F07D9134B00221A60134B1B68013376
:10327000114A1360114B1B78012B18D1104B1B689E
:1032800001330F4A13600E4B1B68C82B0FD10B4B39
:1032900000221A700A4B00221A600A4B7F22C3F8E0
:1032A00024240A20FFF73AFF1220FFF737FF00BF60
:1032B00080BD00BF20020020240200200802002060
:1032C0002802002000A0004080B400AF034B1B6820
:1032D0001846BD465DF8047B704700BF2002002001
:1032E00080B582B000AF78607868FFF781FF00BFDB
:1032F0000837BD4680BD000080B582B000AF114BDD
:103300001B68114A1360FFF7DFFF02460D4B1A607E
:10331000FDF73CFA38603B68012B02D10023FB71BA
:103320000AE0084B1A68084B1B689A4202D0032334
:10333000FB7101E00623FB71FB7918460837BD4697
:1033400080BD00BF2C0200203002002080B400AFFE
:1033500000BFBD465DF8047B704780B485B000AF08
:10336000786039607B6803F1C063FB60FB683A6892
:103370001A6000BF1437BD465DF8047B704780B407
:1033800085B000AF786039607B6803F18063FB60D3
:10339000FB683A681A6000BF1437BD465DF8047BCD
:1033A000704780B582B000AF03463960FB71FB798E
:1033B000002B1CD0FB79012B19D0FB79022B16D0E6
:1033C000FB79032B13D0FB79042B10D0FB79052B51
:1033D0000DD0FB79062B0AD0FB79072B07D0FB79A0
:1033E000082B04D0FB79092B01D0FB790A2BFA7941
:1033F00013465B0013441B010C3303F1804303F5B8
:10340000204301213A6801FA02F211461846FFF7FB
:10341000B6FF00BF0837BD4680BD80B582B000AFA3
:1034200003463960FB71FB79002B1CD0FB79012B23
:1034300019D0FB79022B16D0FB79032B13D0FB7923
:10344000042B10D0FB79052B0DD0FB79062B0AD06D
:10345000FB79072B07D0FB79082B04D0FB79092BCC
:1034600001D0FB790A2BFA7913465B0013441B0148
:103470000C3303F1804303F5204301213A6801FA3C
:1034800002F211461846FFF768FF00BF0837BD4635
:1034900080BD80B582B000AF7860786800F004F835
:1034A00000BF0837BD4680BD80B582B000AF7860F0
:1034B0000C4B1B78184600F017F8786800F070F88D
:1034C000084B1B780133DAB2064B1A70054B1B7898
:1034D000042B02D9034B00221A7000BF0837BD46E7
:1034E00080BD00BF3402002080B582B000AF03462B
:1034F000FB71FB79042B4ED801A252F823F000BFD8
:103500007D35000063350000493500002F3500008F
:103510001535000005210520FFF743FF0621052092
:10352000FFF73FFF07210520FFF73BFF33E00521B1
:103530000520FFF772FF06210520FFF732FF072164
:103540000520FFF72EFF26E005210520FFF729FFC4
:1035500006210520FFF761FF07210520FFF721FF66
:1035600019E005210520FFF758FF06210520FFF788
:1035700054FF07210520FFF714FF0CE0052105206B
:10358000FFF70FFF06210520FFF70BFF072105209E
:10359000FFF743FF00BF00BF0837BD4680BD00BF37
:1035A00080B584B000AF7860184B1B78002B02D137
:1035B0003B79FB7321E0154B1B78012B02D17B7902
:1035C000FB731AE0114B1B78022B16D00F4B1B78A4
:1035D000032B02D1BB79FB730FE00C4B1B78042B40
:1035E00002D1FB79FB7308E0094801F08DF9094B22
:1035F000094A6621094800F051FEFB7B184600F09D
:103600000FF800BF1037BD4680BD00BF3402002058
:10361000E05500000C56000028560000105600002F
:1036200080B582B000AF0346FB71FB79092B00F235
:10363000C18001A252F823F06136000083360000F9
:10364000A5360000C7360000E93600000B37000041
:103650002D3700004F37000071370000933700000E
:1036600008210020FFF79DFE09210020FFF799FEA9
:1036700006210020FFF795FE07210020FFF791FEAD
:1036800098E008210020FFF7C8FE09210020FFF77D
:1036900088FE06210020FFF784FE07210020FFF7A7
:1036A00080FE87E008210020FFF77BFE0921002033
:1036B000FFF7B3FE06210020FFF773FE072100206D
:1036C000FFF76FFE76E008210020FFF7A6FE092134
:1036D0000020FFF7A2FE06210020FFF762FE07216F
:1036E0000020FFF75EFE65E008210020FFF759FE8D
:1036F00009210020FFF755FE06210020FFF78DFE6F
:1037000007210020FFF74DFE54E008210020FFF7BD
:1037100084FE09210020FFF744FE06210020FFF768
:103720007CFE07210020FFF73CFE43E0082100203B
:10373000FFF737FE09210020FFF76FFE062100206A
:10374000FFF76BFE07210020FFF72BFE32E0082178
:103750000020FFF762FE09210020FFF75EFE062130
:103760000020FFF75AFE07210020FFF71AFE21E094
:1037700008210020FFF715FE09210020FFF711FEA8
:1037800006210020FFF70DFE07210020FFF745FE70
:1037900010E008210020FFF740FE09210020FFF77C
:1037A00000FE06210020FFF7FCFD07210020FFF7A7
:1037B00034FE00BF00BF0837BD4680BD80B500AFF6
:1037C00001211748FDF7E0FA002304220521052016
:1037D000FFF7ECF90023042206210520FFF7E6F9A4
:1037E0000023042207210520FFF7E0F9002304222B
:1037F00008210020FFF7DAF9002304220921002024
:10380000FFF7D4F90023042206210020FFF7CEF9A8
:103810000023042207210020FFF7C8F900BF80BD64
:1038200000350A0080B500AFFFF7C8FF00BF80BDBC
:1038300080B582B000AF78607868FFF72AFE00BFDD
:103840000837BD4680BD80B483B000AF78600023E8
:1038500018460C37BD465DF8047B704780B483B0D2
:1038600000AF7860FEE780B483B000AF7860396065
:103870003B684FF400525A60002318460C37BD468F
:103880005DF8047B704780B400AF01231846BD4645
:103890005DF8047B704780B483B000AF786001238B
:1038A00018460C37BD465DF8047B704780B483B082
:1038B00000AF786039604FF0FF3318460C37BD46D3
:1038C0005DF8047B704780B485B000AFF860B960E4
:1038D0007A60002318461437BD465DF8047B7047B4
:1038E00080B586B000AFF860B9607A6000237B6174
:1038F0000FE000F091F938613B69B3F1FF3F0ED062
:10390000BB685A1CBA603A69D2B21A707B6901333B
:103910007B617B685A1E7A60002BEAD100E000BF11
:103920007B69002B02DC4FF0FF3300E07B69184617
:103930001837BD4680BD000080B485B000AF786008
:103940000B4B1B68002B02D1094B0A4A1A60084B2B
:103950001B68FB60064B1A687B681344044A1360BB
:10396000FB6818461437BD465DF8047B704700BFFE
:10397000380200206002002080B586B000AFF860F9
:10398000B9607A6000237B6109E0BB685A1CBA60A9
:103990001B78184600F080F97B6901337B617A69F6
:1039A0007B689A42F1DB7B6818461837BD4680BDBC
:1039B00080B483B000AF0346FB7197F90730002B4A
:1039C0000BDBFB7903F01F02074997F907305B090E
:1039D000012000FA02F241F8232000BF0C37BD4657
:1039E0005DF8047B704700BF00E100E080B483B065
:1039F00000AF0346FB7197F90730002B0CDBFB7916
:103A000003F01F02074997F907305B09012000FA0C
:103A100002F2603341F8232000BF0C37BD465DF849
:103A2000047B704700E100E080B483B000AF7860B1
:103A300039607B683A689A6400BF0C37BD465DF810
:103A4000047B704780B483B000AF786039607B68D6
:103A5000DA6C3B68DB431A407B68DA6400BF0C37E2
:103A6000BD465DF8047B704780B483B000AF7860DA
:103A700039607B68DA6C3B681A437B68DA6400BFA4
:103A80000C37BD465DF8047B7047000080B500AF81
:103A900004210248FFF7D6FF00BF80BD00000140AF
:103AA00080B500AF04210248FFF7DEFF00BF80BDF4
:103AB0000000014098B500AF144B1B6903F0800370
:103AC000002B20D0124B1B68072B1ADC114B1C68F3
:103AD0000E48FFF7F9FA03461A460F4B1A550D4BDD
:103AE0001B6801330B4A1360094B1B680133084AFA
:103AF0001360084B1B68082B05D1064B00221A6087
:103B000001E0FFF7C3FF00BF98BD00BF0000014008
:103B100044020020400200204802002080B483B00C
:103B200000AF78607B68002B03D0064B01221A702F
:103B300002E0044B00221A7000BF0C37BD465DF84E
:103B4000047B704750020020B0B588B000AF01215F
:103B50002A48FDF719F901212948FDF715F9012334
:103B6000042200210020FFF721F801230222012175
:103B70000020FFF71BF8234BFB61234B3C461D46FF
:103B80000FCD0FC495E8070084E8070001211F4806
:103B9000FDF7FAF800233B703B461946F869FFF73A
:103BA000B5F9FB6903225A67FB699B6F23F4F8534D
:103BB00023F01F03FA69936704211248FFF734FFCB
:103BC0000C20FFF713FF04210E48FFF74DFF0C20D8
:103BD000FFF7EEFE0521F869FFF766F90C4B1B684D
:103BE000986800230222002100F0A6FE094B012262
:103BF0001A7000BF2037BD46B0BD00BF4041050070
:103C000000350A0000000140385600000042040060
:103C1000140000205102002080B582B000AF4FF0A8
:103C2000FF337B60184B1B7883F00103DBB2002B62
:103C300001D0FFF789FFFDF7F5FF3860134B1B68D4
:103C4000002B18DD124B1B68124AD35CDBB27B6081
:103C50000F4B1B6801330E4A13600D4B1B68082B7A
:103C600002D10B4B00221A60084B1B68013B074A2C
:103C70001360FFF715FF3868FDF7E4FF7B6818460F
:103C80000837BD4680BD00BF51020020440200201D
:103C90003C0200204802002080B582B000AF0346FD
:103CA000FB710F4B1B7883F00103DBB2002B01D0BB
:103CB000FFF74AFF0B4B1B78002B06D0FB790A2B32
:103CC00003D10D210848FFF713FAFB79194606487E
:103CD000FFF70EFAFB7918460837BD4680BD00BFD6
:103CE00051020020500200200000014080B582B047
:103CF00000AFFFF701FB0346FB7100F027F8034616
:103D00003B60FB79062BF4D801A252F823F000BFE8
:103D10002D3D00002D3D00002D3D0000433D0000E5
:103D2000F33C0000F33C0000F33C0000FB79022B65
:103D300002D10323FB7101E0FCF730FD0323FB718B
:103D400003E03868FFF774FD00BFD2E780B483B0AA
:103D500000AF1A4B1B691B0ADBB203F00F03DBB287
:103D6000FB70164B1B691B0BDBB203F00703DBB2C6
:103D7000BB70124B1B691B0CDBB203F00F03DBB2F1
:103D80007B700E4B1B691B0DDBB203F00303DBB230
:103D90003B703B687B6000233A7962F307037A79D2
:103DA00062F30F23BA7962F31743FA7962F31F6360
:103DB00018460C37BD465DF8047B70470020044070
:103DC00080B485B000AF0346FB71FB79032B2BD881
:103DD00001A252F823F000BFE93D0000F93D0000C8
:103DE000093E0000193E0000144B1B691B0DDBB29D
:103DF00003F00303FB7319E0104B1B691B0CDBB2D0
:103E000003F00F03FB7311E00C4B1B691B0BDBB2C0
:103E100003F00703FB7309E0084B1B691B0ADBB2C5
:103E200003F00F03FB7301E00023FB73FB7B1846D9
:103E30001437BD465DF8047B704700BF0020044086
:103E400080B483B000AF03463960FB7197F9073047
:103E5000002B0ADB3B68DAB20C4997F907305201B4
:103E6000D2B20B4483F800230AE03B68DAB2084977
:103E7000FB7903F00F03043B5201D2B20B441A76D4
:103E800000BF0C37BD465DF8047B704700E100E0E1
:103E900000ED00E080B400AF044BDB6C1B0EDBB226
:103EA0001846BD465DF8047B704700BFB081E00F47
:103EB00080B485B000AF786039607B6803F1C0637F
:103EC000FB60FB683A681A6000BF1437BD465DF8B6
:103ED000047B704780B485B000AF786039607B6840
:103EE00003F18063FB60FB683A681A6000BF143717
:103EF000BD465DF8047B704780B582B000AF0346D5
:103F00003960FB71FB79002B1CD0FB79012B19D098
:103F1000FB79022B16D0FB79032B13D0FB79042BF2
:103F200010D0FB79052B0DD0FB79062B0AD0FB793D
:103F3000072B07D0FB79082B04D0FB79092B01D084
:103F4000FB790A2BFA7913465B0013441B010C33EF
:103F500003F1804303F5204301213A6801FA02F29C
:103F600011461846FFF7B6FF00BF0837BD4680BDB3
:103F700080B582B000AF03463960FB71FB79002B3E
:103F80001CD0FB79012B19D0FB79022B16D0FB79C1
:103F9000032B13D0FB79042B10D0FB79052B0DD00C
:103FA000FB79062B0AD0FB79072B07D0FB79082B6E
:103FB00004D0FB79092B01D0FB790A2BFA7913463F
:103FC0005B0013441B010C3303F1804303F52043D2
:103FD00001213A6801FA02F211461846FFF768FF1C
:103FE00000BF0837BD4680BD80B582B000AF1C4B16
:103FF00001225A64FFF74EFF0346FB71FB79002B49
:104000000CD1184B4AF6E8521A60174B1B68164A37
:1040100043F004031360134B00221A60FB79012B59
:1040200005D8124B1B68114A43F400531360104B20
:104030001B6A23F444130E4A43F488131362084B9B
:104040001B68074A43F4807313600A4B1B68094AD4
:1040500043F4F843136000BF0837BD4680BD00BF7E
:1040600000000E4090310E4098310E4064310E40F9
:1040700000400E40A4310E4080B483B000AF7860A1
:10408000044A7B68136100BF0C37BD465DF8047BB2
:10409000704700BF0020044080B483B000AF786058
:1040A00039607B683A685A6100BF0C37BD465DF8DD
:1040B000047B704780B483B000AF78607B68DB68B6
:1040C00018460C37BD465DF8047B7047B0B58EB01E
:1040D00000AFFFF789FF2F4B07F120040FCB84E8D7
:1040E0000F00002387F8203007F120031846FEF761
:1040F0005FF9294B07F10C041D460FCD0FC42B6847
:1041000023804FF4A6737B8207F10C031846FDF75A
:10411000E7FA012201210220FDF784FB042111208E
:10412000FDF75CF9FFF710FD0120FFF7F7FC012018
:10413000FFF7D6F8FFF776FBFCF71EFBFFF706F953
:10414000164A3B1D92E803001860043319800233BD
:104150000A0C1A703B1D7B6310220021786B00F063
:1041600015FD3863386B00F021F800211220FFF7AD
:1041700067FE01210A20FFF763FE02214FF0FF30A6
:10418000FFF75EFEFFF7B2FD054B064A3D210648EC
:1041900000F084F868560000785600008C56000045
:1041A00054560000A45600005856000080B586B052
:1041B00000AF78601A4A07F10C0307CA03C31A70EC
:1041C0000F233B740123FB74164B1B68BB60492310
:1041D0003B7207F108031846FDF7F4FA01220121AA
:1041E0000020FDF71FFB01210F48FCF7CDFD022148
:1041F0000E48FDF7F3F801210D48FCF7C5FD07F166
:104200000C031846FEF798FD7B681846FFF734FF4D
:104210000120FEF77FFD00BF1837BD4680BD00BFFF
:1042200094560000A056000030253E0005002400F2
:10423000A009140080B582B000AF1748FFF73AFF1D
:10424000786079681448FFF727FF7B6803F0100354
:10425000002B0CD005210520FFF78AFE0621052042
:10426000FFF786FE07210520FFF782FE10E07B683E
:1042700003F00103002B0BD005210520FFF73CFEC6
:1042800006210520FFF738FE07210520FFF734FE41
:1042900000BF0837BD4680BD008001401FB51C46E9
:1042A000094B1B680546D86852B1084B0091CDE90F
:1042B000013207492B46224600F022F800F03CFD6F
:1042C000044B1A46F2E700BF14000020A956000074
:1042D000B6560000E456000008B5074B044613B17B
:1042E0000021AFF30080054B1868836A03B198473B
:1042F0002046FFF7B3FA00BF00000000E8560000B8
:104300000EB403B5014603AB054853F8042B00680F
:10431000019300F05DF802B05DF804EB03B0704764
:104320001400002070B50D4E0D4CA41BA4100025E8
:10433000A54209D10B4E0C4C01F008F9A41BA410A6
:104340000025A54205D170BD56F8253098470135A6
:10435000EEE756F8253098470135F2E7E4010020F2
:10436000E4010020E4010020E801002002440346AB
:10437000934200D1704703F8011BF9E79368013BB2
:10438000002B10B4936008DA9469A34201DB0A2978
:1043900003D15DF8044B00F00FBC1368581C10608B
:1043A000197008465DF8044B7047F8B506460F468D
:1043B0001446D518AC4201D1002007E03A4614F863
:1043C000011B3046FFF7DAFF431CF3D1F8BD0000B4
:1043D0002DE9F04F9DB00C4617460393064618B1E1
:1043E00083690BB900F0A0FD7B4B9C4257D17468E8
:1043F000A38918075DD52369002B5AD000230993A0
:1044000020238DF8293030238DF82A304FF0010B0E
:10441000B846454615F8013B0BB1252B54D1B8EBF6
:10442000070A0BD053463A4621463046FFF7BDFFF8
:10443000013000F0C280099B5344099398F8003082
:10444000002B00F0BA8000234FF0FF32CDE90523A6
:10445000049307938DF853301A93A846052218F851
:10446000011B5E4800F06CFE049B78BBD90644BF7C
:1044700020228DF853201A0744BF2B228DF8532099
:104480002A782A2A2AD0079AA84600200A254146D7
:1044900011F8013B303B092B69D960B324E0504B44
:1044A0009C4201D1B468A3E74E4B9C4208BFF4681C
:1044B0009EE72146304600F0D1FB00289ED04FF009
:1044C000FF301DB0BDE8F08FA846A2E7434A801A2E
:1044D0000BFA00F0184304904546BEE7039A111DFD
:1044E00012680391002A01DB079204E0524243F074
:1044F00002030792049398F800302E2B0ED198F8FF
:1045000001302A2B38D1039B1A1D1B680392002B04
:10451000B8BF4FF0FF3308F102080593324D98F809
:1045200000100322284600F00BFE40B14023401B40
:1045300003FA00F0049B034308F10108049398F880
:1045400000102A488DF82810062208F1010700F013
:10455000F7FD002837D0264B1BBB039B073323F006
:10456000070308330393099B4B44099350E705FB6A
:104570000232012088468AE7002308F101080593EA
:1045800019460A25404610F8012B303A092A03D96A
:10459000002BC3D00591C1E705FB01210123804613
:1045A000F0E703AB00932246124B04A93046AFF369
:1045B0000080B0F1FF3F8146D5D1A3895B063FF56E
:1045C0007EAF09987DE703AB00932246094B04A90F
:1045D000304600F087F8ECE740570000EC5600004A
:1045E0006057000020570000F2560000F656000009
:1045F00000000000AB4300002DE9F04791461F4644
:104600008A680B69DDF820809342B8BF1346C9F869
:10461000003091F8432006460C4612B10133C9F828
:1046200000302368990642BFD9F800300233C9F838
:104630000030256815F0060507D104F1190AE36872
:10464000D9F800209B1AAB4228DC94F8433022684A
:10465000003318BF012392062DD404F143023946DA
:104660003046C047013020D02368E568D9F80020E3
:1046700003F00603042B08BFAD1AA36822690CBF20
:1046800025EAE57500259342C4BF9B1AED184FF04B
:1046900000091A344D451AD1002008E00123524682
:1046A00039463046C047013003D14FF0FF30BDE8F6
:1046B000F0870135C3E7E1185A1C302081F8430028
:1046C000224494F8451082F843100233C5E70123D1
:1046D000224639463046C0470130E6D009F101098B
:1046E000D8E700002DE9F04301F1430C0C46097EA8
:1046F00085B06E291746064698460C9A00F0B3809E
:1047000022D8632936D00AD8002900F0B980582968
:1047100000F0838004F1420584F8421032E06429FD
:1047200001D06929F6D120681368050603F1040158
:104730002AD51B681160002B03DA2D225B4284F816
:1047400043206F480A2239E0732900F09D8008D881
:104750006F2920D07029DDD1236843F02003236026
:1047600003E0752917D07829D4D1782384F845300F
:10477000644855E01368191D1B68116004F1420577
:1047800084F8423001238CE01B68116010F0400F68
:1047900018BF1BB2CFE713682568181D10602806E4
:1047A00001D51B6802E06806FBD51B8854486F29B9
:1047B00014BF0A220822002184F843106568A5600E
:1047C000002DC0F29580216821F004012160002BAA
:1047D0003DD1002D40F08E806546082A0BD123681C
:1047E000DB0708D5236962689A42DEBF302305F8EB
:1047F000013C05F1FF35ACEB05032361CDF80080EA
:104800003B4603AA21463046FFF7F6FE01304DD164
:104810004FF0FF3005B0BDE8F083394884F845100B
:10482000136821681D1D1B6815600A060BD5CA0791
:1048300044BF41F0200121601BB9226822F0200210
:1048400022601022B7E74D0648BF9BB2EFE76546EE
:10485000B3FBF2F102FB1133C35C05F8013D0B46DB
:104860000029F5D1B9E7136825686169181D106042
:1048700028061B6801D5196002E06A06FBD519807D
:10488000002323616546B9E71368191D11601D688F
:1048900062680021284600F053FC08B1401B6060AC
:1048A00063682361002384F84330A7E723692A461D
:1048B00039463046C0470130AAD023689B0713D43D
:1048C000E068039B9842B8BF1846A3E701234A4615
:1048D00039463046C04701309AD00135E368039A23
:1048E0009B1AAB42F2DCEBE7002504F11909F5E76E
:1048F000002BACD1037884F8423004F142056CE718
:10490000FD5600000E5700000FB40A4B13B51C688B
:1049100024B1A36913B9204600F006FB05AB049A45
:10492000A16801932046FFF753FD02B0BDE8104097
:1049300004B07047140000202DE9F7431D46514B89
:104940001E6804460F46904626B1B36913B9304637
:1049500000F0EAFA4C4B9C4252D17468B8F1020F55
:1049600006D0B8F1010F00F28980002DC0F28680D8
:104970002146304600F06EFA616B41B104F1440308
:10498000994202D0304600F02BFC002363630023E1
:10499000A3616360A3891B0603D52169304600F03B
:1049A0001FFCA38923F44A6323F00303B8F1020F29
:1049B000A3815DD001AB6A462146304600F041FB41
:1049C000A3891843A0812DBB009D284600F09EFBC3
:1049D000074600284ED1DDF80090A9453CD14FF0A4
:1049E000FF30A38943F00203A3810023A36004F1F5
:1049F0004703236023610123636103B0BDE8F083B3
:104A0000224B9C4201D1B468A8E7214B9C4208BFCD
:104A1000F468A3E7002FD8D0B36913B9304600F08B
:104A200083FAB8F1010F08BFA389276004BF43F0E0
:104A30000103A381A38913F00800C4E904751BD006
:104A400013F0010018BF6D424FF000031DBFA360BB
:104A5000A5611846A560D0E7484600F057FB074619
:104A60000028BCD0A38943F08003A3814D46D3E73F
:104A70000020B6E7A946F5E7A060BEE74FF0FF309B
:104A8000BBE700BF14000020405700006057000043
:104A9000205700002DE9F0478046894692461E4681
:104AA0000F463D46089815F8014B00F0C7FA204420
:104AB000437813F0080332D12D2C32D17C78BD1C01
:104AC0000122002E5DD0102E09D1302C07D12B7879
:104AD00003F0DF03582B4FD16C7810260235002AE3
:104AE00014BF4FF000416FF000410027B1FBF6FC0E
:104AF000384606FB1C1EA4F13003092B17D81C46B0
:104B0000A64223DD7B1C07D084451CD301D1A645DA
:104B100019DB00FB0640012715F8014BEBE72F4698
:104B2000BFE72B2C04BFBD1C7C781A46C9E7A4F153
:104B30004103192B01D8373CE2E7A4F16103192B9B
:104B400004D8573CDCE74FF0FF37E5E77B1C08D182
:104B50002223C8F800300846BAF1000F07D1BDE89B
:104B6000F08702B14042BAF1000FF8D00FB105F161
:104B7000FF39CAF80090F2E73024002EAFD10826A2
:104B8000ADE7302CA3D00A26A9E70000084B37B5C3
:104B90001C68084D236A002B08BF2B460093134660
:104BA0000A4601462046FFF775FF03B030BD00BF3F
:104BB0001400002078000020F8B50E461446054683
:104BC00018B183690BB900F0AFF9214B9C422AD18F
:104BD0006C68A369A360A3891A072ED5236963B300
:104BE00023692068C01A6369F6B28342374604DC41
:104BF0002146284600F02EF928BBA368013BA3609C
:104C000023685A1C22601E7063690130834204D0FD
:104C1000A389DB0719D50A2E17D12146284600F0B3
:104C200019F990B10FE00B4B9C4201D1AC68D0E771
:104C3000094B9C4208BFEC68CBE72146284600F0B0
:104C40000DF80028CCD04FF0FF373846F8BD00BF34
:104C5000405700006057000020570000324B70B5ED
:104C60001D6806460C4625B1AB6913B9284600F00D
:104C70005BF92E4B9C420FD16C68B4F90C309AB2A0
:104C800015072CD4D00611D40922326043F040031A
:104C9000A3814FF0FF303EE0254B9C4201D1AC6830
:104CA000EBE7244B9C4208BFEC68E6E7510712D5BE
:104CB000616B41B104F14403994202D0304600F0E7
:104CC0008FFA00236363A38923F02403A3810023C5
:104CD000636023692360A38943F00803A3812369E8
:104CE0004BB9A38903F42073B3F5007F03D02146A9
:104CF000304600F0CBF9A28912F001030CD000235A
:104D0000A36063695B42A361236953B9B4F90C30B2
:104D100013F08000BAD170BD920758BF6369A360D9
:104D2000F2E70020F7E700BF140000204057000022
:104D3000605700002057000008B5062000F030FB47
:104D40000120FEF78BFD00008A892DE9F041054620
:104D500010070C4658D44B68002B05DC0B6C002B5D
:104D600002DC0020BDE8F081E66A002EF9D00023C5
:104D700012F480522F68216A2B6032D0606DA389B3
:104D80005A0705D56368C01A636B0BB1236CC01A50
:104D900000230246E66A216A2846B047431CA389DD
:104DA00006D129681D2948D8294ACA40D60744D5C2
:104DB00000226260D9042269226004D5421C01D11C
:104DC0002B6803B96065616B2F600029C9D004F1BD
:104DD0004403994202D0284600F002FA00206063A2
:104DE000C0E701232846B047411CC8D12B68002BDF
:104DF000C5D01D2B01D0162B01D12F60B1E7A3899F
:104E000043F04003A381ADE70F69002FA9D09307BA
:104E10000E6808BF4B690F6018BF0023A6EB070898
:104E20008B60B8F1000F9CDD43463A46216AA66AC2
:104E30002846B047002806DCA38943F04003A3813D
:104E40004FF0FF308EE70744A8EB0008E9E700BF0A
:104E50000100402038B50B6905460C46DBB118B19E
:104E600083690BB900F060F80C4B9C4209D16C6867
:104E7000B4F90C307BB121462846BDE83840FFF735
:104E800063BF074B9C4201D1AC68F1E7054B9C42E4
:104E900008BFEC68ECE7002038BD00BF40570000B9
:104EA0006057000020570000002310B50446C0E9F9
:104EB0000033836081814366C281C0E9043383612A
:104EC000194608225C30FFF751FA054B6362054B27
:104ED000A362054BE362054B2462236310BD00BF50
:104EE000D9530000FB530000335400005754000016
:104EF000014900F085B800BF554E000070B54A1E4C
:104F0000682555430E4605F1740100F0B7F90446D3
:104F100040B10021C0E900160C30A06005F1680224
:104F2000FFF724FA204670BD836910B5044633BBF1
:104F3000C0E912330365124B124A1B688262984221
:104F400004BF0123836100F01FF86060204600F079
:104F50001BF8A060204600F017F80022E060042152
:104F60006068FFF7A1FF01220921A068FFF79CFFFD
:104F700002221221E068FFF797FF0123A36110BD11
:104F8000E8560000F14E0000F8B51B4B1E68B369EF
:104F9000074613B93046FFF7C7FF4836D6E9013454
:104FA000013B03D5336833B13668F7E7B4F90C50E9
:104FB0006DB16834F4E704213846FFF79FFF306095
:104FC0000028F1D10C233B6004462046F8BD0B4B72
:104FD0006566C4E90055A560C4E90335C4E9055513
:104FE0000822294604F15C00FFF7C0F9C4E90D5519
:104FF000C4E91255E9E700BFE85600000100FFFFD1
:105000002DE9F8438046894600F14804002614B98A
:105010003046BDE8F883D4E90175013F01D5246825
:10502000F5E7AB89012B07D9B5F90E30013303D071
:1050300029464046C84706436835EEE7D0F8EC00FD
:10504000704770B50E46B1F90E10002996B014469F
:105050001D4607DA00232B60B3891A0610D44FF4DB
:1050600080630EE06A4600F029FA0028F2DB019A1C
:1050700002F47042A2F500535A425A412A60EEE708
:1050800040230020236016B070BD00008B8973B5EB
:105090009D0706460C4607D504F1470323602361AC
:1050A0000123636102B070BD01AB6A46FFF7C9FF1F
:1050B00000990546304600F0E1F848B9B4F90C30E3
:1050C0009A05EFD423F0030343F00203A381E3E73F
:1050D0000D4BB362A389206043F08003A381009B42
:1050E0006361019B20615BB1B4F90E10304600F0A2
:1050F000F7F928B1A38923F0030343F00103A38147
:10510000A3891D43A581CDE7F14E0000024B014666
:10511000186800F0B3B800BF1400002082B001B9D5
:1051200001A942B14BB113780B601278101C18BF63
:10513000012002B070471046FBE76FF00100F8E76E
:1051400001F0FF01102A2BDB10F0070F08D010F838
:10515000013B013A8B422DD010F0070F42B3F6D13C
:10516000F0B441EA012141EA014122F007047FF055
:1051700000070023F0E80256083C85EA010586EAAC
:10518000010685FA47F5A3FA87F586FA47F6A5FAE8
:1051900087F68EB9EED1F0BC01F0FF0102F00702F4
:1051A00032B110F8013B013A83EA010313B1F8D19F
:1051B0000020704701387047002D06BF3546033880
:1051C000073815F0010F07D1013015F4807F02BFB9
:1051D000013015F4C03F0130F0BC0138704700BF0A
:1051E00038B50546002945D051F8043C0C1F002B6A
:1051F000B8BFE41800F096F91F4A1368104633B997
:10520000636014602846BDE8384000F08CB9A342C2
:105210000CD921686218934204BF1A685B68636006
:1052200004BF521822600460ECE713465A680AB1C2
:10523000A242FAD919685818A0420BD1206801443B
:10524000581882421960DDD1106852685A600144D2
:105250001960D7E702D90C232B60D3E72068211807
:105260008A4204BF11685268626004BF0918216055
:105270005C60C7E738BD00BF5402002070B5CD1C8C
:1052800025F0030508350C2D38BF0C25002D0646EA
:1052900001DBA94203D90C233360002070BD00F06C
:1052A00041F9214A1468214691B9204C23681BB961
:1052B000304600F03DF820602946304600F038F8CE
:1052C000431C24D10C233360304600F02CF9E4E772
:1052D0000B685B1B18D40B2B0FD90B60CD50CC186F
:1052E000304600F020F904F10B00231D20F00700E8
:1052F000C31AD3D05A42E250D0E78C424B6816BF53
:10530000636013600C46EBE70C464968CCE7C41CAD
:1053100024F00304A04205D0211A304600F008F81A
:105320000130CFD02560DBE7540200205802002076
:1053300038B5064C0023054608462360FEF7FCFA04
:10534000431C02D1236803B12B6038BD5C020020EE
:105350001F2938B504460D4604D9162303604FF0C3
:10536000FF3038BD426C12B152F821304BB92046A3
:1053700000F030F82A4601462046BDE8384000F0EB
:1053800017B8012B0AD0591C03D116230360012042
:10539000E7E7002442F82540284698470020E0E748
:1053A000024B01461868FFF7D3BF00BF140000206E
:1053B00038B5074C00230546084611462360FEF722
:1053C00075FA431C02D1236803B12B6038BD00BFBE
:1053D0005C020020FEF757BA10B50C46B1F90E106A
:1053E00000F0A2F80028ABBF636DA3891B1823F45B
:1053F0008053ACBF6365A38110BD2DE9F0411F460A
:105400008B89DB0505460C46164605D5022300228E
:10541000B1F90E1000F074F8A389B4F90E1023F45A
:105420008053A38132463B462846BDE8F04100F058
:1054300023B810B50C46B1F90E1000F061F8431C0A
:10544000A38915BF606523F4805343F48053A3817F
:1054500018BFA38110BDB1F90E1000F01FB849B1FB
:10546000FF2A85BF8A2303600A704FF0FF3098BF80
:10547000012070470846704738B5074C0546084676
:105480001146002222601A46FEF776FA431C02D12A
:10549000236803B12B6038BD5C02002038B5064C90
:1054A0000023054608462360FEF7CDF9431C02D1D0
:1054B000236803B12B6038BD5C02002038B5074C6F
:1054C00000230546084611462360FEF7CCF9431C2D
:1054D00002D1236803B12B6038BD00BF5C020020FD
:1054E00038B5064C0023054608462360FEF7D3F97D
:1054F000431C02D1236803B12B6038BD5C0200203D
:1055000038B5074C054608461146002222601A4667
:10551000FEF7D9F9431C02D1236803B12B6038BDD3
:105520005C0200207047704738B5074C05460846B6
:105530001146002222601A46FEF7D2F9431C02D11E
:10554000236803B12B6038BD5C020020F8B500BFB2
:10555000F8BC08BC9E467047F8B500BFF8BC08BC54
:105560009E46704740787D0100000000005A6202AC
:1055700000010000C0CF6A0002000000809FD5003B
:1055800002010000002D3101020200004465736930
:1055900072656420706572696F643A202564206DBD
:1055A000730A00005379737469636B2070657269C4
:1055B0006F6420697320746F6F206C6F6E672E208C
:1055C0004D61782076616C7565206973203078664E
:1055D00066666666662C207E322E32487A000000AF
:1055E000496E7661696C64206E756D626572206FBC
:1055F00066207365676D656E742E204D757374201B
:105600006265203020746F203400000030000000FC
:105610002E2E2F6C65642F6C65645F636F6E7472E1
:105620006F6C2E63000000004C6544726976655310
:105630006576656E53656700050000000000000098
:1056400000C2010000050000001000000000000082
:1056500000000000300000002E2E2F7372632F6DAB
:1056600061696E2E63000000000108070F000A0048
:10567000C8002000A000010000000000A000680198
:105680000A200706020A04070000000031373137FC
:1056900030300000010000000500000000000000A4
:1056A000000207006D61696E002C2066756E6374E0
:1056B000696F6E3A2000617373657274696F6E2052
:1056C00022257322206661696C65643A2066696CE4
:1056D0006520222573222C206C696E6520256425A7
:1056E0007325730A0000000018000020232D302BC2
:1056F0002000686C4C0065666745464700303132D3
:105700003334353637383941424344454600303129
:105710003233343536373839616263646566000088
:105720000000000000000000000000000000000079
:105730000000000000000000000000000000000069
:105740000000000000000000000000000000000059
:105750000000000000000000000000000000000049
:105760000000000000000000000000000000000039
:105770000000000000000000000000000000000029
:105780004300504F534958002E0000202020202075
:1057900020202020282828282820202020202020E1
:1057A00020202020202020202020208810101010D1
:1057B0001010101010101010101010040404040425
:1057C0000404040404101010101010104141414151
:1057D0004141010101010101010101010101010139
:1057E000010101010101101010101010424242424B
:1057F0004242020202020202020202020202020209
:10580000020202020202101010102000000000002C
:105810000000000000000000000000000000000088
:105820000000000000000000000000000000000078
:105830000000000000000000000000000000000068
:105840000000000000000000000000000000000058
:105850000000000000000000000000000000000048
:105860000000000000000000000000000000000038
:105870000000000000000000000000000000000028
:105880000000000000000000000000000000000018
:08589000BCA8FF7F010000002D
:1058980000F0490200800000C0EA2101C0EA2101AD
:1058A800C0EA210118000020000000004057000055
:1058B80060570000205700000000000000000000B2
:1058C80000000000000000000000000000000000D0
:1058D80000000000000000000000000000000000C0
:1058E80000000000000000000000000000000000B0
:1058F80000000000000000000000000000000000A0
:10590800000000000000000043000000000000004C
:10591800000000000000000000000000000000007F
:10592800000000000000000043000000000000002C
:10593800000000000000000000000000000000005F
:10594800000000000000000043000000000000000C
:10595800000000000000000000000000000000003F
:1059680000000000000000004300000000000000EC
:10597800000000000000000000000000000000001F
:1059880000000000000000004300000000000000CC
:1059980000000000000000000000000000000000FF
:1059A80000000000000000004300000000000000AC
:1059B80000000000000000000000000000000000DF
:1059C800000000000000000043000000000000008C
:1059D80000000000000000000000000000000000BF
:1059E80000000000000000005F5400001D5100008E
:1059F800000000008A57000088570000E4560000A5
:105A0800E4560000E4560000E4560000E4560000A6
:105A1800E4560000E4560000E4560000E456000096
:105A2800FFFFFFFFFFFFFFFFFFFFFFFFFFFF00007C
:105A380001004153434949000000000000000000F4
:105A4800000000000000000000000000000000004E
:105A580000004153434949000000000000000000D5
:105A6800000000000000000000000000000000002E
:0C5A780000000000310100000D010000E2
:04000003000001C137
:00000001FF
